{
  "transactions": [
    {
      "hash": "0xa5d15d04ec8d2d63623a83662f297b12dabd7cb3352434d2766abebc391add3d",
      "transactionType": "CALL",
      "contractName": null,
      "contractAddress": "0xb3177343D025F0aD93C7c6FEC2ac01edD3775d80",
      "function": "registerChoice(bytes32,bytes)",
      "arguments": [
        "0x5e60a860c3f50482c45a35ad18def474c63b960b4d9f81624d81c78c952af68d",
        "0x000000000000000000000000000000000000000000000000000000000000004000000000000000000000000000000000000000000000000000000000000000800000000000000000000000000000000000000000000000000000000000000002307800000000000000000000000000000000000000000000000000000000000000000000000000000000000000000000000000000000000000000000000000000000000000000000000000000000000000000000000000000000000000000040000000000000000000000000000000000000000000000000000000000000000e5468697320697320536869702031000000000000000000000000000000000000"
      ],
      "transaction": {
        "type": "0x02",
        "from": "0xacb3afa9ca0b4edeac41a98e1f90ba6300b6d217",
        "to": "0xb3177343d025f0ad93c7c6fec2ac01edd3775d80",
        "gas": "0x2c847",
        "value": "0x0",
        "data": "0x175b9bee5e60a860c3f50482c45a35ad18def474c63b960b4d9f81624d81c78c952af68d00000000000000000000000000000000000000000000000000000000000000400000000000000000000000000000000000000000000000000000000000000100000000000000000000000000000000000000000000000000000000000000004000000000000000000000000000000000000000000000000000000000000000800000000000000000000000000000000000000000000000000000000000000002307800000000000000000000000000000000000000000000000000000000000000000000000000000000000000000000000000000000000000000000000000000000000000000000000000000000000000000000000000000000000000000040000000000000000000000000000000000000000000000000000000000000000e5468697320697320536869702031000000000000000000000000000000000000",
        "nonce": "0x47",
        "accessList": []
      },
      "additionalContracts": [],
      "isFixedGasLimit": false
    },
    {
      "hash": "0xa351a6b11222c52f9a017aade46c4caea9c37cf5e2188eef7255192bb2c15e13",
      "transactionType": "CALL",
      "contractName": null,
      "contractAddress": "0xb3177343D025F0aD93C7c6FEC2ac01edD3775d80",
      "function": "registerChoice(bytes32,bytes)",
      "arguments": [
        "0x4e64fd275d160219e7a9e6c4da76c32bd50c8c94e747a22852297c68224fc80a",
        "0x000000000000000000000000000000000000000000000000000000000000004000000000000000000000000000000000000000000000000000000000000000800000000000000000000000000000000000000000000000000000000000000002307800000000000000000000000000000000000000000000000000000000000000000000000000000000000000000000000000000000000000000000000000000000000000000000000000000000000000000000000000000000000000000040000000000000000000000000000000000000000000000000000000000000000e5468697320697320536869702032000000000000000000000000000000000000"
      ],
      "transaction": {
        "type": "0x02",
        "from": "0xacb3afa9ca0b4edeac41a98e1f90ba6300b6d217",
        "to": "0xb3177343d025f0ad93c7c6fec2ac01edd3775d80",
        "gas": "0x2c847",
        "value": "0x0",
        "data": "0x175b9bee4e64fd275d160219e7a9e6c4da76c32bd50c8c94e747a22852297c68224fc80a00000000000000000000000000000000000000000000000000000000000000400000000000000000000000000000000000000000000000000000000000000100000000000000000000000000000000000000000000000000000000000000004000000000000000000000000000000000000000000000000000000000000000800000000000000000000000000000000000000000000000000000000000000002307800000000000000000000000000000000000000000000000000000000000000000000000000000000000000000000000000000000000000000000000000000000000000000000000000000000000000000000000000000000000000000040000000000000000000000000000000000000000000000000000000000000000e5468697320697320536869702032000000000000000000000000000000000000",
        "nonce": "0x48",
        "accessList": []
      },
      "additionalContracts": [],
      "isFixedGasLimit": false
    },
    {
      "hash": "0xb1f95f68cd33e28186b09e56ecaae9dc9b9a0d0f6cba76d815ccb3bbdfb43f58",
      "transactionType": "CALL",
      "contractName": null,
      "contractAddress": "0xb3177343D025F0aD93C7c6FEC2ac01edD3775d80",
      "function": "registerChoice(bytes32,bytes)",
      "arguments": [
        "0xff9c875faeeab3f92bb14a4f727e20a05daae059b25ea3dc028dc78ecba68e68",
        "0x000000000000000000000000000000000000000000000000000000000000004000000000000000000000000000000000000000000000000000000000000000800000000000000000000000000000000000000000000000000000000000000002307800000000000000000000000000000000000000000000000000000000000000000000000000000000000000000000000000000000000000000000000000000000000000000000000000000000000000000000000000000000000000000040000000000000000000000000000000000000000000000000000000000000000e5468697320697320536869702033000000000000000000000000000000000000"
      ],
      "transaction": {
        "type": "0x02",
        "from": "0xacb3afa9ca0b4edeac41a98e1f90ba6300b6d217",
        "to": "0xb3177343d025f0ad93c7c6fec2ac01edd3775d80",
        "gas": "0x2c847",
        "value": "0x0",
        "data": "0x175b9beeff9c875faeeab3f92bb14a4f727e20a05daae059b25ea3dc028dc78ecba68e6800000000000000000000000000000000000000000000000000000000000000400000000000000000000000000000000000000000000000000000000000000100000000000000000000000000000000000000000000000000000000000000004000000000000000000000000000000000000000000000000000000000000000800000000000000000000000000000000000000000000000000000000000000002307800000000000000000000000000000000000000000000000000000000000000000000000000000000000000000000000000000000000000000000000000000000000000000000000000000000000000000000000000000000000000000040000000000000000000000000000000000000000000000000000000000000000e5468697320697320536869702033000000000000000000000000000000000000",
        "nonce": "0x49",
        "accessList": []
      },
      "additionalContracts": [],
      "isFixedGasLimit": false
    }
  ],
  "receipts": [
    {
      "transactionHash": "0xa5d15d04ec8d2d63623a83662f297b12dabd7cb3352434d2766abebc391add3d",
      "transactionIndex": "0x2",
      "blockHash": "0x605d09615e836393bd2b1a452c3a70d4f57ea44570721de75d804fc5fbb22533",
      "blockNumber": "0x2dc5f41",
      "from": "0xacB3Afa9Ca0b4edeAc41a98E1F90ba6300b6D217",
      "to": "0xb3177343D025F0aD93C7c6FEC2ac01edD3775d80",
      "cumulativeGasUsed": "0x54423",
      "gasUsed": "0x21d0d",
      "contractAddress": null,
      "logs": [
        {
          "address": "0xb3177343D025F0aD93C7c6FEC2ac01edD3775d80",
          "topics": [
            "0x071e558fc805c703ae0626ef861566f1ffb1a6f89cb27e03a63cb6044ac8394c"
          ],
          "data": "0x5e60a860c3f50482c45a35ad18def474c63b960b4d9f81624d81c78c952af68d0000000000000000000000000000000000000000000000000000000000000040000000000000000000000000000000000000000000000000000000000000006000000000000000000000000000000000000000000000000000000000000000e0000000000000000000000000000000000000000000000000000000000000000100000000000000000000000000000000000000000000000000000000000000000000000000000000000000000000000000000000000000000000000000000040000000000000000000000000000000000000000000000000000000000000000e546869732069732053686970203100000000000000000000000000000000000000000000000000000000000000000000000000000000000000000000000000023078000000000000000000000000000000000000000000000000000000000000",
          "blockHash": "0x605d09615e836393bd2b1a452c3a70d4f57ea44570721de75d804fc5fbb22533",
          "blockNumber": "0x2dc5f41",
          "transactionHash": "0xa5d15d04ec8d2d63623a83662f297b12dabd7cb3352434d2766abebc391add3d",
          "transactionIndex": "0x2",
          "logIndex": "0x0",
          "removed": false
        }
      ],
      "status": "0x1",
      "logsBloom": "0x00000000000000000000000000000000000000000000000000000000000000000000000000000000000000000000000000000000000000000000000000000000000000000000000000000000000000000000000000000000200000000000000000000000000000000000000000000000000000000000000000000000000000000000000000000000000000000000000040000000000000000000000000004000000000000000000000000000000000000000000000000000000000000000000000000000100000000000000000000000000000000000000020000000000000010000000000000000000000000000000000000000000000000000000000000000",
      "type": "0x2",
      "effectiveGasPrice": "0x808e280"
    },
    {
      "transactionHash": "0xa351a6b11222c52f9a017aade46c4caea9c37cf5e2188eef7255192bb2c15e13",
      "transactionIndex": "0x3",
      "blockHash": "0x1e3c4b794921d0bd3b2204e137661309f969c5dc4ac7ba8ce09ff791bfa30166",
      "blockNumber": "0x2dc5f44",
      "from": "0xacB3Afa9Ca0b4edeAc41a98E1F90ba6300b6D217",
      "to": "0xb3177343D025F0aD93C7c6FEC2ac01edD3775d80",
      "cumulativeGasUsed": "0x80d15",
      "gasUsed": "0x21d0d",
      "contractAddress": null,
      "logs": [
        {
          "address": "0xb3177343D025F0aD93C7c6FEC2ac01edD3775d80",
          "topics": [
            "0x071e558fc805c703ae0626ef861566f1ffb1a6f89cb27e03a63cb6044ac8394c"
          ],
          "data": "0x4e64fd275d160219e7a9e6c4da76c32bd50c8c94e747a22852297c68224fc80a0000000000000000000000000000000000000000000000000000000000000040000000000000000000000000000000000000000000000000000000000000006000000000000000000000000000000000000000000000000000000000000000e0000000000000000000000000000000000000000000000000000000000000000100000000000000000000000000000000000000000000000000000000000000000000000000000000000000000000000000000000000000000000000000000040000000000000000000000000000000000000000000000000000000000000000e546869732069732053686970203200000000000000000000000000000000000000000000000000000000000000000000000000000000000000000000000000023078000000000000000000000000000000000000000000000000000000000000",
          "blockHash": "0x1e3c4b794921d0bd3b2204e137661309f969c5dc4ac7ba8ce09ff791bfa30166",
          "blockNumber": "0x2dc5f44",
          "transactionHash": "0xa351a6b11222c52f9a017aade46c4caea9c37cf5e2188eef7255192bb2c15e13",
          "transactionIndex": "0x3",
          "logIndex": "0x5",
          "removed": false
        }
      ],
      "status": "0x1",
      "logsBloom": "0x00000000000000000000000000000000000000000000000000000000000000000000000000000000000000000000000000000000000000000000000000000000000000000000000000000000000000000000000000000000200000000000000000000000000000000000000000000000000000000000000000000000000000000000000000000000000000000000000040000000000000000000000000004000000000000000000000000000000000000000000000000000000000000000000000000000100000000000000000000000000000000000000020000000000000010000000000000000000000000000000000000000000000000000000000000000",
      "type": "0x2",
      "effectiveGasPrice": "0x8084640"
    },
    {
      "transactionHash": "0xb1f95f68cd33e28186b09e56ecaae9dc9b9a0d0f6cba76d815ccb3bbdfb43f58",
      "transactionIndex": "0x2",
      "blockHash": "0xda3d2c0d15918b24aba17690c3c5eb081c374f0ec7087e15949154332ed201f1",
      "blockNumber": "0x2dc5f47",
      "from": "0xacB3Afa9Ca0b4edeAc41a98E1F90ba6300b6D217",
      "to": "0xb3177343D025F0aD93C7c6FEC2ac01edD3775d80",
      "cumulativeGasUsed": "0x2b19f",
      "gasUsed": "0x21d0d",
      "contractAddress": null,
      "logs": [
        {
          "address": "0xb3177343D025F0aD93C7c6FEC2ac01edD3775d80",
          "topics": [
            "0x071e558fc805c703ae0626ef861566f1ffb1a6f89cb27e03a63cb6044ac8394c"
          ],
          "data": "0xff9c875faeeab3f92bb14a4f727e20a05daae059b25ea3dc028dc78ecba68e680000000000000000000000000000000000000000000000000000000000000040000000000000000000000000000000000000000000000000000000000000006000000000000000000000000000000000000000000000000000000000000000e0000000000000000000000000000000000000000000000000000000000000000100000000000000000000000000000000000000000000000000000000000000000000000000000000000000000000000000000000000000000000000000000040000000000000000000000000000000000000000000000000000000000000000e546869732069732053686970203300000000000000000000000000000000000000000000000000000000000000000000000000000000000000000000000000023078000000000000000000000000000000000000000000000000000000000000",
          "blockHash": "0xda3d2c0d15918b24aba17690c3c5eb081c374f0ec7087e15949154332ed201f1",
          "blockNumber": "0x2dc5f47",
          "transactionHash": "0xb1f95f68cd33e28186b09e56ecaae9dc9b9a0d0f6cba76d815ccb3bbdfb43f58",
          "transactionIndex": "0x2",
          "logIndex": "0x1",
          "removed": false
        }
      ],
      "status": "0x1",
      "logsBloom": "0x00000000000000000000000000000000000000000000000000000000000000000000000000000000000000000000000000000000000000000000000000000000000000000000000000000000000000000000000000000000200000000000000000000000000000000000000000000000000000000000000000000000000000000000000000000000000000000000000040000000000000000000000000004000000000000000000000000000000000000000000000000000000000000000000000000000100000000000000000000000000000000000000020000000000000010000000000000000000000000000000000000000000000000000000000000000",
      "type": "0x2",
      "effectiveGasPrice": "0x7fb26e0"
    }
  ],
  "libraries": [],
  "pending": [],
  "returns": {},
  "timestamp": 1716700808,
  "chain": 421614,
  "commit": "d46b927"
}