{
  "transactions": [
    {
      "hash": "0x11017d08169237af6a9dcf1d2f8e1a63cefd963d5cc9ed92190c1cf4aec674ad",
      "transactionType": "CALL",
      "contractName": null,
      "contractAddress": "0xb3177343D025F0aD93C7c6FEC2ac01edD3775d80",
      "function": "removeChoice(bytes32,bytes)",
      "arguments": [
        "0x5e60a860c3f50482c45a35ad18def474c63b960b4d9f81624d81c78c952af68d",
        "0x"
      ],
      "transaction": {
        "type": "0x02",
        "from": "0xacb3afa9ca0b4edeac41a98e1f90ba6300b6d217",
        "to": "0xb3177343d025f0ad93c7c6fec2ac01edd3775d80",
        "gas": "0x19a5a",
        "value": "0x0",
        "data": "0x4c4f86a55e60a860c3f50482c45a35ad18def474c63b960b4d9f81624d81c78c952af68d00000000000000000000000000000000000000000000000000000000000000400000000000000000000000000000000000000000000000000000000000000000",
        "nonce": "0x44",
        "accessList": []
      },
      "additionalContracts": [],
      "isFixedGasLimit": false
    },
    {
      "hash": "0xdb5ecd3f755d9de85fad29ceeae6fb72f190e2929cbeb890cd94b6725b38d5ef",
      "transactionType": "CALL",
      "contractName": null,
      "contractAddress": "0xb3177343D025F0aD93C7c6FEC2ac01edD3775d80",
      "function": "removeChoice(bytes32,bytes)",
      "arguments": [
        "0x4e64fd275d160219e7a9e6c4da76c32bd50c8c94e747a22852297c68224fc80a",
        "0x"
      ],
      "transaction": {
        "type": "0x02",
        "from": "0xacb3afa9ca0b4edeac41a98e1f90ba6300b6d217",
        "to": "0xb3177343d025f0ad93c7c6fec2ac01edd3775d80",
        "gas": "0x19a5a",
        "value": "0x0",
        "data": "0x4c4f86a54e64fd275d160219e7a9e6c4da76c32bd50c8c94e747a22852297c68224fc80a00000000000000000000000000000000000000000000000000000000000000400000000000000000000000000000000000000000000000000000000000000000",
        "nonce": "0x45",
        "accessList": []
      },
      "additionalContracts": [],
      "isFixedGasLimit": false
    },
    {
      "hash": "0x0aa8cac206e99c52b4305daeff5bc6e5ac7486cb1e304ed50c9ca90d5740c5d3",
      "transactionType": "CALL",
      "contractName": null,
      "contractAddress": "0xb3177343D025F0aD93C7c6FEC2ac01edD3775d80",
      "function": "removeChoice(bytes32,bytes)",
      "arguments": [
        "0xff9c875faeeab3f92bb14a4f727e20a05daae059b25ea3dc028dc78ecba68e68",
        "0x"
      ],
      "transaction": {
        "type": "0x02",
        "from": "0xacb3afa9ca0b4edeac41a98e1f90ba6300b6d217",
        "to": "0xb3177343d025f0ad93c7c6fec2ac01edd3775d80",
        "gas": "0x19a5a",
        "value": "0x0",
        "data": "0x4c4f86a5ff9c875faeeab3f92bb14a4f727e20a05daae059b25ea3dc028dc78ecba68e6800000000000000000000000000000000000000000000000000000000000000400000000000000000000000000000000000000000000000000000000000000000",
        "nonce": "0x46",
        "accessList": []
      },
      "additionalContracts": [],
      "isFixedGasLimit": false
    }
  ],
  "receipts": [
    {
      "transactionHash": "0x11017d08169237af6a9dcf1d2f8e1a63cefd963d5cc9ed92190c1cf4aec674ad",
      "transactionIndex": "0x2",
      "blockHash": "0xaa34ac77c4cfba9082724f74a9bc4c6dc3d19a50cf1b8045d12f512e981f7c97",
      "blockNumber": "0x2dc5e61",
      "from": "0xacB3Afa9Ca0b4edeAc41a98E1F90ba6300b6D217",
      "to": "0xb3177343D025F0aD93C7c6FEC2ac01edD3775d80",
      "cumulativeGasUsed": "0x16852",
      "gasUsed": "0x1001a",
      "contractAddress": null,
      "logs": [
        {
          "address": "0xb3177343D025F0aD93C7c6FEC2ac01edD3775d80",
          "topics": [
            "0xc258b116f380657d67061f79c25e784314e0e1ed9b52630fac916654db634998"
          ],
          "data": "0x5e60a860c3f50482c45a35ad18def474c63b960b4d9f81624d81c78c952af68d",
          "blockHash": "0xaa34ac77c4cfba9082724f74a9bc4c6dc3d19a50cf1b8045d12f512e981f7c97",
          "blockNumber": "0x2dc5e61",
          "transactionHash": "0x11017d08169237af6a9dcf1d2f8e1a63cefd963d5cc9ed92190c1cf4aec674ad",
          "transactionIndex": "0x2",
          "logIndex": "0x1",
          "removed": false
        }
      ],
      "status": "0x1",
      "logsBloom": "0x00000000000000000000000000000000080000000000000000000000000000000000000000000000000000000000000000000000000000000000000000000000000000000000000000000000000000000000000000000000000000000000000000000000000000000000000000000020000000000000000000000000000000000000000000000000000000000000000000000000000000000000000000004000000000000000000000000000000000000000000000000000000000000000000000000000000000000000000000000000000000000000000020000000000000010000000000000000040000000000000000000000000000000000000000000000",
      "type": "0x2",
      "effectiveGasPrice": "0x8251d10"
    },
    {
      "transactionHash": "0xdb5ecd3f755d9de85fad29ceeae6fb72f190e2929cbeb890cd94b6725b38d5ef",
      "transactionIndex": "0x1",
      "blockHash": "0x9120f95620dd2344af77207db3ad30b54739dc8bb56db149755426269ce458e2",
      "blockNumber": "0x2dc5e64",
      "from": "0xacB3Afa9Ca0b4edeAc41a98E1F90ba6300b6D217",
      "to": "0xb3177343D025F0aD93C7c6FEC2ac01edD3775d80",
      "cumulativeGasUsed": "0x1001a",
      "gasUsed": "0x1001a",
      "contractAddress": null,
      "logs": [
        {
          "address": "0xb3177343D025F0aD93C7c6FEC2ac01edD3775d80",
          "topics": [
            "0xc258b116f380657d67061f79c25e784314e0e1ed9b52630fac916654db634998"
          ],
          "data": "0x4e64fd275d160219e7a9e6c4da76c32bd50c8c94e747a22852297c68224fc80a",
          "blockHash": "0x9120f95620dd2344af77207db3ad30b54739dc8bb56db149755426269ce458e2",
          "blockNumber": "0x2dc5e64",
          "transactionHash": "0xdb5ecd3f755d9de85fad29ceeae6fb72f190e2929cbeb890cd94b6725b38d5ef",
          "transactionIndex": "0x1",
          "logIndex": "0x0",
          "removed": false
        }
      ],
      "status": "0x1",
      "logsBloom": "0x00000000000000000000000000000000080000000000000000000000000000000000000000000000000000000000000000000000000000000000000000000000000000000000000000000000000000000000000000000000000000000000000000000000000000000000000000000020000000000000000000000000000000000000000000000000000000000000000000000000000000000000000000004000000000000000000000000000000000000000000000000000000000000000000000000000000000000000000000000000000000000000000020000000000000010000000000000000040000000000000000000000000000000000000000000000",
      "type": "0x2",
      "effectiveGasPrice": "0x817d6a0"
    },
    {
      "transactionHash": "0x0aa8cac206e99c52b4305daeff5bc6e5ac7486cb1e304ed50c9ca90d5740c5d3",
      "transactionIndex": "0x2",
      "blockHash": "0xe6322313a1a02bd97cef6c8d101ec69f93010663054c4d96edfb6f11108f203c",
      "blockNumber": "0x2dc5e67",
      "from": "0xacB3Afa9Ca0b4edeAc41a98E1F90ba6300b6D217",
      "to": "0xb3177343D025F0aD93C7c6FEC2ac01edD3775d80",
      "cumulativeGasUsed": "0x51138",
      "gasUsed": "0x1001a",
      "contractAddress": null,
      "logs": [
        {
          "address": "0xb3177343D025F0aD93C7c6FEC2ac01edD3775d80",
          "topics": [
            "0xc258b116f380657d67061f79c25e784314e0e1ed9b52630fac916654db634998"
          ],
          "data": "0xff9c875faeeab3f92bb14a4f727e20a05daae059b25ea3dc028dc78ecba68e68",
          "blockHash": "0xe6322313a1a02bd97cef6c8d101ec69f93010663054c4d96edfb6f11108f203c",
          "blockNumber": "0x2dc5e67",
          "transactionHash": "0x0aa8cac206e99c52b4305daeff5bc6e5ac7486cb1e304ed50c9ca90d5740c5d3",
          "transactionIndex": "0x2",
          "logIndex": "0x0",
          "removed": false
        }
      ],
      "status": "0x1",
      "logsBloom": "0x00000000000000000000000000000000080000000000000000000000000000000000000000000000000000000000000000000000000000000000000000000000000000000000000000000000000000000000000000000000000000000000000000000000000000000000000000000020000000000000000000000000000000000000000000000000000000000000000000000000000000000000000000004000000000000000000000000000000000000000000000000000000000000000000000000000000000000000000000000000000000000000000020000000000000010000000000000000040000000000000000000000000000000000000000000000",
      "type": "0x2",
      "effectiveGasPrice": "0x810aab0"
    }
  ],
  "libraries": [],
  "pending": [],
  "returns": {},
  "timestamp": 1716700752,
  "chain": 421614,
  "commit": "d46b927"
}