{
  "transactions": [
    {
      "hash": "0xcdd1993d3db3e211c84dda88b3d05f28bb672f80e196e8041e2ef12be07bd0c5",
      "transactionType": "CALL",
      "contractName": null,
      "contractAddress": "0xb3177343D025F0aD93C7c6FEC2ac01edD3775d80",
      "function": "registerChoice(bytes32,bytes)",
      "arguments": [
        "0x5e60a860c3f50482c45a35ad18def474c63b960b4d9f81624d81c78c952af68d",
        "0x000000000000000000000000000000000000000000000000000000000000004000000000000000000000000000000000000000000000000000000000000000800000000000000000000000000000000000000000000000000000000000000002307800000000000000000000000000000000000000000000000000000000000000000000000000000000000000000000000000000000000000000000000000000000000000000000000000000000000000000000000000000000000000000040000000000000000000000000000000000000000000000000000000000000000e5468697320697320536869702031000000000000000000000000000000000000"
      ],
      "transaction": {
        "type": "0x02",
        "from": "0xacb3afa9ca0b4edeac41a98e1f90ba6300b6d217",
        "to": "0xb3177343d025f0ad93c7c6fec2ac01edd3775d80",
        "gas": "0x2c847",
        "value": "0x0",
        "data": "0x175b9bee5e60a860c3f50482c45a35ad18def474c63b960b4d9f81624d81c78c952af68d00000000000000000000000000000000000000000000000000000000000000400000000000000000000000000000000000000000000000000000000000000100000000000000000000000000000000000000000000000000000000000000004000000000000000000000000000000000000000000000000000000000000000800000000000000000000000000000000000000000000000000000000000000002307800000000000000000000000000000000000000000000000000000000000000000000000000000000000000000000000000000000000000000000000000000000000000000000000000000000000000000000000000000000000000000040000000000000000000000000000000000000000000000000000000000000000e5468697320697320536869702031000000000000000000000000000000000000",
        "nonce": "0x41",
        "accessList": []
      },
      "additionalContracts": [],
      "isFixedGasLimit": false
    },
    {
      "hash": "0x0bc4f44bfc59e205cd9723e2817b59596a77db1c506214e9765dddfc7c818ad1",
      "transactionType": "CALL",
      "contractName": null,
      "contractAddress": "0xb3177343D025F0aD93C7c6FEC2ac01edD3775d80",
      "function": "registerChoice(bytes32,bytes)",
      "arguments": [
        "0x4e64fd275d160219e7a9e6c4da76c32bd50c8c94e747a22852297c68224fc80a",
        "0x000000000000000000000000000000000000000000000000000000000000004000000000000000000000000000000000000000000000000000000000000000800000000000000000000000000000000000000000000000000000000000000002307800000000000000000000000000000000000000000000000000000000000000000000000000000000000000000000000000000000000000000000000000000000000000000000000000000000000000000000000000000000000000000040000000000000000000000000000000000000000000000000000000000000000e5468697320697320536869702032000000000000000000000000000000000000"
      ],
      "transaction": {
        "type": "0x02",
        "from": "0xacb3afa9ca0b4edeac41a98e1f90ba6300b6d217",
        "to": "0xb3177343d025f0ad93c7c6fec2ac01edd3775d80",
        "gas": "0x2c847",
        "value": "0x0",
        "data": "0x175b9bee4e64fd275d160219e7a9e6c4da76c32bd50c8c94e747a22852297c68224fc80a00000000000000000000000000000000000000000000000000000000000000400000000000000000000000000000000000000000000000000000000000000100000000000000000000000000000000000000000000000000000000000000004000000000000000000000000000000000000000000000000000000000000000800000000000000000000000000000000000000000000000000000000000000002307800000000000000000000000000000000000000000000000000000000000000000000000000000000000000000000000000000000000000000000000000000000000000000000000000000000000000000000000000000000000000000040000000000000000000000000000000000000000000000000000000000000000e5468697320697320536869702032000000000000000000000000000000000000",
        "nonce": "0x42",
        "accessList": []
      },
      "additionalContracts": [],
      "isFixedGasLimit": false
    },
    {
      "hash": "0xcfcb6ae804c55ea2f0b32e0ad9dca6ccde7781e26525405b0a81130d94c1d705",
      "transactionType": "CALL",
      "contractName": null,
      "contractAddress": "0xb3177343D025F0aD93C7c6FEC2ac01edD3775d80",
      "function": "registerChoice(bytes32,bytes)",
      "arguments": [
        "0xff9c875faeeab3f92bb14a4f727e20a05daae059b25ea3dc028dc78ecba68e68",
        "0x000000000000000000000000000000000000000000000000000000000000004000000000000000000000000000000000000000000000000000000000000000800000000000000000000000000000000000000000000000000000000000000002307800000000000000000000000000000000000000000000000000000000000000000000000000000000000000000000000000000000000000000000000000000000000000000000000000000000000000000000000000000000000000000040000000000000000000000000000000000000000000000000000000000000000e5468697320697320536869702033000000000000000000000000000000000000"
      ],
      "transaction": {
        "type": "0x02",
        "from": "0xacb3afa9ca0b4edeac41a98e1f90ba6300b6d217",
        "to": "0xb3177343d025f0ad93c7c6fec2ac01edd3775d80",
        "gas": "0x2c847",
        "value": "0x0",
        "data": "0x175b9beeff9c875faeeab3f92bb14a4f727e20a05daae059b25ea3dc028dc78ecba68e6800000000000000000000000000000000000000000000000000000000000000400000000000000000000000000000000000000000000000000000000000000100000000000000000000000000000000000000000000000000000000000000004000000000000000000000000000000000000000000000000000000000000000800000000000000000000000000000000000000000000000000000000000000002307800000000000000000000000000000000000000000000000000000000000000000000000000000000000000000000000000000000000000000000000000000000000000000000000000000000000000000000000000000000000000000040000000000000000000000000000000000000000000000000000000000000000e5468697320697320536869702033000000000000000000000000000000000000",
        "nonce": "0x43",
        "accessList": []
      },
      "additionalContracts": [],
      "isFixedGasLimit": false
    }
  ],
  "receipts": [
    {
      "transactionHash": "0xcdd1993d3db3e211c84dda88b3d05f28bb672f80e196e8041e2ef12be07bd0c5",
      "transactionIndex": "0x3",
      "blockHash": "0xc19a3f2bb1bae72961718bcdf6206646ed82ce8574588bb458b7fb442529a539",
      "blockNumber": "0x2daa1f8",
      "from": "0xacB3Afa9Ca0b4edeAc41a98E1F90ba6300b6D217",
      "to": "0xb3177343D025F0aD93C7c6FEC2ac01edD3775d80",
      "cumulativeGasUsed": "0x815d3",
      "gasUsed": "0x21d0d",
      "contractAddress": null,
      "logs": [
        {
          "address": "0xb3177343D025F0aD93C7c6FEC2ac01edD3775d80",
          "topics": [
            "0x071e558fc805c703ae0626ef861566f1ffb1a6f89cb27e03a63cb6044ac8394c"
          ],
          "data": "0x5e60a860c3f50482c45a35ad18def474c63b960b4d9f81624d81c78c952af68d0000000000000000000000000000000000000000000000000000000000000040000000000000000000000000000000000000000000000000000000000000006000000000000000000000000000000000000000000000000000000000000000e0000000000000000000000000000000000000000000000000000000000000000100000000000000000000000000000000000000000000000000000000000000000000000000000000000000000000000000000000000000000000000000000040000000000000000000000000000000000000000000000000000000000000000e546869732069732053686970203100000000000000000000000000000000000000000000000000000000000000000000000000000000000000000000000000023078000000000000000000000000000000000000000000000000000000000000",
          "blockHash": "0xc19a3f2bb1bae72961718bcdf6206646ed82ce8574588bb458b7fb442529a539",
          "blockNumber": "0x2daa1f8",
          "transactionHash": "0xcdd1993d3db3e211c84dda88b3d05f28bb672f80e196e8041e2ef12be07bd0c5",
          "transactionIndex": "0x3",
          "logIndex": "0x3",
          "removed": false
        }
      ],
      "status": "0x1",
      "logsBloom": "0x00000000000000000000000000000000000000000000000000000000000000000000000000000000000000000000000000000000000000000000000000000000000000000000000000000000000000000000000000000000200000000000000000000000000000000000000000000000000000000000000000000000000000000000000000000000000000000000000040000000000000000000000000004000000000000000000000000000000000000000000000000000000000000000000000000000100000000000000000000000000000000000000020000000000000010000000000000000000000000000000000000000000000000000000000000000",
      "type": "0x2",
      "effectiveGasPrice": "0x2d808f40"
    },
    {
      "transactionHash": "0x0bc4f44bfc59e205cd9723e2817b59596a77db1c506214e9765dddfc7c818ad1",
      "transactionIndex": "0x1",
      "blockHash": "0x7804ebe052bddb1183f28e3f45399dba7070db4e142b85da5ad1fa25bf20991f",
      "blockNumber": "0x2daa1fb",
      "from": "0xacB3Afa9Ca0b4edeAc41a98E1F90ba6300b6D217",
      "to": "0xb3177343D025F0aD93C7c6FEC2ac01edD3775d80",
      "cumulativeGasUsed": "0x21d0d",
      "gasUsed": "0x21d0d",
      "contractAddress": null,
      "logs": [
        {
          "address": "0xb3177343D025F0aD93C7c6FEC2ac01edD3775d80",
          "topics": [
            "0x071e558fc805c703ae0626ef861566f1ffb1a6f89cb27e03a63cb6044ac8394c"
          ],
          "data": "0x4e64fd275d160219e7a9e6c4da76c32bd50c8c94e747a22852297c68224fc80a0000000000000000000000000000000000000000000000000000000000000040000000000000000000000000000000000000000000000000000000000000006000000000000000000000000000000000000000000000000000000000000000e0000000000000000000000000000000000000000000000000000000000000000100000000000000000000000000000000000000000000000000000000000000000000000000000000000000000000000000000000000000000000000000000040000000000000000000000000000000000000000000000000000000000000000e546869732069732053686970203200000000000000000000000000000000000000000000000000000000000000000000000000000000000000000000000000023078000000000000000000000000000000000000000000000000000000000000",
          "blockHash": "0x7804ebe052bddb1183f28e3f45399dba7070db4e142b85da5ad1fa25bf20991f",
          "blockNumber": "0x2daa1fb",
          "transactionHash": "0x0bc4f44bfc59e205cd9723e2817b59596a77db1c506214e9765dddfc7c818ad1",
          "transactionIndex": "0x1",
          "logIndex": "0x0",
          "removed": false
        }
      ],
      "status": "0x1",
      "logsBloom": "0x00000000000000000000000000000000000000000000000000000000000000000000000000000000000000000000000000000000000000000000000000000000000000000000000000000000000000000000000000000000200000000000000000000000000000000000000000000000000000000000000000000000000000000000000000000000000000000000000040000000000000000000000000004000000000000000000000000000000000000000000000000000000000000000000000000000100000000000000000000000000000000000000020000000000000010000000000000000000000000000000000000000000000000000000000000000",
      "type": "0x2",
      "effectiveGasPrice": "0x2d612060"
    },
    {
      "transactionHash": "0xcfcb6ae804c55ea2f0b32e0ad9dca6ccde7781e26525405b0a81130d94c1d705",
      "transactionIndex": "0x1",
      "blockHash": "0x8c60612c567494f985866430bc3016f6f8c87c3214e0a9df17dc0c9fcb743ecf",
      "blockNumber": "0x2daa1fe",
      "from": "0xacB3Afa9Ca0b4edeAc41a98E1F90ba6300b6D217",
      "to": "0xb3177343D025F0aD93C7c6FEC2ac01edD3775d80",
      "cumulativeGasUsed": "0x21d0d",
      "gasUsed": "0x21d0d",
      "contractAddress": null,
      "logs": [
        {
          "address": "0xb3177343D025F0aD93C7c6FEC2ac01edD3775d80",
          "topics": [
            "0x071e558fc805c703ae0626ef861566f1ffb1a6f89cb27e03a63cb6044ac8394c"
          ],
          "data": "0xff9c875faeeab3f92bb14a4f727e20a05daae059b25ea3dc028dc78ecba68e680000000000000000000000000000000000000000000000000000000000000040000000000000000000000000000000000000000000000000000000000000006000000000000000000000000000000000000000000000000000000000000000e0000000000000000000000000000000000000000000000000000000000000000100000000000000000000000000000000000000000000000000000000000000000000000000000000000000000000000000000000000000000000000000000040000000000000000000000000000000000000000000000000000000000000000e546869732069732053686970203300000000000000000000000000000000000000000000000000000000000000000000000000000000000000000000000000023078000000000000000000000000000000000000000000000000000000000000",
          "blockHash": "0x8c60612c567494f985866430bc3016f6f8c87c3214e0a9df17dc0c9fcb743ecf",
          "blockNumber": "0x2daa1fe",
          "transactionHash": "0xcfcb6ae804c55ea2f0b32e0ad9dca6ccde7781e26525405b0a81130d94c1d705",
          "transactionIndex": "0x1",
          "logIndex": "0x0",
          "removed": false
        }
      ],
      "status": "0x1",
      "logsBloom": "0x00000000000000000000000000000000000000000000000000000000000000000000000000000000000000000000000000000000000000000000000000000000000000000000000000000000000000000000000000000000200000000000000000000000000000000000000000000000000000000000000000000000000000000000000000000000000000000000000040000000000000000000000000004000000000000000000000000000000000000000000000000000000000000000000000000000100000000000000000000000000000000000000020000000000000010000000000000000000000000000000000000000000000000000000000000000",
      "type": "0x2",
      "effectiveGasPrice": "0x2d484130"
    }
  ],
  "libraries": [],
  "pending": [],
  "returns": {},
  "timestamp": 1716672193,
  "chain": 421614,
  "commit": "d46b927"
}