{
  "transactions": [
    {
      "hash": "0x0008fd7eae59d93bc562c5019fd3a342e857898936625d253ef3ab7849a77235",
      "transactionType": "CALL",
      "contractName": null,
      "contractAddress": "0x1670EEfb9B638243559b6Fcc7D6d3e6f9d4Ca5Fc",
      "function": "addAdmin(address)",
      "arguments": [
        "0x46bd8E10E006f16C629bcb73c77c2362C85Cc506"
      ],
      "transaction": {
        "type": "0x02",
        "from": "0xacb3afa9ca0b4edeac41a98e1f90ba6300b6d217",
        "to": "0x1670eefb9b638243559b6fcc7d6d3e6f9d4ca5fc",
        "gas": "0x35812",
        "value": "0x0",
        "data": "0x7048027500000000000000000000000046bd8e10e006f16c629bcb73c77c2362c85cc506",
        "nonce": "0x19",
        "accessList": []
      },
      "additionalContracts": [],
      "isFixedGasLimit": false
    }
  ],
  "receipts": [
    {
      "transactionHash": "0x0008fd7eae59d93bc562c5019fd3a342e857898936625d253ef3ab7849a77235",
      "transactionIndex": "0x6",
      "blockHash": "0x88f8599c39f1b4bf2d9e7ae73f7069ae0c24daee690d9a83acdeafc0cdacd601",
      "blockNumber": "0x2c9dcda",
      "from": "0xacB3Afa9Ca0b4edeAc41a98E1F90ba6300b6D217",
      "to": "0x1670EEfb9B638243559b6Fcc7D6d3e6f9d4Ca5Fc",
      "cumulativeGasUsed": "0x284e0d",
      "gasUsed": "0x1f8cd",
      "contractAddress": null,
      "logs": [
        {
          "address": "0x1670EEfb9B638243559b6Fcc7D6d3e6f9d4Ca5Fc",
          "topics": [
            "0x44d6d25963f097ad14f29f06854a01f575648a1ef82f30e562ccd3889717e339"
          ],
          "data": "0x00000000000000000000000046bd8e10e006f16c629bcb73c77c2362c85cc506",
          "blockHash": "0x88f8599c39f1b4bf2d9e7ae73f7069ae0c24daee690d9a83acdeafc0cdacd601",
          "blockNumber": "0x2c9dcda",
          "transactionHash": "0x0008fd7eae59d93bc562c5019fd3a342e857898936625d253ef3ab7849a77235",
          "transactionIndex": "0x6",
          "logIndex": "0xa",
          "removed": false
        }
      ],
      "status": "0x1",
      "logsBloom": "0x00000000000000000000000000000000000000000000000000000000000000000000000000000000000000000000000000000000000000000000002000000000000000000000000000000000000000000000000000000000000000000000000000000000000000000000000000000000000000000000000000000000000000000000000004000000000000000000000000000000000000008000000000000000000000000000000000000000000000000000000000000020000000000000000000000000000000000000000000000000000000000000000000000000800000000000000000000000000000000000000040000000000000000000000000000000",
      "type": "0x2",
      "effectiveGasPrice": "0x9bbe9b0"
    }
  ],
  "libraries": [],
  "pending": [],
  "returns": {},
  "timestamp": 1716397591,
  "chain": 421614,
  "commit": "18aa5b5"
}