{
  "transactions": [
    {
      "hash": "0x518c7d35bd65a1cd30857b0a5586664f2f8f83102e07338bc36804791e5e81f3",
      "transactionType": "CREATE",
      "contractName": "EmptyExecution",
      "contractAddress": "0xb60274DE6dEF245dA0fF46bfC61DafbF312c2BAf",
      "function": null,
      "arguments": null,
      "transaction": {
        "type": "0x02",
        "from": "0xacb3afa9ca0b4edeac41a98e1f90ba6300b6d217",
        "gas": "0x4902e",
        "value": "0x0",
        "data": "0x608060405234801561001057600080fd5b50610333806100206000396000f3fe608060405234801561001057600080fd5b50600436106100415760003560e01c80636146195414610046578063d1f5789414610050578063e3ac83da14610081575b600080fd5b61004e6100b0565b005b61004e61005e3660046101ef565b50600080546001600160a01b0319166001600160a01b0392909216919091179055565b600054610094906001600160a01b031681565b6040516001600160a01b03909116815260200160405180910390f35b600054604080516302734eab60e51b815290516004926001600160a01b031691634e69d560918185019160209190819003860181865afa1580156100f8573d6000803e3d6000fd5b505050506040513d601f19601f8201168201806040525081019061011c91906102d5565b600581111561012d5761012d6102bf565b1461017e5760405162461bcd60e51b815260206004820152601860248201527f436f6e74657374206973206e6f742066696e616c697a65640000000000000000604482015260640160405180910390fd5b6000805460408051631851865560e21b815290516001600160a01b039092169263614619549260048084019382900301818387803b1580156101bf57600080fd5b505af11580156101d3573d6000803e3d6000fd5b50505050565b634e487b7160e01b600052604160045260246000fd5b6000806040838503121561020257600080fd5b82356001600160a01b038116811461021957600080fd5b9150602083013567ffffffffffffffff8082111561023657600080fd5b818501915085601f83011261024a57600080fd5b81358181111561025c5761025c6101d9565b604051601f8201601f19908116603f01168101908382118183101715610284576102846101d9565b8160405282815288602084870101111561029d57600080fd5b8260208601602083013760006020848301015280955050505050509250929050565b634e487b7160e01b600052602160045260246000fd5b6000602082840312156102e757600080fd5b8151600681106102f657600080fd5b939250505056fea2646970667358221220b7d8d650dc6d154dfd27f2e64ffbc150af9761e07b697dc8c5998f614d42cc7e64736f6c63430008100033",
        "nonce": "0x2c",
        "accessList": []
      },
      "additionalContracts": [],
      "isFixedGasLimit": false
    },
    {
      "hash": "0xa2bee2ddb30db7e72ab8d5803e04404afa4ea051a2ad4c84c97217c9c9b91e00",
      "transactionType": "CALL",
      "contractName": null,
      "contractAddress": "0x1670EEfb9B638243559b6Fcc7D6d3e6f9d4Ca5Fc",
      "function": "setModuleTemplate(string,address,(uint256,string))",
      "arguments": [
        "\"MockExecutionModule_v0.1.0\"",
        "0xb60274DE6dEF245dA0fF46bfC61DafbF312c2BAf",
        "(0, \"EmptyExecutionModule: Execution module that does nothing\")"
      ],
      "transaction": {
        "type": "0x02",
        "from": "0xacb3afa9ca0b4edeac41a98e1f90ba6300b6d217",
        "to": "0x1670eefb9b638243559b6fcc7d6d3e6f9d4ca5fc",
        "gas": "0x11465",
        "value": "0x0",
        "data": "0xe963d8890000000000000000000000000000000000000000000000000000000000000060000000000000000000000000b60274de6def245da0ff46bfc61dafbf312c2baf00000000000000000000000000000000000000000000000000000000000000a0000000000000000000000000000000000000000000000000000000000000001a4d6f636b457865637574696f6e4d6f64756c655f76302e312e30000000000000000000000000000000000000000000000000000000000000000000000000000000000000000000000000000000000000000000000000000000000000000000400000000000000000000000000000000000000000000000000000000000000038456d707479457865637574696f6e4d6f64756c653a20457865637574696f6e206d6f64756c65207468617420646f6573206e6f7468696e670000000000000000",
        "nonce": "0x2d",
        "accessList": []
      },
      "additionalContracts": [],
      "isFixedGasLimit": false
    }
  ],
  "receipts": [
    {
      "transactionHash": "0x518c7d35bd65a1cd30857b0a5586664f2f8f83102e07338bc36804791e5e81f3",
      "transactionIndex": "0x2",
      "blockHash": "0x4acc1fb5b0b33250e2f1c89392e9afc86e81529964ea9eeef119eebfae71b512",
      "blockNumber": "0x2ca6e55",
      "from": "0xacB3Afa9Ca0b4edeAc41a98E1F90ba6300b6D217",
      "to": null,
      "cumulativeGasUsed": "0x57de2",
      "gasUsed": "0x3829a",
      "contractAddress": "0xb60274DE6dEF245dA0fF46bfC61DafbF312c2BAf",
      "logs": [],
      "status": "0x1",
      "logsBloom": "0x00000000000000000000000000000000000000000000000000000000000000000000000000000000000000000000000000000000000000000000000000000000000000000000000000000000000000000000000000000000000000000000000000000000000000000000000000000000000000000000000000000000000000000000000000000000000000000000000000000000000000000000000000000000000000000000000000000000000000000000000000000000000000000000000000000000000000000000000000000000000000000000000000000000000000000000000000000000000000000000000000000000000000000000000000000000",
      "type": "0x2",
      "effectiveGasPrice": "0x3b88efb0"
    },
    {
      "transactionHash": "0xa2bee2ddb30db7e72ab8d5803e04404afa4ea051a2ad4c84c97217c9c9b91e00",
      "transactionIndex": "0x2",
      "blockHash": "0x83a822021c65f02ce7de6fb25cc51fd32d939523135e27de06d9560434fb4a17",
      "blockNumber": "0x2ca6e58",
      "from": "0xacB3Afa9Ca0b4edeAc41a98E1F90ba6300b6D217",
      "to": "0x1670EEfb9B638243559b6Fcc7D6d3e6f9d4Ca5Fc",
      "cumulativeGasUsed": "0x2cfe5",
      "gasUsed": "0xd49d",
      "contractAddress": null,
      "logs": [
        {
          "address": "0x1670EEfb9B638243559b6Fcc7D6d3e6f9d4Ca5Fc",
          "topics": [
            "0xcacbb74ea6f89caeed934c4e0eaad9dbc65508d018b276b3aaeb3959d16e1634"
          ],
          "data": "0x0000000000000000000000000000000000000000000000000000000000000060000000000000000000000000b60274de6def245da0ff46bfc61dafbf312c2baf00000000000000000000000000000000000000000000000000000000000000a0000000000000000000000000000000000000000000000000000000000000001a4d6f636b457865637574696f6e4d6f64756c655f76302e312e30000000000000000000000000000000000000000000000000000000000000000000000000000000000000000000000000000000000000000000000000000000000000000000400000000000000000000000000000000000000000000000000000000000000038456d707479457865637574696f6e4d6f64756c653a20457865637574696f6e206d6f64756c65207468617420646f6573206e6f7468696e670000000000000000",
          "blockHash": "0x83a822021c65f02ce7de6fb25cc51fd32d939523135e27de06d9560434fb4a17",
          "blockNumber": "0x2ca6e58",
          "transactionHash": "0xa2bee2ddb30db7e72ab8d5803e04404afa4ea051a2ad4c84c97217c9c9b91e00",
          "transactionIndex": "0x2",
          "logIndex": "0x4",
          "removed": false
        }
      ],
      "status": "0x1",
      "logsBloom": "0x00000000000000000000000000000000000000000000000000000000000000000000000000000000000000000000000000000000000000000000002000000000000000000000000000000000000000000000000000000000000000000000000000000000000000000000000000000000004000000000000000000000000000000000000000000000000000400000000000000000000008000000000000000000000000000000000000000000000000000000000000000000000000000000000000000000000000000000000000000000000000000000000000000000800000000000000000000000000000000000000040000000000000000000000000000000",
      "type": "0x2",
      "effectiveGasPrice": "0x3b83bf90"
    }
  ],
  "libraries": [],
  "pending": [],
  "returns": {},
  "timestamp": 1716406911,
  "chain": 421614,
  "commit": "a98893e"
}