{
  "transactions": [
    {
      "hash": "0xed4abfa84fc0706393e5424f4f58466b3e6a4f718af1494e6e526ca7ab8672cb",
      "transactionType": "CALL",
      "contractName": null,
      "contractAddress": "0x3a190e45f300cbb8AB1153a90b23EE3333b02D9d",
      "function": "setContestTemplate(string,address,(uint256,string))",
      "arguments": [
        "\"v0.1.0\"",
        "0x3A594698b511D84c3756D99828aF11B9049dFf14",
        "(0, \"Contest: Early v0.1.0 Contest contract that orchestrates custom voting, allocation, choice selection, and execution modules for TCR voting\")"
      ],
      "transaction": {
        "type": "0x02",
        "from": "0xacb3afa9ca0b4edeac41a98e1f90ba6300b6d217",
        "to": "0x3a190e45f300cbb8ab1153a90b23ee3333b02d9d",
        "gas": "0x11ef8",
        "value": "0x0",
        "data": "0x326ac9d300000000000000000000000000000000000000000000000000000000000000600000000000000000000000003a594698b511d84c3756d99828af11b9049dff1400000000000000000000000000000000000000000000000000000000000000a0000000000000000000000000000000000000000000000000000000000000000676302e312e30000000000000000000000000000000000000000000000000000000000000000000000000000000000000000000000000000000000000000000000000000000000000000000000000000000000000000000000000000000000040000000000000000000000000000000000000000000000000000000000000008a436f6e746573743a204561726c792076302e312e3020436f6e7465737420636f6e74726163742074686174206f726368657374726174657320637573746f6d20766f74696e672c20616c6c6f636174696f6e2c2063686f6963652073656c656374696f6e2c20616e6420657865637574696f6e206d6f64756c657320666f722054435220766f74696e6700000000000000000000000000000000000000000000",
        "nonce": "0x3b",
        "accessList": []
      },
      "additionalContracts": [],
      "isFixedGasLimit": false
    },
    {
      "hash": "0x83851d4ce9a38d3e68c38b44306888526b636ccf3d99328980a109a6ebfce9b2",
      "transactionType": "CALL",
      "contractName": null,
      "contractAddress": "0x3a190e45f300cbb8AB1153a90b23EE3333b02D9d",
      "function": "setModuleTemplate(string,address,(uint256,string))",
      "arguments": [
        "\"ERC20VotesPoints_v0.1.0\"",
        "0x3198166F2dAA2fe2dA8EFEe1f7a3Ca72da47fbf7",
        "(0, \"ERC20VotesPoints: Points module that uses IVotes ERC20 tokens for counting voting power at a given block\")"
      ],
      "transaction": {
        "type": "0x02",
        "from": "0xacb3afa9ca0b4edeac41a98e1f90ba6300b6d217",
        "to": "0x3a190e45f300cbb8ab1153a90b23ee3333b02d9d",
        "gas": "0x11bd1",
        "value": "0x0",
        "data": "0xe963d88900000000000000000000000000000000000000000000000000000000000000600000000000000000000000003198166f2daa2fe2da8efee1f7a3ca72da47fbf700000000000000000000000000000000000000000000000000000000000000a000000000000000000000000000000000000000000000000000000000000000174552433230566f746573506f696e74735f76302e312e300000000000000000000000000000000000000000000000000000000000000000000000000000000000000000000000000000000000000000000000000000000000000000000000004000000000000000000000000000000000000000000000000000000000000000684552433230566f746573506f696e74733a20506f696e7473206d6f64756c65207468617420757365732049566f74657320455243323020746f6b656e7320666f7220636f756e74696e6720766f74696e6720706f776572206174206120676976656e20626c6f636b000000000000000000000000000000000000000000000000",
        "nonce": "0x3c",
        "accessList": []
      },
      "additionalContracts": [],
      "isFixedGasLimit": false
    },
    {
      "hash": "0xa92764be33885d0c7913987d2a395b2e2babd44e3026884330a1d50008314d65",
      "transactionType": "CALL",
      "contractName": null,
      "contractAddress": "0x3a190e45f300cbb8AB1153a90b23EE3333b02D9d",
      "function": "setModuleTemplate(string,address,(uint256,string))",
      "arguments": [
        "\"TimedVotes_v0.1.0\"",
        "0x52f718fB325CAD186a4D69368765d5604d2483eC",
        "(0, \"TimedVotes: Votes module that uses a time limit for voting\")"
      ],
      "transaction": {
        "type": "0x02",
        "from": "0xacb3afa9ca0b4edeac41a98e1f90ba6300b6d217",
        "to": "0x3a190e45f300cbb8ab1153a90b23ee3333b02d9d",
        "gas": "0x113f8",
        "value": "0x0",
        "data": "0xe963d889000000000000000000000000000000000000000000000000000000000000006000000000000000000000000052f718fb325cad186a4d69368765d5604d2483ec00000000000000000000000000000000000000000000000000000000000000a0000000000000000000000000000000000000000000000000000000000000001154696d6564566f7465735f76302e312e3000000000000000000000000000000000000000000000000000000000000000000000000000000000000000000000000000000000000000000000000000000000000000000000000000000000000040000000000000000000000000000000000000000000000000000000000000003a54696d6564566f7465733a20566f746573206d6f64756c652074686174207573657320612074696d65206c696d697420666f7220766f74696e67000000000000",
        "nonce": "0x3d",
        "accessList": []
      },
      "additionalContracts": [],
      "isFixedGasLimit": false
    },
    {
      "hash": "0xac3cdcd97ed72105d84b7f49b500463bba77163273a337346bce40242262f940",
      "transactionType": "CALL",
      "contractName": null,
      "contractAddress": "0x3a190e45f300cbb8AB1153a90b23EE3333b02D9d",
      "function": "setModuleTemplate(string,address,(uint256,string))",
      "arguments": [
        "\"HatsAllowList_v0.1.0\"",
        "0xF6fee573515E78F30b6dca745581Ce575677c761",
        "(0, \"HatsAllowList: Choice Creation module that uses a hat ID to gate who can set choices\")"
      ],
      "transaction": {
        "type": "0x02",
        "from": "0xacb3afa9ca0b4edeac41a98e1f90ba6300b6d217",
        "to": "0x3a190e45f300cbb8ab1153a90b23ee3333b02d9d",
        "gas": "0x11814",
        "value": "0x0",
        "data": "0xe963d8890000000000000000000000000000000000000000000000000000000000000060000000000000000000000000f6fee573515e78f30b6dca745581ce575677c76100000000000000000000000000000000000000000000000000000000000000a0000000000000000000000000000000000000000000000000000000000000001448617473416c6c6f774c6973745f76302e312e3000000000000000000000000000000000000000000000000000000000000000000000000000000000000000000000000000000000000000000000000000000000000000000000000000000040000000000000000000000000000000000000000000000000000000000000005448617473416c6c6f774c6973743a2043686f696365204372656174696f6e206d6f64756c652074686174207573657320612068617420494420746f20676174652077686f2063616e207365742063686f69636573000000000000000000000000",
        "nonce": "0x3e",
        "accessList": []
      },
      "additionalContracts": [],
      "isFixedGasLimit": false
    },
    {
      "hash": "0x5d980b4a12aeb2100bf154d5e981e39dc4d7c2d56211a5c489bfa5864529b277",
      "transactionType": "CALL",
      "contractName": null,
      "contractAddress": "0x3a190e45f300cbb8AB1153a90b23EE3333b02D9d",
      "function": "setModuleTemplate(string,address,(uint256,string))",
      "arguments": [
        "\"EmptyExecutionModule_v0.1.0\"",
        "0xb60274DE6dEF245dA0fF46bfC61DafbF312c2BAf",
        "(0, \"EmptyExecutionModule: Execution module that does nothing\")"
      ],
      "transaction": {
        "type": "0x02",
        "from": "0xacb3afa9ca0b4edeac41a98e1f90ba6300b6d217",
        "to": "0x3a190e45f300cbb8ab1153a90b23ee3333b02d9d",
        "gas": "0x11475",
        "value": "0x0",
        "data": "0xe963d8890000000000000000000000000000000000000000000000000000000000000060000000000000000000000000b60274de6def245da0ff46bfc61dafbf312c2baf00000000000000000000000000000000000000000000000000000000000000a0000000000000000000000000000000000000000000000000000000000000001b456d707479457865637574696f6e4d6f64756c655f76302e312e300000000000000000000000000000000000000000000000000000000000000000000000000000000000000000000000000000000000000000000000000000000000000000400000000000000000000000000000000000000000000000000000000000000038456d707479457865637574696f6e4d6f64756c653a20457865637574696f6e206d6f64756c65207468617420646f6573206e6f7468696e670000000000000000",
        "nonce": "0x3f",
        "accessList": []
      },
      "additionalContracts": [],
      "isFixedGasLimit": false
    }
  ],
  "receipts": [
    {
      "transactionHash": "0xed4abfa84fc0706393e5424f4f58466b3e6a4f718af1494e6e526ca7ab8672cb",
      "transactionIndex": "0x1",
      "blockHash": "0x6ab26f98932893e3a8cbbaae1d31632e07be3b7b37456ca97a4e866c7b14cadc",
      "blockNumber": "0x2d7704f",
      "from": "0xacB3Afa9Ca0b4edeAc41a98E1F90ba6300b6D217",
      "to": "0x3a190e45f300cbb8AB1153a90b23EE3333b02D9d",
      "cumulativeGasUsed": "0xdcbf",
      "gasUsed": "0xdcbf",
      "contractAddress": null,
      "logs": [
        {
          "address": "0x3a190e45f300cbb8AB1153a90b23EE3333b02D9d",
          "topics": [
            "0x8ddcd911603a7dfc7ddd6e0f0365839847d731c692f37e6d75b6f0c4385bd6c0"
          ],
          "data": "0x00000000000000000000000000000000000000000000000000000000000000600000000000000000000000003a594698b511d84c3756d99828af11b9049dff1400000000000000000000000000000000000000000000000000000000000000a0000000000000000000000000000000000000000000000000000000000000000676302e312e30000000000000000000000000000000000000000000000000000000000000000000000000000000000000000000000000000000000000000000000000000000000000000000000000000000000000000000000000000000000040000000000000000000000000000000000000000000000000000000000000008a436f6e746573743a204561726c792076302e312e3020436f6e7465737420636f6e74726163742074686174206f726368657374726174657320637573746f6d20766f74696e672c20616c6c6f636174696f6e2c2063686f6963652073656c656374696f6e2c20616e6420657865637574696f6e206d6f64756c657320666f722054435220766f74696e6700000000000000000000000000000000000000000000",
          "blockHash": "0x6ab26f98932893e3a8cbbaae1d31632e07be3b7b37456ca97a4e866c7b14cadc",
          "blockNumber": "0x2d7704f",
          "transactionHash": "0xed4abfa84fc0706393e5424f4f58466b3e6a4f718af1494e6e526ca7ab8672cb",
          "transactionIndex": "0x1",
          "logIndex": "0x0",
          "removed": false
        }
      ],
      "status": "0x1",
      "logsBloom": "0x00000000000000000000000000000000000000000000000000000000000000000000000000000000000000000000000000000000000000000000000000000000000000000000000000000008000000000000000000000000000000000000000000000000000000000000000000000000080000000000000000000000000000000000000000000000000000000000000000020000000000000000000002000000000000000000000000000000000000000000000000000000000000000000000000000000000000000000000000000000000000000000000000000000000000000000000000000000000000040000000000000000000000020000000000000000",
      "type": "0x2",
      "effectiveGasPrice": "0x7696e30"
    },
    {
      "transactionHash": "0x83851d4ce9a38d3e68c38b44306888526b636ccf3d99328980a109a6ebfce9b2",
      "transactionIndex": "0x1",
      "blockHash": "0xa1836c97064ecc9111b5d06ac34a3cf00f8c51a7c6335e4a3480bac131c11444",
      "blockNumber": "0x2d77052",
      "from": "0xacB3Afa9Ca0b4edeAc41a98E1F90ba6300b6D217",
      "to": "0x3a190e45f300cbb8AB1153a90b23EE3333b02D9d",
      "cumulativeGasUsed": "0xda52",
      "gasUsed": "0xda52",
      "contractAddress": null,
      "logs": [
        {
          "address": "0x3a190e45f300cbb8AB1153a90b23EE3333b02D9d",
          "topics": [
            "0xcacbb74ea6f89caeed934c4e0eaad9dbc65508d018b276b3aaeb3959d16e1634"
          ],
          "data": "0x00000000000000000000000000000000000000000000000000000000000000600000000000000000000000003198166f2daa2fe2da8efee1f7a3ca72da47fbf700000000000000000000000000000000000000000000000000000000000000a000000000000000000000000000000000000000000000000000000000000000174552433230566f746573506f696e74735f76302e312e300000000000000000000000000000000000000000000000000000000000000000000000000000000000000000000000000000000000000000000000000000000000000000000000004000000000000000000000000000000000000000000000000000000000000000684552433230566f746573506f696e74733a20506f696e7473206d6f64756c65207468617420757365732049566f74657320455243323020746f6b656e7320666f7220636f756e74696e6720766f74696e6720706f776572206174206120676976656e20626c6f636b000000000000000000000000000000000000000000000000",
          "blockHash": "0xa1836c97064ecc9111b5d06ac34a3cf00f8c51a7c6335e4a3480bac131c11444",
          "blockNumber": "0x2d77052",
          "transactionHash": "0x83851d4ce9a38d3e68c38b44306888526b636ccf3d99328980a109a6ebfce9b2",
          "transactionIndex": "0x1",
          "logIndex": "0x0",
          "removed": false
        }
      ],
      "status": "0x1",
      "logsBloom": "0x00000000000000000000000000000000000000000000000000000000000000000000000000000000000000000000000000000000000000000000000000000000000000000000000000000000000000000000000000000000000000000000000000000000000000000000000000000000004000000000000000000000000000000000000000000000000000400000000000020000000008000000000002000000000000000000000000000000000000000000000000000000000000000000000000000000000000000000000000000000000000000000000000000000000000000000000000000000000000040000000000000000000000000000000000000000",
      "type": "0x2",
      "effectiveGasPrice": "0x77a3710"
    },
    {
      "transactionHash": "0xa92764be33885d0c7913987d2a395b2e2babd44e3026884330a1d50008314d65",
      "transactionIndex": "0x3",
      "blockHash": "0x43660998fb78f70438d5f03d5baf43ed8928fe269a3a2558c2dac05ef3b7eb34",
      "blockNumber": "0x2d77055",
      "from": "0xacB3Afa9Ca0b4edeAc41a98E1F90ba6300b6D217",
      "to": "0x3a190e45f300cbb8AB1153a90b23EE3333b02D9d",
      "cumulativeGasUsed": "0x337d4",
      "gasUsed": "0xd449",
      "contractAddress": null,
      "logs": [
        {
          "address": "0x3a190e45f300cbb8AB1153a90b23EE3333b02D9d",
          "topics": [
            "0xcacbb74ea6f89caeed934c4e0eaad9dbc65508d018b276b3aaeb3959d16e1634"
          ],
          "data": "0x000000000000000000000000000000000000000000000000000000000000006000000000000000000000000052f718fb325cad186a4d69368765d5604d2483ec00000000000000000000000000000000000000000000000000000000000000a0000000000000000000000000000000000000000000000000000000000000001154696d6564566f7465735f76302e312e3000000000000000000000000000000000000000000000000000000000000000000000000000000000000000000000000000000000000000000000000000000000000000000000000000000000000040000000000000000000000000000000000000000000000000000000000000003a54696d6564566f7465733a20566f746573206d6f64756c652074686174207573657320612074696d65206c696d697420666f7220766f74696e67000000000000",
          "blockHash": "0x43660998fb78f70438d5f03d5baf43ed8928fe269a3a2558c2dac05ef3b7eb34",
          "blockNumber": "0x2d77055",
          "transactionHash": "0xa92764be33885d0c7913987d2a395b2e2babd44e3026884330a1d50008314d65",
          "transactionIndex": "0x3",
          "logIndex": "0x5",
          "removed": false
        }
      ],
      "status": "0x1",
      "logsBloom": "0x00000000000000000000000000000000000000000000000000000000000000000000000000000000000000000000000000000000000000000000000000000000000000000000000000000000000000000000000000000000000000000000000000000000000000000000000000000000004000000000000000000000000000000000000000000000000000400000000000020000000008000000000002000000000000000000000000000000000000000000000000000000000000000000000000000000000000000000000000000000000000000000000000000000000000000000000000000000000000040000000000000000000000000000000000000000",
      "type": "0x2",
      "effectiveGasPrice": "0x76f88b0"
    },
    {
      "transactionHash": "0xac3cdcd97ed72105d84b7f49b500463bba77163273a337346bce40242262f940",
      "transactionIndex": "0x4",
      "blockHash": "0xde0f2c1b1ae7498e39485ce98985b8bacf5935afeeee3a5775764286cf3c896c",
      "blockNumber": "0x2d77058",
      "from": "0xacB3Afa9Ca0b4edeAc41a98E1F90ba6300b6D217",
      "to": "0x3a190e45f300cbb8AB1153a90b23EE3333b02D9d",
      "cumulativeGasUsed": "0xb0060",
      "gasUsed": "0xd772",
      "contractAddress": null,
      "logs": [
        {
          "address": "0x3a190e45f300cbb8AB1153a90b23EE3333b02D9d",
          "topics": [
            "0xcacbb74ea6f89caeed934c4e0eaad9dbc65508d018b276b3aaeb3959d16e1634"
          ],
          "data": "0x0000000000000000000000000000000000000000000000000000000000000060000000000000000000000000f6fee573515e78f30b6dca745581ce575677c76100000000000000000000000000000000000000000000000000000000000000a0000000000000000000000000000000000000000000000000000000000000001448617473416c6c6f774c6973745f76302e312e3000000000000000000000000000000000000000000000000000000000000000000000000000000000000000000000000000000000000000000000000000000000000000000000000000000040000000000000000000000000000000000000000000000000000000000000005448617473416c6c6f774c6973743a2043686f696365204372656174696f6e206d6f64756c652074686174207573657320612068617420494420746f20676174652077686f2063616e207365742063686f69636573000000000000000000000000",
          "blockHash": "0xde0f2c1b1ae7498e39485ce98985b8bacf5935afeeee3a5775764286cf3c896c",
          "blockNumber": "0x2d77058",
          "transactionHash": "0xac3cdcd97ed72105d84b7f49b500463bba77163273a337346bce40242262f940",
          "transactionIndex": "0x4",
          "logIndex": "0x15",
          "removed": false
        }
      ],
      "status": "0x1",
      "logsBloom": "0x00000000000000000000000000000000000000000000000000000000000000000000000000000000000000000000000000000000000000000000000000000000000000000000000000000000000000000000000000000000000000000000000000000000000000000000000000000000004000000000000000000000000000000000000000000000000000400000000000020000000008000000000002000000000000000000000000000000000000000000000000000000000000000000000000000000000000000000000000000000000000000000000000000000000000000000000000000000000000040000000000000000000000000000000000000000",
      "type": "0x2",
      "effectiveGasPrice": "0x764da50"
    },
    {
      "transactionHash": "0x5d980b4a12aeb2100bf154d5e981e39dc4d7c2d56211a5c489bfa5864529b277",
      "transactionIndex": "0x4",
      "blockHash": "0x9f26f8a1ff6b7695bb9ddf1c6d0c3ea08c65766f5294c7726195063906837d08",
      "blockNumber": "0x2d7705b",
      "from": "0xacB3Afa9Ca0b4edeAc41a98E1F90ba6300b6D217",
      "to": "0x3a190e45f300cbb8AB1153a90b23EE3333b02D9d",
      "cumulativeGasUsed": "0x739cf",
      "gasUsed": "0xd4a9",
      "contractAddress": null,
      "logs": [
        {
          "address": "0x3a190e45f300cbb8AB1153a90b23EE3333b02D9d",
          "topics": [
            "0xcacbb74ea6f89caeed934c4e0eaad9dbc65508d018b276b3aaeb3959d16e1634"
          ],
          "data": "0x0000000000000000000000000000000000000000000000000000000000000060000000000000000000000000b60274de6def245da0ff46bfc61dafbf312c2baf00000000000000000000000000000000000000000000000000000000000000a0000000000000000000000000000000000000000000000000000000000000001b456d707479457865637574696f6e4d6f64756c655f76302e312e300000000000000000000000000000000000000000000000000000000000000000000000000000000000000000000000000000000000000000000000000000000000000000400000000000000000000000000000000000000000000000000000000000000038456d707479457865637574696f6e4d6f64756c653a20457865637574696f6e206d6f64756c65207468617420646f6573206e6f7468696e670000000000000000",
          "blockHash": "0x9f26f8a1ff6b7695bb9ddf1c6d0c3ea08c65766f5294c7726195063906837d08",
          "blockNumber": "0x2d7705b",
          "transactionHash": "0x5d980b4a12aeb2100bf154d5e981e39dc4d7c2d56211a5c489bfa5864529b277",
          "transactionIndex": "0x4",
          "logIndex": "0xe",
          "removed": false
        }
      ],
      "status": "0x1",
      "logsBloom": "0x00000000000000000000000000000000000000000000000000000000000000000000000000000000000000000000000000000000000000000000000000000000000000000000000000000000000000000000000000000000000000000000000000000000000000000000000000000000004000000000000000000000000000000000000000000000000000400000000000020000000008000000000002000000000000000000000000000000000000000000000000000000000000000000000000000000000000000000000000000000000000000000000000000000000000000000000000000000000000040000000000000000000000000000000000000000",
      "type": "0x2",
      "effectiveGasPrice": "0x7624240"
    }
  ],
  "libraries": [],
  "pending": [],
  "returns": {},
  "timestamp": 1716619808,
  "chain": 421614,
  "commit": "d46b927"
}