{
  "transactions": [
    {
      "hash": "0xa5eedc1ca676f59fb05a7cab026baca53af08655a7d047c691da07f54273e8d5",
      "transactionType": "CALL",
      "contractName": null,
      "contractAddress": "0x1670EEfb9B638243559b6Fcc7D6d3e6f9d4Ca5Fc",
      "function": "buildContest(bytes,string,bool,bool,string)",
      "arguments": [
        "0x000000000000000000000000000000000000000000000000000000000000004000000000000000000000000000000000000000000000000000000000000001c0000000000000000000000000000000000000000000000000000000000000008000000000000000000000000000000000000000000000000000000000000000c000000000000000000000000000000000000000000000000000000000000001000000000000000000000000000000000000000000000000000000000000000140000000000000000000000000000000000000000000000000000000000000001154696d6564566f7465735f76302e312e3000000000000000000000000000000000000000000000000000000000000000000000000000000000000000000000174552433230566f746573506f696e74735f76302e312e30000000000000000000000000000000000000000000000000000000000000000000000000000000001448617473416c6c6f774c6973745f76302e312e30000000000000000000000000000000000000000000000000000000000000000000000000000000000000001a4d6f636b457865637574696f6e4d6f64756c655f76302e312e30000000000000000000000000000000000000000000000000000000000000000000000000008000000000000000000000000000000000000000000000000000000000000000c0000000000000000000000000000000000000000000000000000000000000012000000000000000000000000000000000000000000000000000000000000001c000000000000000000000000000000000000000000000000000000000000000200000000000000000000000000000000000000000000000000000000000093a800000000000000000000000000000000000000000000000000000000000000040000000000000000000000000d00ceda81e6ce6b47bfc6b19e8981c24aea5836800000000000000000000000000000000000000000000000000000000005ae34100000000000000000000000000000000000000000000000000000000000000800000000000000000000000003bc1a0ad72417f2d411118085256fc53cbddd13700000052000100000000000000000000000000000000000000000000000000000000000000000000000000000000000000000000000000000000000000000060000000000000000000000000000000000000000000000000000000000000000000000000000000000000000000000000000000000000000000000000000000200000000000000000000000000000000000000000000000000000000000000000",
        "\"v0.1.0\"",
        "false",
        "false",
        "\"v0.0.1\""
      ],
      "transaction": {
        "type": "0x02",
        "from": "0xacb3afa9ca0b4edeac41a98e1f90ba6300b6d217",
        "to": "0x1670eefb9b638243559b6fcc7d6d3e6f9d4ca5fc",
        "gas": "0xc4346",
        "value": "0x0",
        "data": "0x12261d0b00000000000000000000000000000000000000000000000000000000000000a000000000000000000000000000000000000000000000000000000000000004800000000000000000000000000000000000000000000000000000000000000000000000000000000000000000000000000000000000000000000000000000000000000000000000000000000000000000000000000000000000000000000004c000000000000000000000000000000000000000000000000000000000000003c0000000000000000000000000000000000000000000000000000000000000004000000000000000000000000000000000000000000000000000000000000001c0000000000000000000000000000000000000000000000000000000000000008000000000000000000000000000000000000000000000000000000000000000c000000000000000000000000000000000000000000000000000000000000001000000000000000000000000000000000000000000000000000000000000000140000000000000000000000000000000000000000000000000000000000000001154696d6564566f7465735f76302e312e3000000000000000000000000000000000000000000000000000000000000000000000000000000000000000000000174552433230566f746573506f696e74735f76302e312e30000000000000000000000000000000000000000000000000000000000000000000000000000000001448617473416c6c6f774c6973745f76302e312e30000000000000000000000000000000000000000000000000000000000000000000000000000000000000001a4d6f636b457865637574696f6e4d6f64756c655f76302e312e30000000000000000000000000000000000000000000000000000000000000000000000000008000000000000000000000000000000000000000000000000000000000000000c0000000000000000000000000000000000000000000000000000000000000012000000000000000000000000000000000000000000000000000000000000001c000000000000000000000000000000000000000000000000000000000000000200000000000000000000000000000000000000000000000000000000000093a800000000000000000000000000000000000000000000000000000000000000040000000000000000000000000d00ceda81e6ce6b47bfc6b19e8981c24aea5836800000000000000000000000000000000000000000000000000000000005ae34100000000000000000000000000000000000000000000000000000000000000800000000000000000000000003bc1a0ad72417f2d411118085256fc53cbddd13700000052000100000000000000000000000000000000000000000000000000000000000000000000000000000000000000000000000000000000000000000060000000000000000000000000000000000000000000000000000000000000000000000000000000000000000000000000000000000000000000000000000000200000000000000000000000000000000000000000000000000000000000000000000000000000000000000000000000000000000000000000000000000000000676302e312e300000000000000000000000000000000000000000000000000000000000000000000000000000000000000000000000000000000000000000000676302e302e310000000000000000000000000000000000000000000000000000",
        "nonce": "0x30",
        "accessList": []
      },
      "additionalContracts": [
        {
          "transactionType": "CREATE",
          "address": "0xD9c621042661Bf3297B5866B239A8cE27E495898",
          "initCode": "0x3d602d80600a3d3981f3363d3d373d3d3d363d733a594698b511d84c3756d99828af11b9049dff145af43d82803e903d91602b57fd5bf3"
        },
        {
          "transactionType": "CREATE",
          "address": "0xF106a1193D2eDE3957aEeC70f726EC0CbcF31531",
          "initCode": "0x3d602d80600a3d3981f3363d3d373d3d3d363d7352f718fb325cad186a4d69368765d5604d2483ec5af43d82803e903d91602b57fd5bf3"
        },
        {
          "transactionType": "CREATE",
          "address": "0x139760658EB4E7cABdc9A33c1875bd65bEae96c2",
          "initCode": "0x3d602d80600a3d3981f3363d3d373d3d3d363d733198166f2daa2fe2da8efee1f7a3ca72da47fbf75af43d82803e903d91602b57fd5bf3"
        },
        {
          "transactionType": "CREATE",
          "address": "0x6A2332c88f078cEED975BA80F81C053b3A49f509",
          "initCode": "0x3d602d80600a3d3981f3363d3d373d3d3d363d73f6fee573515e78f30b6dca745581ce575677c7615af43d82803e903d91602b57fd5bf3"
        },
        {
          "transactionType": "CREATE",
          "address": "0x373b634d67902DeCfBbDE52f7E36C693Ec3bC0e8",
          "initCode": "0x3d602d80600a3d3981f3363d3d373d3d3d363d73b60274de6def245da0ff46bfc61dafbf312c2baf5af43d82803e903d91602b57fd5bf3"
        }
      ],
      "isFixedGasLimit": false
    }
  ],
  "receipts": [
    {
      "transactionHash": "0xa5eedc1ca676f59fb05a7cab026baca53af08655a7d047c691da07f54273e8d5",
      "transactionIndex": "0x6",
      "blockHash": "0x3b0485647026c31d282b1fd2e5b66fe5d0f99bd38342aec56f2b00fe02629d37",
      "blockNumber": "0x2ca7e5d",
      "from": "0xacB3Afa9Ca0b4edeAc41a98E1F90ba6300b6D217",
      "to": "0x1670EEfb9B638243559b6Fcc7D6d3e6f9d4Ca5Fc",
      "cumulativeGasUsed": "0x156d52",
      "gasUsed": "0x96ed4",
      "contractAddress": null,
      "logs": [
        {
          "address": "0x1670EEfb9B638243559b6Fcc7D6d3e6f9d4Ca5Fc",
          "topics": [
            "0x40d23a2d4b0c05bb75f825dc0ee5b33beba7a81e966554f60af6b2b3f62b47c0"
          ],
          "data": "0x000000000000000000000000f106a1193d2ede3957aeec70f726ec0cbcf31531000000000000000000000000000000000000000000000000000000000000006000000000000000000000000000000000000000000000000000000000000000a0000000000000000000000000000000000000000000000000000000000000001154696d6564566f7465735f76302e312e30000000000000000000000000000000000000000000000000000000000000000000000000000000000000000000000676302e302e310000000000000000000000000000000000000000000000000000",
          "blockHash": "0x3b0485647026c31d282b1fd2e5b66fe5d0f99bd38342aec56f2b00fe02629d37",
          "blockNumber": "0x2ca7e5d",
          "transactionHash": "0xa5eedc1ca676f59fb05a7cab026baca53af08655a7d047c691da07f54273e8d5",
          "transactionIndex": "0x6",
          "logIndex": "0x10",
          "removed": false
        },
        {
          "address": "0xF106a1193D2eDE3957aEeC70f726EC0CbcF31531",
          "topics": [
            "0x25ff68dd81b34665b5ba7e553ee5511bf6812e12adb4a7e2c0d9e26b3099ce79"
          ],
          "data": "0x000000000000000000000000d9c621042661bf3297b5866b239a8ce27e4958980000000000000000000000000000000000000000000000000000000000093a80",
          "blockHash": "0x3b0485647026c31d282b1fd2e5b66fe5d0f99bd38342aec56f2b00fe02629d37",
          "blockNumber": "0x2ca7e5d",
          "transactionHash": "0xa5eedc1ca676f59fb05a7cab026baca53af08655a7d047c691da07f54273e8d5",
          "transactionIndex": "0x6",
          "logIndex": "0x11",
          "removed": false
        },
        {
          "address": "0x1670EEfb9B638243559b6Fcc7D6d3e6f9d4Ca5Fc",
          "topics": [
            "0x40d23a2d4b0c05bb75f825dc0ee5b33beba7a81e966554f60af6b2b3f62b47c0"
          ],
          "data": "0x000000000000000000000000139760658eb4e7cabdc9a33c1875bd65beae96c2000000000000000000000000000000000000000000000000000000000000006000000000000000000000000000000000000000000000000000000000000000a000000000000000000000000000000000000000000000000000000000000000174552433230566f746573506f696e74735f76302e312e30000000000000000000000000000000000000000000000000000000000000000000000000000000000676302e302e310000000000000000000000000000000000000000000000000000",
          "blockHash": "0x3b0485647026c31d282b1fd2e5b66fe5d0f99bd38342aec56f2b00fe02629d37",
          "blockNumber": "0x2ca7e5d",
          "transactionHash": "0xa5eedc1ca676f59fb05a7cab026baca53af08655a7d047c691da07f54273e8d5",
          "transactionIndex": "0x6",
          "logIndex": "0x12",
          "removed": false
        },
        {
          "address": "0x139760658EB4E7cABdc9A33c1875bd65bEae96c2",
          "topics": [
            "0x10f27652c1015195ca7e6bc9b4c724cbf18e91c42117d92124703a3f49bb240f"
          ],
          "data": "0x000000000000000000000000d9c621042661bf3297b5866b239a8ce27e495898000000000000000000000000d00ceda81e6ce6b47bfc6b19e8981c24aea5836800000000000000000000000000000000000000000000000000000000005ae341",
          "blockHash": "0x3b0485647026c31d282b1fd2e5b66fe5d0f99bd38342aec56f2b00fe02629d37",
          "blockNumber": "0x2ca7e5d",
          "transactionHash": "0xa5eedc1ca676f59fb05a7cab026baca53af08655a7d047c691da07f54273e8d5",
          "transactionIndex": "0x6",
          "logIndex": "0x13",
          "removed": false
        },
        {
          "address": "0x1670EEfb9B638243559b6Fcc7D6d3e6f9d4Ca5Fc",
          "topics": [
            "0x40d23a2d4b0c05bb75f825dc0ee5b33beba7a81e966554f60af6b2b3f62b47c0"
          ],
          "data": "0x0000000000000000000000006a2332c88f078ceed975ba80f81c053b3a49f509000000000000000000000000000000000000000000000000000000000000006000000000000000000000000000000000000000000000000000000000000000a0000000000000000000000000000000000000000000000000000000000000001448617473416c6c6f774c6973745f76302e312e30000000000000000000000000000000000000000000000000000000000000000000000000000000000000000676302e302e310000000000000000000000000000000000000000000000000000",
          "blockHash": "0x3b0485647026c31d282b1fd2e5b66fe5d0f99bd38342aec56f2b00fe02629d37",
          "blockNumber": "0x2ca7e5d",
          "transactionHash": "0xa5eedc1ca676f59fb05a7cab026baca53af08655a7d047c691da07f54273e8d5",
          "transactionIndex": "0x6",
          "logIndex": "0x14",
          "removed": false
        },
        {
          "address": "0x6A2332c88f078cEED975BA80F81C053b3A49f509",
          "topics": [
            "0x10f27652c1015195ca7e6bc9b4c724cbf18e91c42117d92124703a3f49bb240f"
          ],
          "data": "0x000000000000000000000000d9c621042661bf3297b5866b239a8ce27e4958980000000000000000000000003bc1a0ad72417f2d411118085256fc53cbddd1370000005200010000000000000000000000000000000000000000000000000000",
          "blockHash": "0x3b0485647026c31d282b1fd2e5b66fe5d0f99bd38342aec56f2b00fe02629d37",
          "blockNumber": "0x2ca7e5d",
          "transactionHash": "0xa5eedc1ca676f59fb05a7cab026baca53af08655a7d047c691da07f54273e8d5",
          "transactionIndex": "0x6",
          "logIndex": "0x15",
          "removed": false
        },
        {
          "address": "0x1670EEfb9B638243559b6Fcc7D6d3e6f9d4Ca5Fc",
          "topics": [
            "0x40d23a2d4b0c05bb75f825dc0ee5b33beba7a81e966554f60af6b2b3f62b47c0"
          ],
          "data": "0x000000000000000000000000373b634d67902decfbbde52f7e36c693ec3bc0e8000000000000000000000000000000000000000000000000000000000000006000000000000000000000000000000000000000000000000000000000000000a0000000000000000000000000000000000000000000000000000000000000001a4d6f636b457865637574696f6e4d6f64756c655f76302e312e30000000000000000000000000000000000000000000000000000000000000000000000000000676302e302e310000000000000000000000000000000000000000000000000000",
          "blockHash": "0x3b0485647026c31d282b1fd2e5b66fe5d0f99bd38342aec56f2b00fe02629d37",
          "blockNumber": "0x2ca7e5d",
          "transactionHash": "0xa5eedc1ca676f59fb05a7cab026baca53af08655a7d047c691da07f54273e8d5",
          "transactionIndex": "0x6",
          "logIndex": "0x16",
          "removed": false
        },
        {
          "address": "0xD9c621042661Bf3297B5866B239A8cE27E495898",
          "topics": [
            "0x0cb363642da6a78f56db1e8dd82928f33019ea10e0bdcb1bc93365244058664e"
          ],
          "data": "0x000000000000000000000000f106a1193d2ede3957aeec70f726ec0cbcf31531000000000000000000000000139760658eb4e7cabdc9a33c1875bd65beae96c20000000000000000000000006a2332c88f078ceed975ba80f81c053b3a49f509000000000000000000000000373b634d67902decfbbde52f7e36c693ec3bc0e8000000000000000000000000000000000000000000000000000000000000000000000000000000000000000000000000000000000000000000000000000000000000000000000000000000000000000000000000000000000000000000000001",
          "blockHash": "0x3b0485647026c31d282b1fd2e5b66fe5d0f99bd38342aec56f2b00fe02629d37",
          "blockNumber": "0x2ca7e5d",
          "transactionHash": "0xa5eedc1ca676f59fb05a7cab026baca53af08655a7d047c691da07f54273e8d5",
          "transactionIndex": "0x6",
          "logIndex": "0x17",
          "removed": false
        },
        {
          "address": "0x1670EEfb9B638243559b6Fcc7D6d3e6f9d4Ca5Fc",
          "topics": [
            "0x98ad319caf8a5ec7b5854e9f5f8a3002e975e370953005344f2e127ff872c7c0"
          ],
          "data": "0x00000000000000000000000000000000000000000000000000000000000000e00000000000000000000000000000000000000000000000000000000000000120000000000000000000000000000000000000000000000000000000000000016000000000000000000000000000000000000000000000000000000000000001a0000000000000000000000000d9c621042661bf3297b5866b239a8ce27e49589800000000000000000000000000000000000000000000000000000000000001e00000000000000000000000000000000000000000000000000000000000000220000000000000000000000000000000000000000000000000000000000000001154696d6564566f7465735f76302e312e3000000000000000000000000000000000000000000000000000000000000000000000000000000000000000000000174552433230566f746573506f696e74735f76302e312e30000000000000000000000000000000000000000000000000000000000000000000000000000000001448617473416c6c6f774c6973745f76302e312e30000000000000000000000000000000000000000000000000000000000000000000000000000000000000001a4d6f636b457865637574696f6e4d6f64756c655f76302e312e30000000000000000000000000000000000000000000000000000000000000000000000000000676302e312e300000000000000000000000000000000000000000000000000000000000000000000000000000000000000000000000000000000000000000000676302e302e310000000000000000000000000000000000000000000000000000",
          "blockHash": "0x3b0485647026c31d282b1fd2e5b66fe5d0f99bd38342aec56f2b00fe02629d37",
          "blockNumber": "0x2ca7e5d",
          "transactionHash": "0xa5eedc1ca676f59fb05a7cab026baca53af08655a7d047c691da07f54273e8d5",
          "transactionIndex": "0x6",
          "logIndex": "0x18",
          "removed": false
        }
      ],
      "status": "0x1",
      "logsBloom": "0x00000000000000000000000000000410000000004000000000000000402010000000000000000000000000008000001000000000000000000004002000000000000000000000000000000000000000000000000000000000000800000000000000000000000000000000010000000000000000000000000000080000000000000000000000000000000000002000000000000000000000000000000000020000000000000000100000000000000000010800000000000001000000000000000004000000000000040000000000000000000000004000000000000000e00000000000100000000000040000000000000040000000000800000000000000002000",
      "type": "0x2",
      "effectiveGasPrice": "0x3b926590"
    }
  ],
  "libraries": [],
  "pending": [],
  "returns": {},
  "timestamp": 1716407914,
  "chain": 421614,
  "commit": "a98893e"
}