{
  "transactions": [
    {
      "hash": "0xcd4e4d74eadcde5cf27cbb1d09d2392800db1eec30153057484ee6b74d0674ed",
      "transactionType": "CALL",
      "contractName": null,
      "contractAddress": "0x1670EEfb9B638243559b6Fcc7D6d3e6f9d4Ca5Fc",
      "function": "buildContest(bytes,string,bool,bool,string)",
      "arguments": [
        "0x000000000000000000000000000000000000000000000000000000000000004000000000000000000000000000000000000000000000000000000000000001c0000000000000000000000000000000000000000000000000000000000000008000000000000000000000000000000000000000000000000000000000000000c000000000000000000000000000000000000000000000000000000000000001000000000000000000000000000000000000000000000000000000000000000140000000000000000000000000000000000000000000000000000000000000001154696d6564566f7465735f76302e312e3000000000000000000000000000000000000000000000000000000000000000000000000000000000000000000000174552433230566f746573506f696e74735f76302e312e30000000000000000000000000000000000000000000000000000000000000000000000000000000001448617473416c6c6f774c6973745f76302e312e30000000000000000000000000000000000000000000000000000000000000000000000000000000000000001a4d6f636b457865637574696f6e4d6f64756c655f76302e312e30000000000000000000000000000000000000000000000000000000000000000000000000008000000000000000000000000000000000000000000000000000000000000000c0000000000000000000000000000000000000000000000000000000000000012000000000000000000000000000000000000000000000000000000000000001c000000000000000000000000000000000000000000000000000000000000000200000000000000000000000000000000000000000000000000000000000093a800000000000000000000000000000000000000000000000000000000000000040000000000000000000000000d00ceda81e6ce6b47bfc6b19e8981c24aea5836800000000000000000000000000000000000000000000000000000000005ae34100000000000000000000000000000000000000000000000000000000000000800000000000000000000000003bc1a0ad72417f2d411118085256fc53cbddd13700000052000100000000000000000000000000000000000000000000000000000000000000000000000000000000000000000000000000000000000000000060000000000000000000000000000000000000000000000000000000000000000000000000000000000000000000000000000000000000000000000000000000200000000000000000000000000000000000000000000000000000000000000000",
        "\"v0.1.0\"",
        "false",
        "false",
        "\"GrantShipsTest\""
      ],
      "transaction": {
        "type": "0x02",
        "from": "0xacb3afa9ca0b4edeac41a98e1f90ba6300b6d217",
        "to": "0x1670eefb9b638243559b6fcc7d6d3e6f9d4ca5fc",
        "gas": "0xc43c3",
        "value": "0x0",
        "data": "0x12261d0b00000000000000000000000000000000000000000000000000000000000000a000000000000000000000000000000000000000000000000000000000000004800000000000000000000000000000000000000000000000000000000000000000000000000000000000000000000000000000000000000000000000000000000000000000000000000000000000000000000000000000000000000000000004c000000000000000000000000000000000000000000000000000000000000003c0000000000000000000000000000000000000000000000000000000000000004000000000000000000000000000000000000000000000000000000000000001c0000000000000000000000000000000000000000000000000000000000000008000000000000000000000000000000000000000000000000000000000000000c000000000000000000000000000000000000000000000000000000000000001000000000000000000000000000000000000000000000000000000000000000140000000000000000000000000000000000000000000000000000000000000001154696d6564566f7465735f76302e312e3000000000000000000000000000000000000000000000000000000000000000000000000000000000000000000000174552433230566f746573506f696e74735f76302e312e30000000000000000000000000000000000000000000000000000000000000000000000000000000001448617473416c6c6f774c6973745f76302e312e30000000000000000000000000000000000000000000000000000000000000000000000000000000000000001a4d6f636b457865637574696f6e4d6f64756c655f76302e312e30000000000000000000000000000000000000000000000000000000000000000000000000008000000000000000000000000000000000000000000000000000000000000000c0000000000000000000000000000000000000000000000000000000000000012000000000000000000000000000000000000000000000000000000000000001c000000000000000000000000000000000000000000000000000000000000000200000000000000000000000000000000000000000000000000000000000093a800000000000000000000000000000000000000000000000000000000000000040000000000000000000000000d00ceda81e6ce6b47bfc6b19e8981c24aea5836800000000000000000000000000000000000000000000000000000000005ae34100000000000000000000000000000000000000000000000000000000000000800000000000000000000000003bc1a0ad72417f2d411118085256fc53cbddd13700000052000100000000000000000000000000000000000000000000000000000000000000000000000000000000000000000000000000000000000000000060000000000000000000000000000000000000000000000000000000000000000000000000000000000000000000000000000000000000000000000000000000200000000000000000000000000000000000000000000000000000000000000000000000000000000000000000000000000000000000000000000000000000000676302e312e300000000000000000000000000000000000000000000000000000000000000000000000000000000000000000000000000000000000000000000e4772616e74536869707354657374000000000000000000000000000000000000",
        "nonce": "0x2e",
        "accessList": []
      },
      "additionalContracts": [
        {
          "transactionType": "CREATE",
          "address": "0xb1d01F385fb02F6aCe9ab1bc0876D28d1AEAa9FE",
          "initCode": "0x3d602d80600a3d3981f3363d3d373d3d3d363d733a594698b511d84c3756d99828af11b9049dff145af43d82803e903d91602b57fd5bf3"
        },
        {
          "transactionType": "CREATE",
          "address": "0x7AFe75779bE0dF0C9dc4038F65a65a37316F34c5",
          "initCode": "0x3d602d80600a3d3981f3363d3d373d3d3d363d7352f718fb325cad186a4d69368765d5604d2483ec5af43d82803e903d91602b57fd5bf3"
        },
        {
          "transactionType": "CREATE",
          "address": "0x8e9103511F1e20743DE00cD346526825AeA47FA7",
          "initCode": "0x3d602d80600a3d3981f3363d3d373d3d3d363d733198166f2daa2fe2da8efee1f7a3ca72da47fbf75af43d82803e903d91602b57fd5bf3"
        },
        {
          "transactionType": "CREATE",
          "address": "0x7f3677D23444A6e4D824998C9A304B08f9bA20df",
          "initCode": "0x3d602d80600a3d3981f3363d3d373d3d3d363d73f6fee573515e78f30b6dca745581ce575677c7615af43d82803e903d91602b57fd5bf3"
        },
        {
          "transactionType": "CREATE",
          "address": "0xEd45f43eD93FCcc0811519877A25652A4Ef6441C",
          "initCode": "0x3d602d80600a3d3981f3363d3d373d3d3d363d73b60274de6def245da0ff46bfc61dafbf312c2baf5af43d82803e903d91602b57fd5bf3"
        }
      ],
      "isFixedGasLimit": false
    }
  ],
  "receipts": [
    {
      "transactionHash": "0xcd4e4d74eadcde5cf27cbb1d09d2392800db1eec30153057484ee6b74d0674ed",
      "transactionIndex": "0x4",
      "blockHash": "0xc038233e5d70fd2e42a22b4dff64d640cae47cd4e44122e5b82de18cec68148c",
      "blockNumber": "0x2ca73b9",
      "from": "0xacB3Afa9Ca0b4edeAc41a98E1F90ba6300b6D217",
      "to": "0x1670EEfb9B638243559b6Fcc7D6d3e6f9d4Ca5Fc",
      "cumulativeGasUsed": "0x1677e8",
      "gasUsed": "0x96f34",
      "contractAddress": null,
      "logs": [
        {
          "address": "0x1670EEfb9B638243559b6Fcc7D6d3e6f9d4Ca5Fc",
          "topics": [
            "0x40d23a2d4b0c05bb75f825dc0ee5b33beba7a81e966554f60af6b2b3f62b47c0"
          ],
          "data": "0x0000000000000000000000007afe75779be0df0c9dc4038f65a65a37316f34c5000000000000000000000000000000000000000000000000000000000000006000000000000000000000000000000000000000000000000000000000000000a0000000000000000000000000000000000000000000000000000000000000001154696d6564566f7465735f76302e312e30000000000000000000000000000000000000000000000000000000000000000000000000000000000000000000000e4772616e74536869707354657374000000000000000000000000000000000000",
          "blockHash": "0xc038233e5d70fd2e42a22b4dff64d640cae47cd4e44122e5b82de18cec68148c",
          "blockNumber": "0x2ca73b9",
          "transactionHash": "0xcd4e4d74eadcde5cf27cbb1d09d2392800db1eec30153057484ee6b74d0674ed",
          "transactionIndex": "0x4",
          "logIndex": "0x8",
          "removed": false
        },
        {
          "address": "0x7AFe75779bE0dF0C9dc4038F65a65a37316F34c5",
          "topics": [
            "0x25ff68dd81b34665b5ba7e553ee5511bf6812e12adb4a7e2c0d9e26b3099ce79"
          ],
          "data": "0x000000000000000000000000b1d01f385fb02f6ace9ab1bc0876d28d1aeaa9fe0000000000000000000000000000000000000000000000000000000000093a80",
          "blockHash": "0xc038233e5d70fd2e42a22b4dff64d640cae47cd4e44122e5b82de18cec68148c",
          "blockNumber": "0x2ca73b9",
          "transactionHash": "0xcd4e4d74eadcde5cf27cbb1d09d2392800db1eec30153057484ee6b74d0674ed",
          "transactionIndex": "0x4",
          "logIndex": "0x9",
          "removed": false
        },
        {
          "address": "0x1670EEfb9B638243559b6Fcc7D6d3e6f9d4Ca5Fc",
          "topics": [
            "0x40d23a2d4b0c05bb75f825dc0ee5b33beba7a81e966554f60af6b2b3f62b47c0"
          ],
          "data": "0x0000000000000000000000008e9103511f1e20743de00cd346526825aea47fa7000000000000000000000000000000000000000000000000000000000000006000000000000000000000000000000000000000000000000000000000000000a000000000000000000000000000000000000000000000000000000000000000174552433230566f746573506f696e74735f76302e312e30000000000000000000000000000000000000000000000000000000000000000000000000000000000e4772616e74536869707354657374000000000000000000000000000000000000",
          "blockHash": "0xc038233e5d70fd2e42a22b4dff64d640cae47cd4e44122e5b82de18cec68148c",
          "blockNumber": "0x2ca73b9",
          "transactionHash": "0xcd4e4d74eadcde5cf27cbb1d09d2392800db1eec30153057484ee6b74d0674ed",
          "transactionIndex": "0x4",
          "logIndex": "0xa",
          "removed": false
        },
        {
          "address": "0x8e9103511F1e20743DE00cD346526825AeA47FA7",
          "topics": [
            "0x10f27652c1015195ca7e6bc9b4c724cbf18e91c42117d92124703a3f49bb240f"
          ],
          "data": "0x000000000000000000000000b1d01f385fb02f6ace9ab1bc0876d28d1aeaa9fe000000000000000000000000d00ceda81e6ce6b47bfc6b19e8981c24aea5836800000000000000000000000000000000000000000000000000000000005ae341",
          "blockHash": "0xc038233e5d70fd2e42a22b4dff64d640cae47cd4e44122e5b82de18cec68148c",
          "blockNumber": "0x2ca73b9",
          "transactionHash": "0xcd4e4d74eadcde5cf27cbb1d09d2392800db1eec30153057484ee6b74d0674ed",
          "transactionIndex": "0x4",
          "logIndex": "0xb",
          "removed": false
        },
        {
          "address": "0x1670EEfb9B638243559b6Fcc7D6d3e6f9d4Ca5Fc",
          "topics": [
            "0x40d23a2d4b0c05bb75f825dc0ee5b33beba7a81e966554f60af6b2b3f62b47c0"
          ],
          "data": "0x0000000000000000000000007f3677d23444a6e4d824998c9a304b08f9ba20df000000000000000000000000000000000000000000000000000000000000006000000000000000000000000000000000000000000000000000000000000000a0000000000000000000000000000000000000000000000000000000000000001448617473416c6c6f774c6973745f76302e312e30000000000000000000000000000000000000000000000000000000000000000000000000000000000000000e4772616e74536869707354657374000000000000000000000000000000000000",
          "blockHash": "0xc038233e5d70fd2e42a22b4dff64d640cae47cd4e44122e5b82de18cec68148c",
          "blockNumber": "0x2ca73b9",
          "transactionHash": "0xcd4e4d74eadcde5cf27cbb1d09d2392800db1eec30153057484ee6b74d0674ed",
          "transactionIndex": "0x4",
          "logIndex": "0xc",
          "removed": false
        },
        {
          "address": "0x7f3677D23444A6e4D824998C9A304B08f9bA20df",
          "topics": [
            "0x10f27652c1015195ca7e6bc9b4c724cbf18e91c42117d92124703a3f49bb240f"
          ],
          "data": "0x000000000000000000000000b1d01f385fb02f6ace9ab1bc0876d28d1aeaa9fe0000000000000000000000003bc1a0ad72417f2d411118085256fc53cbddd1370000005200010000000000000000000000000000000000000000000000000000",
          "blockHash": "0xc038233e5d70fd2e42a22b4dff64d640cae47cd4e44122e5b82de18cec68148c",
          "blockNumber": "0x2ca73b9",
          "transactionHash": "0xcd4e4d74eadcde5cf27cbb1d09d2392800db1eec30153057484ee6b74d0674ed",
          "transactionIndex": "0x4",
          "logIndex": "0xd",
          "removed": false
        },
        {
          "address": "0x1670EEfb9B638243559b6Fcc7D6d3e6f9d4Ca5Fc",
          "topics": [
            "0x40d23a2d4b0c05bb75f825dc0ee5b33beba7a81e966554f60af6b2b3f62b47c0"
          ],
          "data": "0x000000000000000000000000ed45f43ed93fccc0811519877a25652a4ef6441c000000000000000000000000000000000000000000000000000000000000006000000000000000000000000000000000000000000000000000000000000000a0000000000000000000000000000000000000000000000000000000000000001a4d6f636b457865637574696f6e4d6f64756c655f76302e312e30000000000000000000000000000000000000000000000000000000000000000000000000000e4772616e74536869707354657374000000000000000000000000000000000000",
          "blockHash": "0xc038233e5d70fd2e42a22b4dff64d640cae47cd4e44122e5b82de18cec68148c",
          "blockNumber": "0x2ca73b9",
          "transactionHash": "0xcd4e4d74eadcde5cf27cbb1d09d2392800db1eec30153057484ee6b74d0674ed",
          "transactionIndex": "0x4",
          "logIndex": "0xe",
          "removed": false
        },
        {
          "address": "0xb1d01F385fb02F6aCe9ab1bc0876D28d1AEAa9FE",
          "topics": [
            "0x0cb363642da6a78f56db1e8dd82928f33019ea10e0bdcb1bc93365244058664e"
          ],
          "data": "0x0000000000000000000000007afe75779be0df0c9dc4038f65a65a37316f34c50000000000000000000000008e9103511f1e20743de00cd346526825aea47fa70000000000000000000000007f3677d23444a6e4d824998c9a304b08f9ba20df000000000000000000000000ed45f43ed93fccc0811519877a25652a4ef6441c000000000000000000000000000000000000000000000000000000000000000000000000000000000000000000000000000000000000000000000000000000000000000000000000000000000000000000000000000000000000000000000001",
          "blockHash": "0xc038233e5d70fd2e42a22b4dff64d640cae47cd4e44122e5b82de18cec68148c",
          "blockNumber": "0x2ca73b9",
          "transactionHash": "0xcd4e4d74eadcde5cf27cbb1d09d2392800db1eec30153057484ee6b74d0674ed",
          "transactionIndex": "0x4",
          "logIndex": "0xf",
          "removed": false
        },
        {
          "address": "0x1670EEfb9B638243559b6Fcc7D6d3e6f9d4Ca5Fc",
          "topics": [
            "0x98ad319caf8a5ec7b5854e9f5f8a3002e975e370953005344f2e127ff872c7c0"
          ],
          "data": "0x00000000000000000000000000000000000000000000000000000000000000e00000000000000000000000000000000000000000000000000000000000000120000000000000000000000000000000000000000000000000000000000000016000000000000000000000000000000000000000000000000000000000000001a0000000000000000000000000b1d01f385fb02f6ace9ab1bc0876d28d1aeaa9fe00000000000000000000000000000000000000000000000000000000000001e00000000000000000000000000000000000000000000000000000000000000220000000000000000000000000000000000000000000000000000000000000001154696d6564566f7465735f76302e312e3000000000000000000000000000000000000000000000000000000000000000000000000000000000000000000000174552433230566f746573506f696e74735f76302e312e30000000000000000000000000000000000000000000000000000000000000000000000000000000001448617473416c6c6f774c6973745f76302e312e30000000000000000000000000000000000000000000000000000000000000000000000000000000000000001a4d6f636b457865637574696f6e4d6f64756c655f76302e312e30000000000000000000000000000000000000000000000000000000000000000000000000000676302e312e300000000000000000000000000000000000000000000000000000000000000000000000000000000000000000000000000000000000000000000e4772616e74536869707354657374000000000000000000000000000000000000",
          "blockHash": "0xc038233e5d70fd2e42a22b4dff64d640cae47cd4e44122e5b82de18cec68148c",
          "blockNumber": "0x2ca73b9",
          "transactionHash": "0xcd4e4d74eadcde5cf27cbb1d09d2392800db1eec30153057484ee6b74d0674ed",
          "transactionIndex": "0x4",
          "logIndex": "0x10",
          "removed": false
        }
      ],
      "status": "0x1",
      "logsBloom": "0x00040000000000000000000000000010000000004000000000000000402010000008000000000000040000008000001000000000000000000000002000000000000000000000000000000000000000000000000000080000000000000000000000000000000000000000000200000004000000000000000000080000000000000000000000000000000000002000000000000000000001000000000000020000000000000000000000000000000000000000000000000000000000000000000004000000000000040000000000000004000002004000000000000000c00000000000000000200000000000000000000060000000000800000000010000000000",
      "type": "0x2",
      "effectiveGasPrice": "0x3bb70490"
    }
  ],
  "libraries": [],
  "pending": [],
  "returns": {},
  "timestamp": 1716407234,
  "chain": 421614,
  "commit": "a98893e"
}