{
  "transactions": [
    {
      "hash": "0xb645988471cc2bdd180e7bb2ca7826598fc9348b1d1229b1e30f297f6352de96",
      "transactionType": "CREATE",
      "contractName": "ERC20VotesPoints",
      "contractAddress": "0x3198166F2dAA2fe2dA8EFEe1f7a3Ca72da47fbf7",
      "function": null,
      "arguments": null,
      "transaction": {
        "type": "0x02",
        "from": "0xacb3afa9ca0b4edeac41a98e1f90ba6300b6d217",
        "gas": "0xfbdb9",
        "value": "0x0",
        "data": "0x608060405234801561001057600080fd5b5061080f806100206000396000f3fe608060405234801561001057600080fd5b50600436106100b45760003560e01c80638c9189e1116100715780638c9189e114610180578063d1f5789414610193578063e3ac83da146101a6578063e6d6572e146101b9578063ea6fd881146101cc578063ee204abb146101d557600080fd5b806304d092c7146100b95780630b7bc4f3146100c3578063160d66ae146100f65780632d96bd07146101215780635776d800146101445780636eac322714610157575b600080fd5b6100c16101e8565b005b6100e36100d13660046106af565b60036020526000908152604090205481565b6040519081526020015b60405180910390f35b600054610109906001600160a01b031681565b6040516001600160a01b0390911681526020016100ed565b61013461012f3660046106d3565b610253565b60405190151581526020016100ed565b6100c16101523660046106d3565b61027a565b6100e36101653660046106af565b6001600160a01b031660009081526003602052604090205490565b61013461018e3660046106d3565b6103d9565b6100c16101a13660046106ff565b6103e5565b600254610109906001600160a01b031681565b6100c16101c73660046106d3565b610477565b6100e360015481565b6100e36101e33660046106af565b6105e0565b60405162461bcd60e51b815260206004820152603560248201527f5468697320636f6e747261637420646f6573206e6f742072657175697265207560448201527439b2b939903a379031b630b4b6903837b4b73a399760591b60648201526084015b60405180910390fd5b6001600160a01b03821660009081526003602052604081205482905b101590505b92915050565b6002546001600160a01b031633146102c35760405162461bcd60e51b815260206004820152600c60248201526b13db9b1e4818dbdb9d195cdd60a21b604482015260640161024a565b600081116103135760405162461bcd60e51b815260206004820152601d60248201527f416d6f756e74206d7573742062652067726561746572207468616e2030000000604482015260640161024a565b61031d82826103d9565b6103695760405162461bcd60e51b815260206004820152601d60248201527f496e73756666696369656e7420706f696e747320617661696c61626c65000000604482015260640161024a565b6001600160a01b0382166000908152600360205260408120805483929061039190849061079a565b90915550506040518181526001600160a01b038316907f44e4105053aa3f63a885c5d34a006ac07830942d00b97b6ac22ea48259730b0c906020015b60405180910390a25050565b60008161026f846105e0565b6000806103f4838501856106d3565b6001819055600080546001600160a01b03199081166001600160a01b0385811691821790935560028054909216928a16928317909155604080519283526020830191909152810182905291935091507f10f27652c1015195ca7e6bc9b4c724cbf18e91c42117d92124703a3f49bb240f9060600160405180910390a15050505050565b6002546001600160a01b031633146104c05760405162461bcd60e51b815260206004820152600c60248201526b13db9b1e4818dbdb9d195cdd60a21b604482015260640161024a565b600081116105105760405162461bcd60e51b815260206004820152601d60248201527f416d6f756e74206d7573742062652067726561746572207468616e2030000000604482015260640161024a565b6001600160a01b0382166000908152600360205260409020548111156105785760405162461bcd60e51b815260206004820152601d60248201527f496e73756666696369656e7420706f696e747320616c6c6f6361746564000000604482015260640161024a565b6001600160a01b038216600090815260036020526040812080548392906105a09084906107ad565b90915550506040518181526001600160a01b038316907f062272de32852fda9b966d2cd58a84e32e73b3a797a278b8adfba8cb977e1fa7906020016103cd565b60008054600154604051630748d63560e31b815283926001600160a01b031691633a46b1a8916106289187916004016001600160a01b03929092168252602082015260400190565b602060405180830381865afa158015610645573d6000803e3d6000fd5b505050506040513d601f19601f8201168201806040525081019061066991906107c0565b6001600160a01b03841660009081526003602052604090205490915061068f81836107ad565b949350505050565b6001600160a01b03811681146106ac57600080fd5b50565b6000602082840312156106c157600080fd5b81356106cc81610697565b9392505050565b600080604083850312156106e657600080fd5b82356106f181610697565b946020939093013593505050565b60008060006040848603121561071457600080fd5b833561071f81610697565b9250602084013567ffffffffffffffff8082111561073c57600080fd5b818601915086601f83011261075057600080fd5b81358181111561075f57600080fd5b87602082850101111561077157600080fd5b6020830194508093505050509250925092565b634e487b7160e01b600052601160045260246000fd5b8082018082111561027457610274610784565b8181038181111561027457610274610784565b6000602082840312156107d257600080fd5b505191905056fea2646970667358221220a594721a33adc758b55cac718fb5b2e495c8194a945c12ad4aa4fd3c2ce44e0164736f6c63430008100033",
        "nonce": "0x20",
        "accessList": []
      },
      "additionalContracts": [],
      "isFixedGasLimit": false
    },
    {
      "hash": "0xe0fbf17c303cd2c87450d8cd22744a71668dfb2ffc95d8e76d369f76b045776f",
      "transactionType": "CALL",
      "contractName": null,
      "contractAddress": "0x1670EEfb9B638243559b6Fcc7D6d3e6f9d4Ca5Fc",
      "function": "setModuleTemplate(string,address,(uint256,string))",
      "arguments": [
        "\"ERC20VotesPoints_v0.1.0\"",
        "0x3198166F2dAA2fe2dA8EFEe1f7a3Ca72da47fbf7",
        "(0, \"ERC20VotesPoints: Points module that uses IVotes ERC20 tokens for counting voting power at a given block\")"
      ],
      "transaction": {
        "type": "0x02",
        "from": "0xacb3afa9ca0b4edeac41a98e1f90ba6300b6d217",
        "to": "0x1670eefb9b638243559b6fcc7d6d3e6f9d4ca5fc",
        "gas": "0x2a3ca",
        "value": "0x0",
        "data": "0xe963d88900000000000000000000000000000000000000000000000000000000000000600000000000000000000000003198166f2daa2fe2da8efee1f7a3ca72da47fbf700000000000000000000000000000000000000000000000000000000000000a000000000000000000000000000000000000000000000000000000000000000174552433230566f746573506f696e74735f76302e312e300000000000000000000000000000000000000000000000000000000000000000000000000000000000000000000000000000000000000000000000000000000000000000000000004000000000000000000000000000000000000000000000000000000000000000684552433230566f746573506f696e74733a20506f696e7473206d6f64756c65207468617420757365732049566f74657320455243323020746f6b656e7320666f7220636f756e74696e6720766f74696e6720706f776572206174206120676976656e20626c6f636b000000000000000000000000000000000000000000000000",
        "nonce": "0x21",
        "accessList": []
      },
      "additionalContracts": [],
      "isFixedGasLimit": false
    }
  ],
  "receipts": [
    {
      "transactionHash": "0xb645988471cc2bdd180e7bb2ca7826598fc9348b1d1229b1e30f297f6352de96",
      "transactionIndex": "0x7",
      "blockHash": "0xbe219fdd50ceb77934a16b40d2dc10fb2ff1f037bc4a7c38cb20d3b2504301ea",
      "blockNumber": "0x2ca0ef2",
      "from": "0xacB3Afa9Ca0b4edeAc41a98E1F90ba6300b6D217",
      "to": null,
      "cumulativeGasUsed": "0x19dc8a",
      "gasUsed": "0xb0b9d",
      "contractAddress": "0x3198166F2dAA2fe2dA8EFEe1f7a3Ca72da47fbf7",
      "logs": [],
      "status": "0x1",
      "logsBloom": "0x00000000000000000000000000000000000000000000000000000000000000000000000000000000000000000000000000000000000000000000000000000000000000000000000000000000000000000000000000000000000000000000000000000000000000000000000000000000000000000000000000000000000000000000000000000000000000000000000000000000000000000000000000000000000000000000000000000000000000000000000000000000000000000000000000000000000000000000000000000000000000000000000000000000000000000000000000000000000000000000000000000000000000000000000000000000",
      "type": "0x2",
      "effectiveGasPrice": "0x2d4e82c0"
    },
    {
      "transactionHash": "0xe0fbf17c303cd2c87450d8cd22744a71668dfb2ffc95d8e76d369f76b045776f",
      "transactionIndex": "0x1",
      "blockHash": "0x76aa1e1b8461749ddb1480bc0c25bede8b0024329d730d7c681139cc50f8c0a9",
      "blockNumber": "0x2ca0ef5",
      "from": "0xacB3Afa9Ca0b4edeAc41a98E1F90ba6300b6D217",
      "to": "0x1670EEfb9B638243559b6Fcc7D6d3e6f9d4Ca5Fc",
      "cumulativeGasUsed": "0x1b469",
      "gasUsed": "0x1b469",
      "contractAddress": null,
      "logs": [
        {
          "address": "0x1670EEfb9B638243559b6Fcc7D6d3e6f9d4Ca5Fc",
          "topics": [
            "0xcacbb74ea6f89caeed934c4e0eaad9dbc65508d018b276b3aaeb3959d16e1634"
          ],
          "data": "0x00000000000000000000000000000000000000000000000000000000000000600000000000000000000000003198166f2daa2fe2da8efee1f7a3ca72da47fbf700000000000000000000000000000000000000000000000000000000000000a000000000000000000000000000000000000000000000000000000000000000174552433230566f746573506f696e74735f76302e312e300000000000000000000000000000000000000000000000000000000000000000000000000000000000000000000000000000000000000000000000000000000000000000000000004000000000000000000000000000000000000000000000000000000000000000684552433230566f746573506f696e74733a20506f696e7473206d6f64756c65207468617420757365732049566f74657320455243323020746f6b656e7320666f7220636f756e74696e6720766f74696e6720706f776572206174206120676976656e20626c6f636b000000000000000000000000000000000000000000000000",
          "blockHash": "0x76aa1e1b8461749ddb1480bc0c25bede8b0024329d730d7c681139cc50f8c0a9",
          "blockNumber": "0x2ca0ef5",
          "transactionHash": "0xe0fbf17c303cd2c87450d8cd22744a71668dfb2ffc95d8e76d369f76b045776f",
          "transactionIndex": "0x1",
          "logIndex": "0x0",
          "removed": false
        }
      ],
      "status": "0x1",
      "logsBloom": "0x00000000000000000000000000000000000000000000000000000000000000000000000000000000000000000000000000000000000000000000002000000000000000000000000000000000000000000000000000000000000000000000000000000000000000000000000000000000004000000000000000000000000000000000000000000000000000400000000000000000000008000000000000000000000000000000000000000000000000000000000000000000000000000000000000000000000000000000000000000000000000000000000000000000800000000000000000000000000000000000000040000000000000000000000000000000",
      "type": "0x2",
      "effectiveGasPrice": "0x2d18f3d0"
    }
  ],
  "libraries": [],
  "pending": [],
  "returns": {},
  "timestamp": 1716400824,
  "chain": 421614,
  "commit": "18aa5b5"
}