{
  "transactions": [
    {
      "hash": "0x263c77f06b5954525f596ce014f47e69215f7075bb9136cfc66aed254dc710f4",
      "transactionType": "CALL",
      "contractName": null,
      "contractAddress": "0x1670EEfb9B638243559b6Fcc7D6d3e6f9d4Ca5Fc",
      "function": "setModuleTemplate(string,address,(uint256,string))",
      "arguments": [
        "\"EmptyExecutionModule_v0.1.0\"",
        "0x0000000000000000000000000000000000070000",
        "(0, \"EmptyExecutionModule: Execution module that does nothing\")"
      ],
      "transaction": {
        "type": "0x02",
        "from": "0xacb3afa9ca0b4edeac41a98e1f90ba6300b6d217",
        "to": "0x1670eefb9b638243559b6fcc7d6d3e6f9d4ca5fc",
        "gas": "0x1134c",
        "value": "0x0",
        "data": "0xe963d8890000000000000000000000000000000000000000000000000000000000000060000000000000000000000000000000000000000000000000000000000007000000000000000000000000000000000000000000000000000000000000000000a0000000000000000000000000000000000000000000000000000000000000001b456d707479457865637574696f6e4d6f64756c655f76302e312e300000000000000000000000000000000000000000000000000000000000000000000000000000000000000000000000000000000000000000000000000000000000000000400000000000000000000000000000000000000000000000000000000000000038456d707479457865637574696f6e4d6f64756c653a20457865637574696f6e206d6f64756c65207468617420646f6573206e6f7468696e670000000000000000",
        "nonce": "0x2b",
        "accessList": []
      },
      "additionalContracts": [],
      "isFixedGasLimit": false
    }
  ],
  "receipts": [
    {
      "transactionHash": "0x263c77f06b5954525f596ce014f47e69215f7075bb9136cfc66aed254dc710f4",
      "transactionIndex": "0x1",
      "blockHash": "0x087cac7b76025e0e8366b181d9ba74175847f117d46e7fa4e104370fe3ab3320",
      "blockNumber": "0x2ca5c60",
      "from": "0xacB3Afa9Ca0b4edeAc41a98E1F90ba6300b6D217",
      "to": "0x1670EEfb9B638243559b6Fcc7D6d3e6f9d4Ca5Fc",
      "cumulativeGasUsed": "0xd3c5",
      "gasUsed": "0xd3c5",
      "contractAddress": null,
      "logs": [
        {
          "address": "0x1670EEfb9B638243559b6Fcc7D6d3e6f9d4Ca5Fc",
          "topics": [
            "0xcacbb74ea6f89caeed934c4e0eaad9dbc65508d018b276b3aaeb3959d16e1634"
          ],
          "data": "0x0000000000000000000000000000000000000000000000000000000000000060000000000000000000000000000000000000000000000000000000000007000000000000000000000000000000000000000000000000000000000000000000a0000000000000000000000000000000000000000000000000000000000000001b456d707479457865637574696f6e4d6f64756c655f76302e312e300000000000000000000000000000000000000000000000000000000000000000000000000000000000000000000000000000000000000000000000000000000000000000400000000000000000000000000000000000000000000000000000000000000038456d707479457865637574696f6e4d6f64756c653a20457865637574696f6e206d6f64756c65207468617420646f6573206e6f7468696e670000000000000000",
          "blockHash": "0x087cac7b76025e0e8366b181d9ba74175847f117d46e7fa4e104370fe3ab3320",
          "blockNumber": "0x2ca5c60",
          "transactionHash": "0x263c77f06b5954525f596ce014f47e69215f7075bb9136cfc66aed254dc710f4",
          "transactionIndex": "0x1",
          "logIndex": "0x0",
          "removed": false
        }
      ],
      "status": "0x1",
      "logsBloom": "0x00000000000000000000000000000000000000000000000000000000000000000000000000000000000000000000000000000000000000000000002000000000000000000000000000000000000000000000000000000000000000000000000000000000000000000000000000000000004000000000000000000000000000000000000000000000000000400000000000000000000008000000000000000000000000000000000000000000000000000000000000000000000000000000000000000000000000000000000000000000000000000000000000000000800000000000000000000000000000000000000040000000000000000000000000000000",
      "type": "0x2",
      "effectiveGasPrice": "0x3c625fc0"
    }
  ],
  "libraries": [],
  "pending": [],
  "returns": {},
  "timestamp": 1716405742,
  "chain": 421614,
  "commit": "99fb05d"
}