{
  "transactions": [
    {
      "hash": "0x3c85a04f5117f7fbbf73eac7fe72480119148b289ffa5e6d00f16bcca6c8278f",
      "transactionType": "CALL",
      "contractName": null,
      "contractAddress": "0x1670EEfb9B638243559b6Fcc7D6d3e6f9d4Ca5Fc",
      "function": "setContestTemplate(string,address,(uint256,string))",
      "arguments": [
        "\"should be deleted\"",
        "0x3A594698b511D84c3756D99828aF11B9049dFf14",
        "(0, \"Contest: Early v0.1.0 Contest contract that orchestrates custom voting, allocation, choice selection, and execution modules for TCR voting\")"
      ],
      "transaction": {
        "type": "0x02",
        "from": "0xacb3afa9ca0b4edeac41a98e1f90ba6300b6d217",
        "to": "0x1670eefb9b638243559b6fcc7d6d3e6f9d4ca5fc",
        "gas": "0x11fa3",
        "value": "0x0",
        "data": "0x326ac9d300000000000000000000000000000000000000000000000000000000000000600000000000000000000000003a594698b511d84c3756d99828af11b9049dff1400000000000000000000000000000000000000000000000000000000000000a0000000000000000000000000000000000000000000000000000000000000001173686f756c642062652064656c6574656400000000000000000000000000000000000000000000000000000000000000000000000000000000000000000000000000000000000000000000000000000000000000000000000000000000000040000000000000000000000000000000000000000000000000000000000000008a436f6e746573743a204561726c792076302e312e3020436f6e7465737420636f6e74726163742074686174206f726368657374726174657320637573746f6d20766f74696e672c20616c6c6f636174696f6e2c2063686f6963652073656c656374696f6e2c20616e6420657865637574696f6e206d6f64756c657320666f722054435220766f74696e6700000000000000000000000000000000000000000000",
        "nonce": "0x33",
        "accessList": []
      },
      "additionalContracts": [],
      "isFixedGasLimit": false
    },
    {
      "hash": "0x6f634155af3be15c2d62da12aadbb4bf5d6248c4345b3be8e5e02f75d81a2b8f",
      "transactionType": "CALL",
      "contractName": null,
      "contractAddress": "0x1670EEfb9B638243559b6Fcc7D6d3e6f9d4Ca5Fc",
      "function": "removeContestTemplate(string)",
      "arguments": [
        "\"should be deleted\""
      ],
      "transaction": {
        "type": "0x02",
        "from": "0xacb3afa9ca0b4edeac41a98e1f90ba6300b6d217",
        "to": "0x1670eefb9b638243559b6fcc7d6d3e6f9d4ca5fc",
        "gas": "0x9803",
        "value": "0x0",
        "data": "0x17a20f850000000000000000000000000000000000000000000000000000000000000020000000000000000000000000000000000000000000000000000000000000001173686f756c642062652064656c65746564000000000000000000000000000000",
        "nonce": "0x34",
        "accessList": []
      },
      "additionalContracts": [],
      "isFixedGasLimit": false
    }
  ],
  "receipts": [
    {
      "transactionHash": "0x3c85a04f5117f7fbbf73eac7fe72480119148b289ffa5e6d00f16bcca6c8278f",
      "transactionIndex": "0x4",
      "blockHash": "0xf87dfed27218270cc558f5167bea0e48913a0908bcd71f440498407a36e180b2",
      "blockNumber": "0x2d572c9",
      "from": "0xacB3Afa9Ca0b4edeAc41a98E1F90ba6300b6D217",
      "to": "0x1670EEfb9B638243559b6Fcc7D6d3e6f9d4Ca5Fc",
      "cumulativeGasUsed": "0x7c958",
      "gasUsed": "0xdd43",
      "contractAddress": null,
      "logs": [
        {
          "address": "0x1670EEfb9B638243559b6Fcc7D6d3e6f9d4Ca5Fc",
          "topics": [
            "0x8ddcd911603a7dfc7ddd6e0f0365839847d731c692f37e6d75b6f0c4385bd6c0"
          ],
          "data": "0x00000000000000000000000000000000000000000000000000000000000000600000000000000000000000003a594698b511d84c3756d99828af11b9049dff1400000000000000000000000000000000000000000000000000000000000000a0000000000000000000000000000000000000000000000000000000000000001173686f756c642062652064656c6574656400000000000000000000000000000000000000000000000000000000000000000000000000000000000000000000000000000000000000000000000000000000000000000000000000000000000040000000000000000000000000000000000000000000000000000000000000008a436f6e746573743a204561726c792076302e312e3020436f6e7465737420636f6e74726163742074686174206f726368657374726174657320637573746f6d20766f74696e672c20616c6c6f636174696f6e2c2063686f6963652073656c656374696f6e2c20616e6420657865637574696f6e206d6f64756c657320666f722054435220766f74696e6700000000000000000000000000000000000000000000",
          "blockHash": "0xf87dfed27218270cc558f5167bea0e48913a0908bcd71f440498407a36e180b2",
          "blockNumber": "0x2d572c9",
          "transactionHash": "0x3c85a04f5117f7fbbf73eac7fe72480119148b289ffa5e6d00f16bcca6c8278f",
          "transactionIndex": "0x4",
          "logIndex": "0x6",
          "removed": false
        }
      ],
      "status": "0x1",
      "logsBloom": "0x00000000000000000000000000000000000000000000000000000000000000000000000000000000000000000000000000000000000000000000002000000000000000000000000000000008000000000000000000000000000000000000000000000000000000000000000000000000080000000000000000000000000000000000000000000000000000000000000000000000000000000000000000000000000000000000000000000000000000000000000000000000000000000000000000000000000000000000000000000000000000000000000000000000800000000000000000000000000000000000000040000000000000020000000000000000",
      "type": "0x2",
      "effectiveGasPrice": "0x2d4226b0"
    },
    {
      "transactionHash": "0x6f634155af3be15c2d62da12aadbb4bf5d6248c4345b3be8e5e02f75d81a2b8f",
      "transactionIndex": "0x3",
      "blockHash": "0x459dffd995a28afbd32901f7a71c5a661297338001be9016af1786c07bccfbcf",
      "blockNumber": "0x2d572cc",
      "from": "0xacB3Afa9Ca0b4edeAc41a98E1F90ba6300b6D217",
      "to": "0x1670EEfb9B638243559b6Fcc7D6d3e6f9d4Ca5Fc",
      "cumulativeGasUsed": "0x450ff",
      "gasUsed": "0x6e0f",
      "contractAddress": null,
      "logs": [
        {
          "address": "0x1670EEfb9B638243559b6Fcc7D6d3e6f9d4Ca5Fc",
          "topics": [
            "0x2ef5775502b2f9068671deb5381cd88590a4fea4bef65ded67bc9a08d8e96e85"
          ],
          "data": "0x00000000000000000000000000000000000000000000000000000000000000400000000000000000000000000000000000000000000000000000000000000000000000000000000000000000000000000000000000000000000000000000001173686f756c642062652064656c65746564000000000000000000000000000000",
          "blockHash": "0x459dffd995a28afbd32901f7a71c5a661297338001be9016af1786c07bccfbcf",
          "blockNumber": "0x2d572cc",
          "transactionHash": "0x6f634155af3be15c2d62da12aadbb4bf5d6248c4345b3be8e5e02f75d81a2b8f",
          "transactionIndex": "0x3",
          "logIndex": "0x7",
          "removed": false
        }
      ],
      "status": "0x1",
      "logsBloom": "0x00000000000000000000000000000000000000000000000000000000000000000000000000000000000000000000000000000000002000000000002000000000000000000000000000000000000000000000000000000000000000000000000000000000200000000000000000000000000000000000004000000000000000000000000000000000000000000000000000000000000000000000000000000000000000000000000000000000000000000000000000000000000000000000000000000000000000000000000000000000000000000000000000000000800000000000000000000000000000000000000040000000000000000000000000000000",
      "type": "0x2",
      "effectiveGasPrice": "0x2d296e90"
    }
  ],
  "libraries": [],
  "pending": [],
  "returns": {},
  "timestamp": 1716587091,
  "chain": 421614,
  "commit": "d46b927"
}