{
  "transactions": [
    {
      "hash": "0x708ffa297502cc9f49060f4554f31cd11a2ebb990f5250bf938abb822f39c465",
      "transactionType": "CALL",
      "contractName": null,
      "contractAddress": "0x1670EEfb9B638243559b6Fcc7D6d3e6f9d4Ca5Fc",
      "function": "addAdmin(address)",
      "arguments": [
        "0xDE6bcde54CF040088607199FC541f013bA53C21E"
      ],
      "transaction": {
        "type": "0x02",
        "from": "0xacb3afa9ca0b4edeac41a98e1f90ba6300b6d217",
        "to": "0x1670eefb9b638243559b6fcc7d6d3e6f9d4ca5fc",
        "gas": "0x3105b",
        "value": "0x0",
        "data": "0x70480275000000000000000000000000de6bcde54cf040088607199fc541f013ba53c21e",
        "nonce": "0x1a",
        "accessList": []
      },
      "additionalContracts": [],
      "isFixedGasLimit": false
    }
  ],
  "receipts": [
    {
      "transactionHash": "0x708ffa297502cc9f49060f4554f31cd11a2ebb990f5250bf938abb822f39c465",
      "transactionIndex": "0x6",
      "blockHash": "0x7dec6b0959354c3399884e6348de71af7d6e20e9acd8b58bb91beb53d65888b7",
      "blockNumber": "0x2c9e146",
      "from": "0xacB3Afa9Ca0b4edeAc41a98E1F90ba6300b6D217",
      "to": "0x1670EEfb9B638243559b6Fcc7D6d3e6f9d4Ca5Fc",
      "cumulativeGasUsed": "0x2b6da0",
      "gasUsed": "0x1d3be",
      "contractAddress": null,
      "logs": [
        {
          "address": "0x1670EEfb9B638243559b6Fcc7D6d3e6f9d4Ca5Fc",
          "topics": [
            "0x44d6d25963f097ad14f29f06854a01f575648a1ef82f30e562ccd3889717e339"
          ],
          "data": "0x000000000000000000000000de6bcde54cf040088607199fc541f013ba53c21e",
          "blockHash": "0x7dec6b0959354c3399884e6348de71af7d6e20e9acd8b58bb91beb53d65888b7",
          "blockNumber": "0x2c9e146",
          "transactionHash": "0x708ffa297502cc9f49060f4554f31cd11a2ebb990f5250bf938abb822f39c465",
          "transactionIndex": "0x6",
          "logIndex": "0x13",
          "removed": false
        }
      ],
      "status": "0x1",
      "logsBloom": "0x00000000000000000000000000000000000000000000000000000000000000000000000000000000000000000000000000000000000000000000002000000000000000000000000000000000000000000000000000000000000000000000000000000000000000000000000000000000000000000000000000000000000000000000000004000000000000000000000000000000000000008000000000000000000000000000000000000000000000000000000000000020000000000000000000000000000000000000000000000000000000000000000000000000800000000000000000000000000000000000000040000000000000000000000000000000",
      "type": "0x2",
      "effectiveGasPrice": "0xb022550"
    }
  ],
  "libraries": [],
  "pending": [],
  "returns": {},
  "timestamp": 1716397875,
  "chain": 421614,
  "commit": "18aa5b5"
}