{
  "transactions": [
    {
      "hash": "0xa2e5a2b1f1be445408a1b71c460464adb3f28e863c51572a6781ef806333cd59",
      "transactionType": "CALL",
      "contractName": null,
      "contractAddress": "0x1670EEfb9B638243559b6Fcc7D6d3e6f9d4Ca5Fc",
      "function": "setModuleTemplate(string,address,(uint256,string))",
      "arguments": [
        "\"should be deleted\"",
        "0x3198166F2dAA2fe2dA8EFEe1f7a3Ca72da47fbf7",
        "(0, \"ERC20VotesPoints: Points module that uses IVotes ERC20 tokens for counting voting power at a given block\")"
      ],
      "transaction": {
        "type": "0x02",
        "from": "0xacb3afa9ca0b4edeac41a98e1f90ba6300b6d217",
        "to": "0x1670eefb9b638243559b6fcc7d6d3e6f9d4ca5fc",
        "gas": "0x11b73",
        "value": "0x0",
        "data": "0xe963d88900000000000000000000000000000000000000000000000000000000000000600000000000000000000000003198166f2daa2fe2da8efee1f7a3ca72da47fbf700000000000000000000000000000000000000000000000000000000000000a0000000000000000000000000000000000000000000000000000000000000001173686f756c642062652064656c657465640000000000000000000000000000000000000000000000000000000000000000000000000000000000000000000000000000000000000000000000000000000000000000000000000000000000004000000000000000000000000000000000000000000000000000000000000000684552433230566f746573506f696e74733a20506f696e7473206d6f64756c65207468617420757365732049566f74657320455243323020746f6b656e7320666f7220636f756e74696e6720766f74696e6720706f776572206174206120676976656e20626c6f636b000000000000000000000000000000000000000000000000",
        "nonce": "0x37",
        "accessList": []
      },
      "additionalContracts": [],
      "isFixedGasLimit": false
    },
    {
      "hash": "0xa872164d33f16185d896f0d31c3ff2d44f6d66f1e606ab17dbc60ad5c08b0689",
      "transactionType": "CALL",
      "contractName": null,
      "contractAddress": "0x1670EEfb9B638243559b6Fcc7D6d3e6f9d4Ca5Fc",
      "function": "removeModuleTemplate(string)",
      "arguments": [
        "\"should be deleted\""
      ],
      "transaction": {
        "type": "0x02",
        "from": "0xacb3afa9ca0b4edeac41a98e1f90ba6300b6d217",
        "to": "0x1670eefb9b638243559b6fcc7d6d3e6f9d4ca5fc",
        "gas": "0x9802",
        "value": "0x0",
        "data": "0x5b4efcef0000000000000000000000000000000000000000000000000000000000000020000000000000000000000000000000000000000000000000000000000000001173686f756c642062652064656c65746564000000000000000000000000000000",
        "nonce": "0x38",
        "accessList": []
      },
      "additionalContracts": [],
      "isFixedGasLimit": false
    }
  ],
  "receipts": [
    {
      "transactionHash": "0xa2e5a2b1f1be445408a1b71c460464adb3f28e863c51572a6781ef806333cd59",
      "transactionIndex": "0x5",
      "blockHash": "0x38d5797c778e068788d07d9cb7a03326d1f6bf3b73eaa9fa2e77f53706fbb552",
      "blockNumber": "0x2d59072",
      "from": "0xacB3Afa9Ca0b4edeAc41a98E1F90ba6300b6D217",
      "to": "0x1670EEfb9B638243559b6Fcc7D6d3e6f9d4Ca5Fc",
      "cumulativeGasUsed": "0xc0bca",
      "gasUsed": "0xda0a",
      "contractAddress": null,
      "logs": [
        {
          "address": "0x1670EEfb9B638243559b6Fcc7D6d3e6f9d4Ca5Fc",
          "topics": [
            "0xcacbb74ea6f89caeed934c4e0eaad9dbc65508d018b276b3aaeb3959d16e1634"
          ],
          "data": "0x00000000000000000000000000000000000000000000000000000000000000600000000000000000000000003198166f2daa2fe2da8efee1f7a3ca72da47fbf700000000000000000000000000000000000000000000000000000000000000a0000000000000000000000000000000000000000000000000000000000000001173686f756c642062652064656c657465640000000000000000000000000000000000000000000000000000000000000000000000000000000000000000000000000000000000000000000000000000000000000000000000000000000000004000000000000000000000000000000000000000000000000000000000000000684552433230566f746573506f696e74733a20506f696e7473206d6f64756c65207468617420757365732049566f74657320455243323020746f6b656e7320666f7220636f756e74696e6720766f74696e6720706f776572206174206120676976656e20626c6f636b000000000000000000000000000000000000000000000000",
          "blockHash": "0x38d5797c778e068788d07d9cb7a03326d1f6bf3b73eaa9fa2e77f53706fbb552",
          "blockNumber": "0x2d59072",
          "transactionHash": "0xa2e5a2b1f1be445408a1b71c460464adb3f28e863c51572a6781ef806333cd59",
          "transactionIndex": "0x5",
          "logIndex": "0x1",
          "removed": false
        }
      ],
      "status": "0x1",
      "logsBloom": "0x00000000000000000000000000000000000000000000000000000000000000000000000000000000000000000000000000000000000000000000002000000000000000000000000000000000000000000000000000000000000000000000000000000000000000000000000000000000004000000000000000000000000000000000000000000000000000400000000000000000000008000000000000000000000000000000000000000000000000000000000000000000000000000000000000000000000000000000000000000000000000000000000000000000800000000000000000000000000000000000000040000000000000000000000000000000",
      "type": "0x2",
      "effectiveGasPrice": "0x2d27c0e0"
    },
    {
      "transactionHash": "0xa872164d33f16185d896f0d31c3ff2d44f6d66f1e606ab17dbc60ad5c08b0689",
      "transactionIndex": "0x4",
      "blockHash": "0x2cc2adf5ed4584963223e3c97a0693c14d46bfbf20d8afa655ba6e293cc94ea3",
      "blockNumber": "0x2d59075",
      "from": "0xacB3Afa9Ca0b4edeAc41a98E1F90ba6300b6D217",
      "to": "0x1670EEfb9B638243559b6Fcc7D6d3e6f9d4Ca5Fc",
      "cumulativeGasUsed": "0x2bd3ce",
      "gasUsed": "0x6e0e",
      "contractAddress": null,
      "logs": [
        {
          "address": "0x1670EEfb9B638243559b6Fcc7D6d3e6f9d4Ca5Fc",
          "topics": [
            "0x26da3278cf114213d3ed838214f5679332d8b2337da111556d252c1ec5a013dc"
          ],
          "data": "0x00000000000000000000000000000000000000000000000000000000000000400000000000000000000000000000000000000000000000000000000000000000000000000000000000000000000000000000000000000000000000000000001173686f756c642062652064656c65746564000000000000000000000000000000",
          "blockHash": "0x2cc2adf5ed4584963223e3c97a0693c14d46bfbf20d8afa655ba6e293cc94ea3",
          "blockNumber": "0x2d59075",
          "transactionHash": "0xa872164d33f16185d896f0d31c3ff2d44f6d66f1e606ab17dbc60ad5c08b0689",
          "transactionIndex": "0x4",
          "logIndex": "0xb",
          "removed": false
        }
      ],
      "status": "0x1",
      "logsBloom": "0x00000000000000000002000000000000000000000000000000000000000000000000000000000000000000000000000000000000000000000000002000200000000000000000000000000000000000000000000000000000000000000000000000000000000000000000000000000000000000000000000000000000000000000000000000000000000800000000000000000000000000000000000000000000000000000000000000000000000000000000000000000000000000000000000000000000000000000000000000000000000000000000000000000000800000000000000000000000000000000000000040000000000000000000000000000000",
      "type": "0x2",
      "effectiveGasPrice": "0x2cf58d50"
    }
  ],
  "libraries": [],
  "pending": [],
  "returns": {},
  "timestamp": 1716588995,
  "chain": 421614,
  "commit": "d46b927"
}