{
  "transactions": [
    {
      "hash": "0x48b37f705005753b290ad3770300b100788c9140854178c336978388d45957fd",
      "transactionType": "CALL",
      "contractName": null,
      "contractAddress": "0x1670EEfb9B638243559b6Fcc7D6d3e6f9d4Ca5Fc",
      "function": "buildContest(bytes,string,bool,bool,string)",
      "arguments": [
        "0x000000000000000000000000000000000000000000000000000000000000004000000000000000000000000000000000000000000000000000000000000001c0000000000000000000000000000000000000000000000000000000000000008000000000000000000000000000000000000000000000000000000000000000c000000000000000000000000000000000000000000000000000000000000001000000000000000000000000000000000000000000000000000000000000000140000000000000000000000000000000000000000000000000000000000000001154696d6564566f7465735f76302e312e3000000000000000000000000000000000000000000000000000000000000000000000000000000000000000000000174552433230566f746573506f696e74735f76302e312e30000000000000000000000000000000000000000000000000000000000000000000000000000000001448617473416c6c6f774c6973745f76302e312e30000000000000000000000000000000000000000000000000000000000000000000000000000000000000001a4d6f636b457865637574696f6e4d6f64756c655f76302e312e30000000000000000000000000000000000000000000000000000000000000000000000000008000000000000000000000000000000000000000000000000000000000000000c0000000000000000000000000000000000000000000000000000000000000012000000000000000000000000000000000000000000000000000000000000001c000000000000000000000000000000000000000000000000000000000000000200000000000000000000000000000000000000000000000000000000000093a800000000000000000000000000000000000000000000000000000000000000040000000000000000000000000d00ceda81e6ce6b47bfc6b19e8981c24aea5836800000000000000000000000000000000000000000000000000000000005ae34100000000000000000000000000000000000000000000000000000000000000800000000000000000000000003bc1a0ad72417f2d411118085256fc53cbddd13700000052000100000000000000000000000000000000000000000000000000000000000000000000000000000000000000000000000000000000000000000060000000000000000000000000000000000000000000000000000000000000000000000000000000000000000000000000000000000000000000000000000000200000000000000000000000000000000000000000000000000000000000000000",
        "\"v0.1.0\"",
        "false",
        "false",
        "\"v0.0.0\""
      ],
      "transaction": {
        "type": "0x02",
        "from": "0xacb3afa9ca0b4edeac41a98e1f90ba6300b6d217",
        "to": "0x1670eefb9b638243559b6fcc7d6d3e6f9d4ca5fc",
        "gas": "0xc4346",
        "value": "0x0",
        "data": "0x12261d0b00000000000000000000000000000000000000000000000000000000000000a000000000000000000000000000000000000000000000000000000000000004800000000000000000000000000000000000000000000000000000000000000000000000000000000000000000000000000000000000000000000000000000000000000000000000000000000000000000000000000000000000000000000004c000000000000000000000000000000000000000000000000000000000000003c0000000000000000000000000000000000000000000000000000000000000004000000000000000000000000000000000000000000000000000000000000001c0000000000000000000000000000000000000000000000000000000000000008000000000000000000000000000000000000000000000000000000000000000c000000000000000000000000000000000000000000000000000000000000001000000000000000000000000000000000000000000000000000000000000000140000000000000000000000000000000000000000000000000000000000000001154696d6564566f7465735f76302e312e3000000000000000000000000000000000000000000000000000000000000000000000000000000000000000000000174552433230566f746573506f696e74735f76302e312e30000000000000000000000000000000000000000000000000000000000000000000000000000000001448617473416c6c6f774c6973745f76302e312e30000000000000000000000000000000000000000000000000000000000000000000000000000000000000001a4d6f636b457865637574696f6e4d6f64756c655f76302e312e30000000000000000000000000000000000000000000000000000000000000000000000000008000000000000000000000000000000000000000000000000000000000000000c0000000000000000000000000000000000000000000000000000000000000012000000000000000000000000000000000000000000000000000000000000001c000000000000000000000000000000000000000000000000000000000000000200000000000000000000000000000000000000000000000000000000000093a800000000000000000000000000000000000000000000000000000000000000040000000000000000000000000d00ceda81e6ce6b47bfc6b19e8981c24aea5836800000000000000000000000000000000000000000000000000000000005ae34100000000000000000000000000000000000000000000000000000000000000800000000000000000000000003bc1a0ad72417f2d411118085256fc53cbddd13700000052000100000000000000000000000000000000000000000000000000000000000000000000000000000000000000000000000000000000000000000060000000000000000000000000000000000000000000000000000000000000000000000000000000000000000000000000000000000000000000000000000000200000000000000000000000000000000000000000000000000000000000000000000000000000000000000000000000000000000000000000000000000000000676302e312e300000000000000000000000000000000000000000000000000000000000000000000000000000000000000000000000000000000000000000000676302e302e300000000000000000000000000000000000000000000000000000",
        "nonce": "0x2f",
        "accessList": []
      },
      "additionalContracts": [
        {
          "transactionType": "CREATE",
          "address": "0x5a638592833D047318902f640428683055c49164",
          "initCode": "0x3d602d80600a3d3981f3363d3d373d3d3d363d733a594698b511d84c3756d99828af11b9049dff145af43d82803e903d91602b57fd5bf3"
        },
        {
          "transactionType": "CREATE",
          "address": "0x53f9bADaE727fd4F0ede3D153EF53259683d65a8",
          "initCode": "0x3d602d80600a3d3981f3363d3d373d3d3d363d7352f718fb325cad186a4d69368765d5604d2483ec5af43d82803e903d91602b57fd5bf3"
        },
        {
          "transactionType": "CREATE",
          "address": "0x2D9F233d107f68F92e76A7e6C79fBFD994b42fc0",
          "initCode": "0x3d602d80600a3d3981f3363d3d373d3d3d363d733198166f2daa2fe2da8efee1f7a3ca72da47fbf75af43d82803e903d91602b57fd5bf3"
        },
        {
          "transactionType": "CREATE",
          "address": "0xe075811F37522e5D08aB7C41b69fD727d240248C",
          "initCode": "0x3d602d80600a3d3981f3363d3d373d3d3d363d73f6fee573515e78f30b6dca745581ce575677c7615af43d82803e903d91602b57fd5bf3"
        },
        {
          "transactionType": "CREATE",
          "address": "0x45c49Fa533a4419f57E747e92F3D5bB096962D7E",
          "initCode": "0x3d602d80600a3d3981f3363d3d373d3d3d363d73b60274de6def245da0ff46bfc61dafbf312c2baf5af43d82803e903d91602b57fd5bf3"
        }
      ],
      "isFixedGasLimit": false
    }
  ],
  "receipts": [
    {
      "transactionHash": "0x48b37f705005753b290ad3770300b100788c9140854178c336978388d45957fd",
      "transactionIndex": "0x1",
      "blockHash": "0x0b586111833c20eeef279aca11b31bdaf28355014980e87a65f930eed86a787b",
      "blockNumber": "0x2ca7d2d",
      "from": "0xacB3Afa9Ca0b4edeAc41a98E1F90ba6300b6D217",
      "to": "0x1670EEfb9B638243559b6Fcc7D6d3e6f9d4Ca5Fc",
      "cumulativeGasUsed": "0x96ed4",
      "gasUsed": "0x96ed4",
      "contractAddress": null,
      "logs": [
        {
          "address": "0x1670EEfb9B638243559b6Fcc7D6d3e6f9d4Ca5Fc",
          "topics": [
            "0x40d23a2d4b0c05bb75f825dc0ee5b33beba7a81e966554f60af6b2b3f62b47c0"
          ],
          "data": "0x00000000000000000000000053f9badae727fd4f0ede3d153ef53259683d65a8000000000000000000000000000000000000000000000000000000000000006000000000000000000000000000000000000000000000000000000000000000a0000000000000000000000000000000000000000000000000000000000000001154696d6564566f7465735f76302e312e30000000000000000000000000000000000000000000000000000000000000000000000000000000000000000000000676302e302e300000000000000000000000000000000000000000000000000000",
          "blockHash": "0x0b586111833c20eeef279aca11b31bdaf28355014980e87a65f930eed86a787b",
          "blockNumber": "0x2ca7d2d",
          "transactionHash": "0x48b37f705005753b290ad3770300b100788c9140854178c336978388d45957fd",
          "transactionIndex": "0x1",
          "logIndex": "0x0",
          "removed": false
        },
        {
          "address": "0x53f9bADaE727fd4F0ede3D153EF53259683d65a8",
          "topics": [
            "0x25ff68dd81b34665b5ba7e553ee5511bf6812e12adb4a7e2c0d9e26b3099ce79"
          ],
          "data": "0x0000000000000000000000005a638592833d047318902f640428683055c491640000000000000000000000000000000000000000000000000000000000093a80",
          "blockHash": "0x0b586111833c20eeef279aca11b31bdaf28355014980e87a65f930eed86a787b",
          "blockNumber": "0x2ca7d2d",
          "transactionHash": "0x48b37f705005753b290ad3770300b100788c9140854178c336978388d45957fd",
          "transactionIndex": "0x1",
          "logIndex": "0x1",
          "removed": false
        },
        {
          "address": "0x1670EEfb9B638243559b6Fcc7D6d3e6f9d4Ca5Fc",
          "topics": [
            "0x40d23a2d4b0c05bb75f825dc0ee5b33beba7a81e966554f60af6b2b3f62b47c0"
          ],
          "data": "0x0000000000000000000000002d9f233d107f68f92e76a7e6c79fbfd994b42fc0000000000000000000000000000000000000000000000000000000000000006000000000000000000000000000000000000000000000000000000000000000a000000000000000000000000000000000000000000000000000000000000000174552433230566f746573506f696e74735f76302e312e30000000000000000000000000000000000000000000000000000000000000000000000000000000000676302e302e300000000000000000000000000000000000000000000000000000",
          "blockHash": "0x0b586111833c20eeef279aca11b31bdaf28355014980e87a65f930eed86a787b",
          "blockNumber": "0x2ca7d2d",
          "transactionHash": "0x48b37f705005753b290ad3770300b100788c9140854178c336978388d45957fd",
          "transactionIndex": "0x1",
          "logIndex": "0x2",
          "removed": false
        },
        {
          "address": "0x2D9F233d107f68F92e76A7e6C79fBFD994b42fc0",
          "topics": [
            "0x10f27652c1015195ca7e6bc9b4c724cbf18e91c42117d92124703a3f49bb240f"
          ],
          "data": "0x0000000000000000000000005a638592833d047318902f640428683055c49164000000000000000000000000d00ceda81e6ce6b47bfc6b19e8981c24aea5836800000000000000000000000000000000000000000000000000000000005ae341",
          "blockHash": "0x0b586111833c20eeef279aca11b31bdaf28355014980e87a65f930eed86a787b",
          "blockNumber": "0x2ca7d2d",
          "transactionHash": "0x48b37f705005753b290ad3770300b100788c9140854178c336978388d45957fd",
          "transactionIndex": "0x1",
          "logIndex": "0x3",
          "removed": false
        },
        {
          "address": "0x1670EEfb9B638243559b6Fcc7D6d3e6f9d4Ca5Fc",
          "topics": [
            "0x40d23a2d4b0c05bb75f825dc0ee5b33beba7a81e966554f60af6b2b3f62b47c0"
          ],
          "data": "0x000000000000000000000000e075811f37522e5d08ab7c41b69fd727d240248c000000000000000000000000000000000000000000000000000000000000006000000000000000000000000000000000000000000000000000000000000000a0000000000000000000000000000000000000000000000000000000000000001448617473416c6c6f774c6973745f76302e312e30000000000000000000000000000000000000000000000000000000000000000000000000000000000000000676302e302e300000000000000000000000000000000000000000000000000000",
          "blockHash": "0x0b586111833c20eeef279aca11b31bdaf28355014980e87a65f930eed86a787b",
          "blockNumber": "0x2ca7d2d",
          "transactionHash": "0x48b37f705005753b290ad3770300b100788c9140854178c336978388d45957fd",
          "transactionIndex": "0x1",
          "logIndex": "0x4",
          "removed": false
        },
        {
          "address": "0xe075811F37522e5D08aB7C41b69fD727d240248C",
          "topics": [
            "0x10f27652c1015195ca7e6bc9b4c724cbf18e91c42117d92124703a3f49bb240f"
          ],
          "data": "0x0000000000000000000000005a638592833d047318902f640428683055c491640000000000000000000000003bc1a0ad72417f2d411118085256fc53cbddd1370000005200010000000000000000000000000000000000000000000000000000",
          "blockHash": "0x0b586111833c20eeef279aca11b31bdaf28355014980e87a65f930eed86a787b",
          "blockNumber": "0x2ca7d2d",
          "transactionHash": "0x48b37f705005753b290ad3770300b100788c9140854178c336978388d45957fd",
          "transactionIndex": "0x1",
          "logIndex": "0x5",
          "removed": false
        },
        {
          "address": "0x1670EEfb9B638243559b6Fcc7D6d3e6f9d4Ca5Fc",
          "topics": [
            "0x40d23a2d4b0c05bb75f825dc0ee5b33beba7a81e966554f60af6b2b3f62b47c0"
          ],
          "data": "0x00000000000000000000000045c49fa533a4419f57e747e92f3d5bb096962d7e000000000000000000000000000000000000000000000000000000000000006000000000000000000000000000000000000000000000000000000000000000a0000000000000000000000000000000000000000000000000000000000000001a4d6f636b457865637574696f6e4d6f64756c655f76302e312e30000000000000000000000000000000000000000000000000000000000000000000000000000676302e302e300000000000000000000000000000000000000000000000000000",
          "blockHash": "0x0b586111833c20eeef279aca11b31bdaf28355014980e87a65f930eed86a787b",
          "blockNumber": "0x2ca7d2d",
          "transactionHash": "0x48b37f705005753b290ad3770300b100788c9140854178c336978388d45957fd",
          "transactionIndex": "0x1",
          "logIndex": "0x6",
          "removed": false
        },
        {
          "address": "0x5a638592833D047318902f640428683055c49164",
          "topics": [
            "0x0cb363642da6a78f56db1e8dd82928f33019ea10e0bdcb1bc93365244058664e"
          ],
          "data": "0x00000000000000000000000053f9badae727fd4f0ede3d153ef53259683d65a80000000000000000000000002d9f233d107f68f92e76a7e6c79fbfd994b42fc0000000000000000000000000e075811f37522e5d08ab7c41b69fd727d240248c00000000000000000000000045c49fa533a4419f57e747e92f3d5bb096962d7e000000000000000000000000000000000000000000000000000000000000000000000000000000000000000000000000000000000000000000000000000000000000000000000000000000000000000000000000000000000000000000000001",
          "blockHash": "0x0b586111833c20eeef279aca11b31bdaf28355014980e87a65f930eed86a787b",
          "blockNumber": "0x2ca7d2d",
          "transactionHash": "0x48b37f705005753b290ad3770300b100788c9140854178c336978388d45957fd",
          "transactionIndex": "0x1",
          "logIndex": "0x7",
          "removed": false
        },
        {
          "address": "0x1670EEfb9B638243559b6Fcc7D6d3e6f9d4Ca5Fc",
          "topics": [
            "0x98ad319caf8a5ec7b5854e9f5f8a3002e975e370953005344f2e127ff872c7c0"
          ],
          "data": "0x00000000000000000000000000000000000000000000000000000000000000e00000000000000000000000000000000000000000000000000000000000000120000000000000000000000000000000000000000000000000000000000000016000000000000000000000000000000000000000000000000000000000000001a00000000000000000000000005a638592833d047318902f640428683055c4916400000000000000000000000000000000000000000000000000000000000001e00000000000000000000000000000000000000000000000000000000000000220000000000000000000000000000000000000000000000000000000000000001154696d6564566f7465735f76302e312e3000000000000000000000000000000000000000000000000000000000000000000000000000000000000000000000174552433230566f746573506f696e74735f76302e312e30000000000000000000000000000000000000000000000000000000000000000000000000000000001448617473416c6c6f774c6973745f76302e312e30000000000000000000000000000000000000000000000000000000000000000000000000000000000000001a4d6f636b457865637574696f6e4d6f64756c655f76302e312e30000000000000000000000000000000000000000000000000000000000000000000000000000676302e312e300000000000000000000000000000000000000000000000000000000000000000000000000000000000000000000000000000000000000000000676302e302e300000000000000000000000000000000000000000000000000000",
          "blockHash": "0x0b586111833c20eeef279aca11b31bdaf28355014980e87a65f930eed86a787b",
          "blockNumber": "0x2ca7d2d",
          "transactionHash": "0x48b37f705005753b290ad3770300b100788c9140854178c336978388d45957fd",
          "transactionIndex": "0x1",
          "logIndex": "0x8",
          "removed": false
        }
      ],
      "status": "0x1",
      "logsBloom": "0x00000000000000000000000000000010000000004000004000000000402010000000000000000000000000008120001000000040000000000000002000000000000000000000000000000000000000000000000000000000800000000000000000000000000000000000000000000000000000000000000000080000000008000040000000000000000000002000000000000000000000040000000000020000000000000000000000000000000000000200000000000200000000000000000004000000000000040000000000000000000008004000000000000000c00000000000000000000000000000000000000040000000000800000800000000000000",
      "type": "0x2",
      "effectiveGasPrice": "0x3d73f6d0"
    }
  ],
  "libraries": [],
  "pending": [],
  "returns": {},
  "timestamp": 1716407837,
  "chain": 421614,
  "commit": "a98893e"
}