{
  "transactions": [
    {
      "hash": "0x7a54505fff7723dc671fe12201e137db23da52c7972a6d373c4348cbb0a8de83",
      "transactionType": "CREATE",
      "contractName": "DummyVotingToken",
      "contractAddress": "0xd00CEdA81e6Ce6B47BFC6B19e8981C24aEa58368",
      "function": null,
      "arguments": [
        "\"Dummy Voting Token\"",
        "\"DVT\"",
        "1000000000000000000000000",
        "0xacB3Afa9Ca0b4edeAc41a98E1F90ba6300b6D217"
      ],
      "transaction": {
        "type": "0x02",
        "from": "0xacb3afa9ca0b4edeac41a98e1f90ba6300b6d217",
        "gas": "0x255c4c",
        "value": "0x0",
        "data": "0x6101406040523480156200001257600080fd5b50604051620028483803806200284883398101604081905262000035916200083c565b6040805180820190915260018152603160f81b602082015284908190818660036200006183826200095f565b5060046200007082826200095f565b5050825160209384012082519284019290922060e08390526101008190524660a0818152604080517f8b73c3c69bb8fe3d512ecc4cf759cc79239f7b179b0ffacaa9a75d522b39400f818901819052818301979097526060810194909452608080850193909352308483018190528151808603909301835260c09485019091528151919096012090529290925261012052506200010f90503362000125565b6200011b818362000177565b5050505062000a83565b600a80546001600160a01b038381166001600160a01b0319831681179093556040519116919082907f8be0079c531659141344cd1fd0a4f28419497f9722a3daafe3b4186f6b6457e090600090a35050565b6200018e82826200019260201b62000ae91760201c565b5050565b620001a982826200024960201b62000b791760201c565b6001600160e01b03620001bd620003388216565b11156200022a5760405162461bcd60e51b815260206004820152603060248201527f4552433230566f7465733a20746f74616c20737570706c79207269736b73206f60448201526f766572666c6f77696e6720766f74657360801b60648201526084015b60405180910390fd5b62000243600962000c646200033e60201b178362000355565b50505050565b6001600160a01b038216620002a15760405162461bcd60e51b815260206004820152601f60248201527f45524332303a206d696e7420746f20746865207a65726f206164647265737300604482015260640162000221565b8060026000828254620002b5919062000a41565b90915550506001600160a01b03821660009081526020819052604081208054839290620002e490849062000a41565b90915550506040518181526001600160a01b038316906000907fddf252ad1be2c89b69c2b068fc378daa952ba7f163c4a11628f55a4df523b3ef9060200160405180910390a36200018e600083836200050c565b60025490565b60006200034c828462000a41565b90505b92915050565b825460009081908015620003a757856200037160018362000a57565b8154811062000384576200038462000a6d565b60009182526020909120015464010000000090046001600160e01b0316620003aa565b60005b6001600160e01b03169250620003c183858760201c565b91506000811180156200040557504386620003de60018462000a57565b81548110620003f157620003f162000a6d565b60009182526020909120015463ffffffff16145b15620004795762000421826200052460201b62000c701760201c565b866200042f60018462000a57565b8154811062000442576200044262000a6d565b9060005260206000200160000160046101000a8154816001600160e01b0302191690836001600160e01b03160217905550620004fe565b8560405180604001604052806200049b436200059360201b62000cdd1760201c565b63ffffffff168152602001620004bc856200052460201b62000c701760201c565b6001600160e01b0390811690915282546001810184556000938452602093849020835194909301519091166401000000000263ffffffff909316929092179101555b50935093915050565b505050565b62000507838383620005fa60201b62000d421760201c565b60006001600160e01b038211156200058f5760405162461bcd60e51b815260206004820152602760248201527f53616665436173743a2076616c756520646f65736e27742066697420696e20326044820152663234206269747360c81b606482015260840162000221565b5090565b600063ffffffff8211156200058f5760405162461bcd60e51b815260206004820152602660248201527f53616665436173743a2076616c756520646f65736e27742066697420696e203360448201526532206269747360d01b606482015260840162000221565b620006128383836200050760201b62000d741760201c565b6001600160a01b038381166000908152600760205260408082205485841683529120546200050792918216911683818314801590620006515750600081115b1562000507576001600160a01b03831615620006de576001600160a01b0383166000908152600860209081526040822082916200069b919062000769901b62000d79178562000355565b91509150846001600160a01b0316600080516020620028288339815191528383604051620006d3929190918252602082015260400190565b60405180910390a250505b6001600160a01b0382161562000507576001600160a01b0382166000908152600860209081526040822082916200072291906200033e901b62000c64178562000355565b91509150836001600160a01b03166000805160206200282883398151915283836040516200075a929190918252602082015260400190565b60405180910390a25050505050565b60006200034c828462000a57565b634e487b7160e01b600052604160045260246000fd5b600082601f8301126200079f57600080fd5b81516001600160401b0380821115620007bc57620007bc62000777565b604051601f8301601f19908116603f01168101908282118183101715620007e757620007e762000777565b816040528381526020925086838588010111156200080457600080fd5b600091505b8382101562000828578582018301518183018401529082019062000809565b600093810190920192909252949350505050565b600080600080608085870312156200085357600080fd5b84516001600160401b03808211156200086b57600080fd5b62000879888389016200078d565b955060208701519150808211156200089057600080fd5b506200089f878288016200078d565b60408701516060880151919550935090506001600160a01b0381168114620008c657600080fd5b939692955090935050565b600181811c90821680620008e657607f821691505b6020821081036200090757634e487b7160e01b600052602260045260246000fd5b50919050565b601f8211156200050757600081815260208120601f850160051c81016020861015620009365750805b601f850160051c820191505b81811015620009575782815560010162000942565b505050505050565b81516001600160401b038111156200097b576200097b62000777565b62000993816200098c8454620008d1565b846200090d565b602080601f831160018114620009cb5760008415620009b25750858301515b600019600386901b1c1916600185901b17855562000957565b600085815260208120601f198616915b82811015620009fc57888601518255948401946001909101908401620009db565b508582101562000a1b5787850151600019600388901b60f8161c191681555b5050505050600190811b01905550565b634e487b7160e01b600052601160045260246000fd5b808201808211156200034f576200034f62000a2b565b818103818111156200034f576200034f62000a2b565b634e487b7160e01b600052603260045260246000fd5b60805160a05160c05160e0516101005161012051611d5562000ad3600039600061117b015260006111ca015260006111a5015260006110fe01526000611128015260006111520152611d556000f3fe608060405234801561001057600080fd5b50600436106101735760003560e01c8063715018a6116100de578063a457c2d711610097578063d505accf11610071578063d505accf14610358578063dd62ed3e1461036b578063f1127ed81461037e578063f2fde38b146103bb57600080fd5b8063a457c2d71461031f578063a9059cbb14610332578063c3cda5201461034557600080fd5b8063715018a6146102c55780637ecebe00146102cd5780638da5cb5b146102e05780638e539e8c146102f157806395d89b41146103045780639ab24eb01461030c57600080fd5b8063395093511161013057806339509351146101f55780633a46b1a814610208578063587cde1e1461021b5780635c19a95c1461025f5780636fcfff451461027457806370a082311461029c57600080fd5b806306fdde0314610178578063095ea7b31461019657806318160ddd146101b957806323b872dd146101cb578063313ce567146101de5780633644e515146101ed575b600080fd5b6101806103ce565b60405161018d9190611a17565b60405180910390f35b6101a96101a4366004611a81565b610460565b604051901515815260200161018d565b6002545b60405190815260200161018d565b6101a96101d9366004611aab565b61047a565b6040516012815260200161018d565b6101bd61049e565b6101a9610203366004611a81565b6104ad565b6101bd610216366004611a81565b6104cf565b610247610229366004611ae7565b6001600160a01b039081166000908152600760205260409020541690565b6040516001600160a01b03909116815260200161018d565b61027261026d366004611ae7565b61054e565b005b610287610282366004611ae7565b61055b565b60405163ffffffff909116815260200161018d565b6101bd6102aa366004611ae7565b6001600160a01b031660009081526020819052604090205490565b61027261057d565b6101bd6102db366004611ae7565b610591565b600a546001600160a01b0316610247565b6101bd6102ff366004611b02565b6105af565b61018061060b565b6101bd61031a366004611ae7565b61061a565b6101a961032d366004611a81565b6106a1565b6101a9610340366004611a81565b61071c565b610272610353366004611b2c565b61072a565b610272610366366004611b84565b610860565b6101bd610379366004611bee565b6109c4565b61039161038c366004611c21565b6109ef565b60408051825163ffffffff1681526020928301516001600160e01b0316928101929092520161018d565b6102726103c9366004611ae7565b610a73565b6060600380546103dd90611c61565b80601f016020809104026020016040519081016040528092919081815260200182805461040990611c61565b80156104565780601f1061042b57610100808354040283529160200191610456565b820191906000526020600020905b81548152906001019060200180831161043957829003601f168201915b5050505050905090565b60003361046e818585610d85565b60019150505b92915050565b600033610488858285610ea9565b610493858585610f1d565b506001949350505050565b60006104a86110f1565b905090565b60003361046e8185856104c083836109c4565b6104ca9190611cab565b610d85565b60004382106105255760405162461bcd60e51b815260206004820152601f60248201527f4552433230566f7465733a20626c6f636b206e6f7420796574206d696e65640060448201526064015b60405180910390fd5b6001600160a01b03831660009081526008602052604090206105479083611218565b9392505050565b61055833826112d5565b50565b6001600160a01b03811660009081526008602052604081205461047490610cdd565b61058561134e565b61058f60006113a8565b565b6001600160a01b038116600090815260056020526040812054610474565b60004382106106005760405162461bcd60e51b815260206004820152601f60248201527f4552433230566f7465733a20626c6f636b206e6f7420796574206d696e656400604482015260640161051c565b610474600983611218565b6060600480546103dd90611c61565b6001600160a01b038116600090815260086020526040812054801561068e576001600160a01b038316600090815260086020526040902061065c600183611cbe565b8154811061066c5761066c611cd1565b60009182526020909120015464010000000090046001600160e01b0316610691565b60005b6001600160e01b03169392505050565b600033816106af82866109c4565b90508381101561070f5760405162461bcd60e51b815260206004820152602560248201527f45524332303a2064656372656173656420616c6c6f77616e63652062656c6f77604482015264207a65726f60d81b606482015260840161051c565b6104938286868403610d85565b60003361046e818585610f1d565b8342111561077a5760405162461bcd60e51b815260206004820152601d60248201527f4552433230566f7465733a207369676e61747572652065787069726564000000604482015260640161051c565b604080517fe48329057bfd03d55e49b547132e39cffd9c1820ad7b9d4c5307691425d15adf60208201526001600160a01b0388169181019190915260608101869052608081018590526000906107f4906107ec9060a001604051602081830303815290604052805190602001206113fa565b858585611448565b90506107ff81611470565b861461084d5760405162461bcd60e51b815260206004820152601960248201527f4552433230566f7465733a20696e76616c6964206e6f6e636500000000000000604482015260640161051c565b61085781886112d5565b50505050505050565b834211156108b05760405162461bcd60e51b815260206004820152601d60248201527f45524332305065726d69743a206578706972656420646561646c696e65000000604482015260640161051c565b60007f6e71edae12b1b97f4d1f60370fef10105fa2faae0126114a169c64845d6126c98888886108df8c611470565b6040805160208101969096526001600160a01b0394851690860152929091166060840152608083015260a082015260c0810186905260e001604051602081830303815290604052805190602001209050600061093a826113fa565b9050600061094a82878787611448565b9050896001600160a01b0316816001600160a01b0316146109ad5760405162461bcd60e51b815260206004820152601e60248201527f45524332305065726d69743a20696e76616c6964207369676e61747572650000604482015260640161051c565b6109b88a8a8a610d85565b50505050505050505050565b6001600160a01b03918216600090815260016020908152604080832093909416825291909152205490565b60408051808201909152600080825260208201526001600160a01b0383166000908152600860205260409020805463ffffffff8416908110610a3357610a33611cd1565b60009182526020918290206040805180820190915291015463ffffffff8116825264010000000090046001600160e01b0316918101919091529392505050565b610a7b61134e565b6001600160a01b038116610ae05760405162461bcd60e51b815260206004820152602660248201527f4f776e61626c653a206e6577206f776e657220697320746865207a65726f206160448201526564647265737360d01b606482015260840161051c565b610558816113a8565b610af38282610b79565b6002546001600160e01b031015610b655760405162461bcd60e51b815260206004820152603060248201527f4552433230566f7465733a20746f74616c20737570706c79207269736b73206f60448201526f766572666c6f77696e6720766f74657360801b606482015260840161051c565b610b736009610c6483611498565b50505050565b6001600160a01b038216610bcf5760405162461bcd60e51b815260206004820152601f60248201527f45524332303a206d696e7420746f20746865207a65726f206164647265737300604482015260640161051c565b8060026000828254610be19190611cab565b90915550506001600160a01b03821660009081526020819052604081208054839290610c0e908490611cab565b90915550506040518181526001600160a01b038316906000907fddf252ad1be2c89b69c2b068fc378daa952ba7f163c4a11628f55a4df523b3ef9060200160405180910390a3610c6060008383611611565b5050565b60006105478284611cab565b60006001600160e01b03821115610cd95760405162461bcd60e51b815260206004820152602760248201527f53616665436173743a2076616c756520646f65736e27742066697420696e20326044820152663234206269747360c81b606482015260840161051c565b5090565b600063ffffffff821115610cd95760405162461bcd60e51b815260206004820152602660248201527f53616665436173743a2076616c756520646f65736e27742066697420696e203360448201526532206269747360d01b606482015260840161051c565b6001600160a01b03838116600090815260076020526040808220548584168352912054610d749291821691168361161c565b505050565b60006105478284611cbe565b6001600160a01b038316610de75760405162461bcd60e51b8152602060048201526024808201527f45524332303a20617070726f76652066726f6d20746865207a65726f206164646044820152637265737360e01b606482015260840161051c565b6001600160a01b038216610e485760405162461bcd60e51b815260206004820152602260248201527f45524332303a20617070726f766520746f20746865207a65726f206164647265604482015261737360f01b606482015260840161051c565b6001600160a01b0383811660008181526001602090815260408083209487168084529482529182902085905590518481527f8c5be1e5ebec7d5bd14f71427d1e84f3dd0314c0f7b2291e5b200ac8c7c3b925910160405180910390a3505050565b6000610eb584846109c4565b90506000198114610b735781811015610f105760405162461bcd60e51b815260206004820152601d60248201527f45524332303a20696e73756666696369656e7420616c6c6f77616e6365000000604482015260640161051c565b610b738484848403610d85565b6001600160a01b038316610f815760405162461bcd60e51b815260206004820152602560248201527f45524332303a207472616e736665722066726f6d20746865207a65726f206164604482015264647265737360d81b606482015260840161051c565b6001600160a01b038216610fe35760405162461bcd60e51b815260206004820152602360248201527f45524332303a207472616e7366657220746f20746865207a65726f206164647260448201526265737360e81b606482015260840161051c565b6001600160a01b0383166000908152602081905260409020548181101561105b5760405162461bcd60e51b815260206004820152602660248201527f45524332303a207472616e7366657220616d6f756e7420657863656564732062604482015265616c616e636560d01b606482015260840161051c565b6001600160a01b03808516600090815260208190526040808220858503905591851681529081208054849290611092908490611cab565b92505081905550826001600160a01b0316846001600160a01b03167fddf252ad1be2c89b69c2b068fc378daa952ba7f163c4a11628f55a4df523b3ef846040516110de91815260200190565b60405180910390a3610b73848484611611565b6000306001600160a01b037f00000000000000000000000000000000000000000000000000000000000000001614801561114a57507f000000000000000000000000000000000000000000000000000000000000000046145b1561117457507f000000000000000000000000000000000000000000000000000000000000000090565b50604080517f00000000000000000000000000000000000000000000000000000000000000006020808301919091527f0000000000000000000000000000000000000000000000000000000000000000828401527f000000000000000000000000000000000000000000000000000000000000000060608301524660808301523060a0808401919091528351808403909101815260c0909201909252805191012090565b8154600090815b8181101561127c5760006112338284611759565b90508486828154811061124857611248611cd1565b60009182526020909120015463ffffffff16111561126857809250611276565b611273816001611cab565b91505b5061121f565b81156112c0578461128e600184611cbe565b8154811061129e5761129e611cd1565b60009182526020909120015464010000000090046001600160e01b03166112c3565b60005b6001600160e01b031695945050505050565b6001600160a01b038281166000818152600760208181526040808420805485845282862054949093528787166001600160a01b03198416811790915590519190951694919391928592917f3134e8a2e6d97e929a7e54011ea5485d7d196dd5f0ba4d4ef95803e8e3fc257f9190a4610b7382848361161c565b600a546001600160a01b0316331461058f5760405162461bcd60e51b815260206004820181905260248201527f4f776e61626c653a2063616c6c6572206973206e6f7420746865206f776e6572604482015260640161051c565b600a80546001600160a01b038381166001600160a01b0319831681179093556040519116919082907f8be0079c531659141344cd1fd0a4f28419497f9722a3daafe3b4186f6b6457e090600090a35050565b60006104746114076110f1565b8360405161190160f01b6020820152602281018390526042810182905260009060620160405160208183030381529060405280519060200120905092915050565b600080600061145987878787611774565b9150915061146681611861565b5095945050505050565b6001600160a01b03811660009081526005602052604090208054600181018255905b50919050565b8254600090819080156114e357856114b1600183611cbe565b815481106114c1576114c1611cd1565b60009182526020909120015464010000000090046001600160e01b03166114e6565b60005b6001600160e01b031692506114ff83858763ffffffff16565b915060008111801561153d57504386611519600184611cbe565b8154811061152957611529611cd1565b60009182526020909120015463ffffffff16145b1561159d5761154b82610c70565b86611557600184611cbe565b8154811061156757611567611cd1565b9060005260206000200160000160046101000a8154816001600160e01b0302191690836001600160e01b03160217905550611608565b8560405180604001604052806115b243610cdd565b63ffffffff1681526020016115c685610c70565b6001600160e01b0390811690915282546001810184556000938452602093849020835194909301519091166401000000000263ffffffff909316929092179101555b50935093915050565b610d74838383610d42565b816001600160a01b0316836001600160a01b03161415801561163e5750600081115b15610d74576001600160a01b038316156116cc576001600160a01b0383166000908152600860205260408120819061167990610d7985611498565b91509150846001600160a01b03167fdec2bacdd2f05b59de34da9b523dff8be42e5e38e818c82fdb0bae774387a72483836040516116c1929190918252602082015260400190565b60405180910390a250505b6001600160a01b03821615610d74576001600160a01b0382166000908152600860205260408120819061170290610c6485611498565b91509150836001600160a01b03167fdec2bacdd2f05b59de34da9b523dff8be42e5e38e818c82fdb0bae774387a724838360405161174a929190918252602082015260400190565b60405180910390a25050505050565b60006117686002848418611ce7565b61054790848416611cab565b6000807f7fffffffffffffffffffffffffffffff5d576e7357a4501ddfe92f46681b20a08311156117ab5750600090506003611858565b8460ff16601b141580156117c357508460ff16601c14155b156117d45750600090506004611858565b6040805160008082526020820180845289905260ff881692820192909252606081018690526080810185905260019060a0016020604051602081039080840390855afa158015611828573d6000803e3d6000fd5b5050604051601f1901519150506001600160a01b03811661185157600060019250925050611858565b9150600090505b94509492505050565b600081600481111561187557611875611d09565b0361187d5750565b600181600481111561189157611891611d09565b036118de5760405162461bcd60e51b815260206004820152601860248201527f45434453413a20696e76616c6964207369676e61747572650000000000000000604482015260640161051c565b60028160048111156118f2576118f2611d09565b0361193f5760405162461bcd60e51b815260206004820152601f60248201527f45434453413a20696e76616c6964207369676e6174757265206c656e67746800604482015260640161051c565b600381600481111561195357611953611d09565b036119ab5760405162461bcd60e51b815260206004820152602260248201527f45434453413a20696e76616c6964207369676e6174757265202773272076616c604482015261756560f01b606482015260840161051c565b60048160048111156119bf576119bf611d09565b036105585760405162461bcd60e51b815260206004820152602260248201527f45434453413a20696e76616c6964207369676e6174757265202776272076616c604482015261756560f01b606482015260840161051c565b600060208083528351808285015260005b81811015611a4457858101830151858201604001528201611a28565b506000604082860101526040601f19601f8301168501019250505092915050565b80356001600160a01b0381168114611a7c57600080fd5b919050565b60008060408385031215611a9457600080fd5b611a9d83611a65565b946020939093013593505050565b600080600060608486031215611ac057600080fd5b611ac984611a65565b9250611ad760208501611a65565b9150604084013590509250925092565b600060208284031215611af957600080fd5b61054782611a65565b600060208284031215611b1457600080fd5b5035919050565b803560ff81168114611a7c57600080fd5b60008060008060008060c08789031215611b4557600080fd5b611b4e87611a65565b95506020870135945060408701359350611b6a60608801611b1b565b92506080870135915060a087013590509295509295509295565b600080600080600080600060e0888a031215611b9f57600080fd5b611ba888611a65565b9650611bb660208901611a65565b95506040880135945060608801359350611bd260808901611b1b565b925060a0880135915060c0880135905092959891949750929550565b60008060408385031215611c0157600080fd5b611c0a83611a65565b9150611c1860208401611a65565b90509250929050565b60008060408385031215611c3457600080fd5b611c3d83611a65565b9150602083013563ffffffff81168114611c5657600080fd5b809150509250929050565b600181811c90821680611c7557607f821691505b60208210810361149257634e487b7160e01b600052602260045260246000fd5b634e487b7160e01b600052601160045260246000fd5b8082018082111561047457610474611c95565b8181038181111561047457610474611c95565b634e487b7160e01b600052603260045260246000fd5b600082611d0457634e487b7160e01b600052601260045260246000fd5b500490565b634e487b7160e01b600052602160045260246000fdfea2646970667358221220c6fb30a7f656cfddafa1f04069a3f089670cab92c895f5941a09d2395cd1a3fe64736f6c63430008100033dec2bacdd2f05b59de34da9b523dff8be42e5e38e818c82fdb0bae774387a724000000000000000000000000000000000000000000000000000000000000008000000000000000000000000000000000000000000000000000000000000000c000000000000000000000000000000000000000000000d3c21bcecceda1000000000000000000000000000000acb3afa9ca0b4edeac41a98e1f90ba6300b6d217000000000000000000000000000000000000000000000000000000000000001244756d6d7920566f74696e6720546f6b656e000000000000000000000000000000000000000000000000000000000000000000000000000000000000000000034456540000000000000000000000000000000000000000000000000000000000",
        "nonce": "0x24",
        "accessList": []
      },
      "additionalContracts": [],
      "isFixedGasLimit": false
    },
    {
      "hash": "0x9736991f36be96a1c1ccac7e6556927dc778ce2218e7cea992c93dd41defc6cc",
      "transactionType": "CALL",
      "contractName": "DummyVotingToken",
      "contractAddress": "0xd00CEdA81e6Ce6B47BFC6B19e8981C24aEa58368",
      "function": "transfer(address,uint256)",
      "arguments": [
        "0x57abda4ee50Bb3079A556C878b2c345310057569",
        "10000000000000000000000"
      ],
      "transaction": {
        "type": "0x02",
        "from": "0xacb3afa9ca0b4edeac41a98e1f90ba6300b6d217",
        "to": "0xd00ceda81e6ce6b47bfc6b19e8981c24aea58368",
        "gas": "0x6df8",
        "value": "0x0",
        "data": "0xa9059cbb00000000000000000000000057abda4ee50bb3079a556c878b2c34531005756900000000000000000000000000000000000000000000021e19e0c9bab2400000",
        "nonce": "0x25",
        "accessList": []
      },
      "additionalContracts": [],
      "isFixedGasLimit": false
    },
    {
      "hash": "0x4f137d656b452be1ab8947beed5aa258df8ea94cf6b93ad0f2d25b8e099f5d1e",
      "transactionType": "CALL",
      "contractName": "DummyVotingToken",
      "contractAddress": "0xd00CEdA81e6Ce6B47BFC6B19e8981C24aEa58368",
      "function": "transfer(address,uint256)",
      "arguments": [
        "0xD800B05c70A2071BC1E5Eac5B3390Da1Eb67bC9D",
        "10000000000000000000000"
      ],
      "transaction": {
        "type": "0x02",
        "from": "0xacb3afa9ca0b4edeac41a98e1f90ba6300b6d217",
        "to": "0xd00ceda81e6ce6b47bfc6b19e8981c24aea58368",
        "gas": "0x6de9",
        "value": "0x0",
        "data": "0xa9059cbb000000000000000000000000d800b05c70a2071bc1e5eac5b3390da1eb67bc9d00000000000000000000000000000000000000000000021e19e0c9bab2400000",
        "nonce": "0x26",
        "accessList": []
      },
      "additionalContracts": [],
      "isFixedGasLimit": false
    },
    {
      "hash": "0x7844aea5dc5551bd01f3b65592823b26b8a87055253db867d56f6357108e7ab9",
      "transactionType": "CALL",
      "contractName": "DummyVotingToken",
      "contractAddress": "0xd00CEdA81e6Ce6B47BFC6B19e8981C24aEa58368",
      "function": "transfer(address,uint256)",
      "arguments": [
        "0x57ffb33cC9D786da4087d970b0B0053017f26afc",
        "10000000000000000000000"
      ],
      "transaction": {
        "type": "0x02",
        "from": "0xacb3afa9ca0b4edeac41a98e1f90ba6300b6d217",
        "to": "0xd00ceda81e6ce6b47bfc6b19e8981c24aea58368",
        "gas": "0x6df8",
        "value": "0x0",
        "data": "0xa9059cbb00000000000000000000000057ffb33cc9d786da4087d970b0b0053017f26afc00000000000000000000000000000000000000000000021e19e0c9bab2400000",
        "nonce": "0x27",
        "accessList": []
      },
      "additionalContracts": [],
      "isFixedGasLimit": false
    },
    {
      "hash": "0xfab2db0535dcd7a76dc51a1bfcf1e52978241287f34a19070ca09e2cd7f82ca2",
      "transactionType": "CALL",
      "contractName": "DummyVotingToken",
      "contractAddress": "0xd00CEdA81e6Ce6B47BFC6B19e8981C24aEa58368",
      "function": "transfer(address,uint256)",
      "arguments": [
        "0x27773b203954FBBb3e98DFa1a85A99e1c2f40f56",
        "10000000000000000000000"
      ],
      "transaction": {
        "type": "0x02",
        "from": "0xacb3afa9ca0b4edeac41a98e1f90ba6300b6d217",
        "to": "0xd00ceda81e6ce6b47bfc6b19e8981c24aea58368",
        "gas": "0x6df8",
        "value": "0x0",
        "data": "0xa9059cbb00000000000000000000000027773b203954fbbb3e98dfa1a85a99e1c2f40f5600000000000000000000000000000000000000000000021e19e0c9bab2400000",
        "nonce": "0x28",
        "accessList": []
      },
      "additionalContracts": [],
      "isFixedGasLimit": false
    },
    {
      "hash": "0x7d8a1007f4ff06d3a330d857d6a2175793a0fb4313b3626a5889f06b7125f04e",
      "transactionType": "CALL",
      "contractName": "DummyVotingToken",
      "contractAddress": "0xd00CEdA81e6Ce6B47BFC6B19e8981C24aEa58368",
      "function": "transfer(address,uint256)",
      "arguments": [
        "0x67243d6c3c3bDc2F59D2f74ba1949a02973a529d",
        "10000000000000000000000"
      ],
      "transaction": {
        "type": "0x02",
        "from": "0xacb3afa9ca0b4edeac41a98e1f90ba6300b6d217",
        "to": "0xd00ceda81e6ce6b47bfc6b19e8981c24aea58368",
        "gas": "0x6df8",
        "value": "0x0",
        "data": "0xa9059cbb00000000000000000000000067243d6c3c3bdc2f59d2f74ba1949a02973a529d00000000000000000000000000000000000000000000021e19e0c9bab2400000",
        "nonce": "0x29",
        "accessList": []
      },
      "additionalContracts": [],
      "isFixedGasLimit": false
    },
    {
      "hash": "0x743aa1551e3d8978cb80703b3ef46873b1a906d6a4b39622760709773cdda3d3",
      "transactionType": "CALL",
      "contractName": "DummyVotingToken",
      "contractAddress": "0xd00CEdA81e6Ce6B47BFC6B19e8981C24aEa58368",
      "function": "transfer(address,uint256)",
      "arguments": [
        "0xDE6bcde54CF040088607199FC541f013bA53C21E",
        "300000000000000000000000"
      ],
      "transaction": {
        "type": "0x02",
        "from": "0xacb3afa9ca0b4edeac41a98e1f90ba6300b6d217",
        "to": "0xd00ceda81e6ce6b47bfc6b19e8981c24aea58368",
        "gas": "0x6df8",
        "value": "0x0",
        "data": "0xa9059cbb000000000000000000000000de6bcde54cf040088607199fc541f013ba53c21e000000000000000000000000000000000000000000003f870857a3e0e3800000",
        "nonce": "0x2a",
        "accessList": []
      },
      "additionalContracts": [],
      "isFixedGasLimit": false
    }
  ],
  "receipts": [
    {
      "transactionHash": "0x7a54505fff7723dc671fe12201e137db23da52c7972a6d373c4348cbb0a8de83",
      "transactionIndex": "0x1",
      "blockHash": "0x523f6bf2303794d713c57b8cb4e99d4470fb01518fb929f98e2e77ca38245c40",
      "blockNumber": "0x2ca3488",
      "from": "0xacB3Afa9Ca0b4edeAc41a98E1F90ba6300b6D217",
      "to": null,
      "cumulativeGasUsed": "0x1cbd27",
      "gasUsed": "0x1cbd27",
      "contractAddress": "0xd00CEdA81e6Ce6B47BFC6B19e8981C24aEa58368",
      "logs": [
        {
          "address": "0xd00CEdA81e6Ce6B47BFC6B19e8981C24aEa58368",
          "topics": [
            "0x8be0079c531659141344cd1fd0a4f28419497f9722a3daafe3b4186f6b6457e0",
            "0x0000000000000000000000000000000000000000000000000000000000000000",
            "0x000000000000000000000000acb3afa9ca0b4edeac41a98e1f90ba6300b6d217"
          ],
          "data": "0x",
          "blockHash": "0x523f6bf2303794d713c57b8cb4e99d4470fb01518fb929f98e2e77ca38245c40",
          "blockNumber": "0x2ca3488",
          "transactionHash": "0x7a54505fff7723dc671fe12201e137db23da52c7972a6d373c4348cbb0a8de83",
          "transactionIndex": "0x1",
          "logIndex": "0x0",
          "removed": false
        },
        {
          "address": "0xd00CEdA81e6Ce6B47BFC6B19e8981C24aEa58368",
          "topics": [
            "0xddf252ad1be2c89b69c2b068fc378daa952ba7f163c4a11628f55a4df523b3ef",
            "0x0000000000000000000000000000000000000000000000000000000000000000",
            "0x000000000000000000000000acb3afa9ca0b4edeac41a98e1f90ba6300b6d217"
          ],
          "data": "0x00000000000000000000000000000000000000000000d3c21bcecceda1000000",
          "blockHash": "0x523f6bf2303794d713c57b8cb4e99d4470fb01518fb929f98e2e77ca38245c40",
          "blockNumber": "0x2ca3488",
          "transactionHash": "0x7a54505fff7723dc671fe12201e137db23da52c7972a6d373c4348cbb0a8de83",
          "transactionIndex": "0x1",
          "logIndex": "0x1",
          "removed": false
        }
      ],
      "status": "0x1",
      "logsBloom": "0x00000000000000000000000000000000000000000000000000800000000000000000000000000000000000400000000000004000000000000000000000000000000000000000000000000008000000000001000000000000000000000000000000000000020000000000000000000800000000000000000000000010000000400000000000000001000000000000000000000000000000000000040000000000000000000000800000000000000000000000000000000000000000000000000000000002000000000000000000000000000000000000000000000000000020000000000000000000000000000000000000000000000000004000000000000000",
      "type": "0x2",
      "effectiveGasPrice": "0x3282e880"
    },
    {
      "transactionHash": "0x9736991f36be96a1c1ccac7e6556927dc778ce2218e7cea992c93dd41defc6cc",
      "transactionIndex": "0x1",
      "blockHash": "0x29cca13b9569c375c70548bcb962e7f0a4261e95cc920eb4db30a5c343e13a4c",
      "blockNumber": "0x2ca348b",
      "from": "0xacB3Afa9Ca0b4edeAc41a98E1F90ba6300b6D217",
      "to": "0xd00CEdA81e6Ce6B47BFC6B19e8981C24aEa58368",
      "cumulativeGasUsed": "0xdb6c",
      "gasUsed": "0xdb6c",
      "contractAddress": null,
      "logs": [
        {
          "address": "0xd00CEdA81e6Ce6B47BFC6B19e8981C24aEa58368",
          "topics": [
            "0xddf252ad1be2c89b69c2b068fc378daa952ba7f163c4a11628f55a4df523b3ef",
            "0x000000000000000000000000acb3afa9ca0b4edeac41a98e1f90ba6300b6d217",
            "0x00000000000000000000000057abda4ee50bb3079a556c878b2c345310057569"
          ],
          "data": "0x00000000000000000000000000000000000000000000021e19e0c9bab2400000",
          "blockHash": "0x29cca13b9569c375c70548bcb962e7f0a4261e95cc920eb4db30a5c343e13a4c",
          "blockNumber": "0x2ca348b",
          "transactionHash": "0x9736991f36be96a1c1ccac7e6556927dc778ce2218e7cea992c93dd41defc6cc",
          "transactionIndex": "0x1",
          "logIndex": "0x0",
          "removed": false
        }
      ],
      "status": "0x1",
      "logsBloom": "0x00000000000000000000000000000000000000000000000000000000000000000000000000000000000000400000000000004000000000000000000000000000000000000000000000000008000000000000000000000000000000000000000000000000000000000000000000000000000000000000000000000010000000000000000000000001000000000000000004000000000000000100040000000000000000000000800000000001000000000000000000000000000000000000000000000002000000000000000000000000000000000000000000000000000000000000000000000000000000000000000000000000000000004000000000000000",
      "type": "0x2",
      "effectiveGasPrice": "0x3272e2f0"
    },
    {
      "transactionHash": "0x4f137d656b452be1ab8947beed5aa258df8ea94cf6b93ad0f2d25b8e099f5d1e",
      "transactionIndex": "0x1",
      "blockHash": "0xf91fe471b8cc9b8aaf38a36f08b1d4134c04cc416bad44d74c5c9d85adfec16f",
      "blockNumber": "0x2ca348e",
      "from": "0xacB3Afa9Ca0b4edeAc41a98E1F90ba6300b6D217",
      "to": "0xd00CEdA81e6Ce6B47BFC6B19e8981C24aEa58368",
      "cumulativeGasUsed": "0xdb60",
      "gasUsed": "0xdb60",
      "contractAddress": null,
      "logs": [
        {
          "address": "0xd00CEdA81e6Ce6B47BFC6B19e8981C24aEa58368",
          "topics": [
            "0xddf252ad1be2c89b69c2b068fc378daa952ba7f163c4a11628f55a4df523b3ef",
            "0x000000000000000000000000acb3afa9ca0b4edeac41a98e1f90ba6300b6d217",
            "0x000000000000000000000000d800b05c70a2071bc1e5eac5b3390da1eb67bc9d"
          ],
          "data": "0x00000000000000000000000000000000000000000000021e19e0c9bab2400000",
          "blockHash": "0xf91fe471b8cc9b8aaf38a36f08b1d4134c04cc416bad44d74c5c9d85adfec16f",
          "blockNumber": "0x2ca348e",
          "transactionHash": "0x4f137d656b452be1ab8947beed5aa258df8ea94cf6b93ad0f2d25b8e099f5d1e",
          "transactionIndex": "0x1",
          "logIndex": "0x0",
          "removed": false
        }
      ],
      "status": "0x1",
      "logsBloom": "0x00000000000000000000000000000000000002000000000000000000000000000000000000000000000000400000000000004000000000000000000000000000000000000000000000000008000000000000000000000000000000000000000000000000000000000000000000000000000000000000000000000010000000000000000000000001000000000000000000000000000000000000040000010000000000000000800000000000000000000000000000000000000000000000000000000002000000000000000000000000000000000000000000000000000000000000000000000000000001000000000000000000000000004000000000000000",
      "type": "0x2",
      "effectiveGasPrice": "0x32741b70"
    },
    {
      "transactionHash": "0x7844aea5dc5551bd01f3b65592823b26b8a87055253db867d56f6357108e7ab9",
      "transactionIndex": "0x1",
      "blockHash": "0x97eeae25df49cfa587c2a666a28d7700c8af57752dfadc316355c59018d5326c",
      "blockNumber": "0x2ca3491",
      "from": "0xacB3Afa9Ca0b4edeAc41a98E1F90ba6300b6D217",
      "to": "0xd00CEdA81e6Ce6B47BFC6B19e8981C24aEa58368",
      "cumulativeGasUsed": "0xdb6c",
      "gasUsed": "0xdb6c",
      "contractAddress": null,
      "logs": [
        {
          "address": "0xd00CEdA81e6Ce6B47BFC6B19e8981C24aEa58368",
          "topics": [
            "0xddf252ad1be2c89b69c2b068fc378daa952ba7f163c4a11628f55a4df523b3ef",
            "0x000000000000000000000000acb3afa9ca0b4edeac41a98e1f90ba6300b6d217",
            "0x00000000000000000000000057ffb33cc9d786da4087d970b0b0053017f26afc"
          ],
          "data": "0x00000000000000000000000000000000000000000000021e19e0c9bab2400000",
          "blockHash": "0x97eeae25df49cfa587c2a666a28d7700c8af57752dfadc316355c59018d5326c",
          "blockNumber": "0x2ca3491",
          "transactionHash": "0x7844aea5dc5551bd01f3b65592823b26b8a87055253db867d56f6357108e7ab9",
          "transactionIndex": "0x1",
          "logIndex": "0x0",
          "removed": false
        }
      ],
      "status": "0x1",
      "logsBloom": "0x00000000000000000000000000000000000000000004000000000000000000000000000000000000000000400000000000004000000000000000000000000000000000000000000000000008000000000000000000000000000000000000000000000000000000000000000000000000000000000000000000000010000000000000000000000001000000000000000000000000000000000000040000000000000000000000800000000000000000000000000000000000000000000000000000000802000000000000000000000000000000000000000000000000000000000000000000000000000000000400000000000000000000004000000000000000",
      "type": "0x2",
      "effectiveGasPrice": "0x329bc7b0"
    },
    {
      "transactionHash": "0xfab2db0535dcd7a76dc51a1bfcf1e52978241287f34a19070ca09e2cd7f82ca2",
      "transactionIndex": "0x3",
      "blockHash": "0x380fe31ad88600fcdb80982e30b8bb1829cec5ff01d7a8f22c4afcdb0c40a1e6",
      "blockNumber": "0x2ca3494",
      "from": "0xacB3Afa9Ca0b4edeAc41a98E1F90ba6300b6D217",
      "to": "0xd00CEdA81e6Ce6B47BFC6B19e8981C24aEa58368",
      "cumulativeGasUsed": "0x5fdbe",
      "gasUsed": "0xdb6c",
      "contractAddress": null,
      "logs": [
        {
          "address": "0xd00CEdA81e6Ce6B47BFC6B19e8981C24aEa58368",
          "topics": [
            "0xddf252ad1be2c89b69c2b068fc378daa952ba7f163c4a11628f55a4df523b3ef",
            "0x000000000000000000000000acb3afa9ca0b4edeac41a98e1f90ba6300b6d217",
            "0x00000000000000000000000027773b203954fbbb3e98dfa1a85a99e1c2f40f56"
          ],
          "data": "0x00000000000000000000000000000000000000000000021e19e0c9bab2400000",
          "blockHash": "0x380fe31ad88600fcdb80982e30b8bb1829cec5ff01d7a8f22c4afcdb0c40a1e6",
          "blockNumber": "0x2ca3494",
          "transactionHash": "0xfab2db0535dcd7a76dc51a1bfcf1e52978241287f34a19070ca09e2cd7f82ca2",
          "transactionIndex": "0x3",
          "logIndex": "0x4",
          "removed": false
        }
      ],
      "status": "0x1",
      "logsBloom": "0x00000000000002000000000000000000000000000000000000000000000000000000000000000000000000400000000000004000400000000000000000000000000000000000000000000008000000000000000000000000000000000000000000000000000000000000000000000000000000000000000000000010000000000000000000000001000000000000000000000000000000000000040000000000000000000000800000000000000000000000008000000000000000000000000000000002000000000000000000000000000000000000000000000000000000000000000000000000000000000000000000000000000000004000000000000000",
      "type": "0x2",
      "effectiveGasPrice": "0x32869200"
    },
    {
      "transactionHash": "0x7d8a1007f4ff06d3a330d857d6a2175793a0fb4313b3626a5889f06b7125f04e",
      "transactionIndex": "0x6",
      "blockHash": "0xb8f8418f7502e68b5f013a2aad80af495ce3a3103e3aaf214582c374d4aae3fd",
      "blockNumber": "0x2ca3497",
      "from": "0xacB3Afa9Ca0b4edeAc41a98E1F90ba6300b6D217",
      "to": "0xd00CEdA81e6Ce6B47BFC6B19e8981C24aEa58368",
      "cumulativeGasUsed": "0x39e282",
      "gasUsed": "0xdb6c",
      "contractAddress": null,
      "logs": [
        {
          "address": "0xd00CEdA81e6Ce6B47BFC6B19e8981C24aEa58368",
          "topics": [
            "0xddf252ad1be2c89b69c2b068fc378daa952ba7f163c4a11628f55a4df523b3ef",
            "0x000000000000000000000000acb3afa9ca0b4edeac41a98e1f90ba6300b6d217",
            "0x00000000000000000000000067243d6c3c3bdc2f59d2f74ba1949a02973a529d"
          ],
          "data": "0x00000000000000000000000000000000000000000000021e19e0c9bab2400000",
          "blockHash": "0xb8f8418f7502e68b5f013a2aad80af495ce3a3103e3aaf214582c374d4aae3fd",
          "blockNumber": "0x2ca3497",
          "transactionHash": "0x7d8a1007f4ff06d3a330d857d6a2175793a0fb4313b3626a5889f06b7125f04e",
          "transactionIndex": "0x6",
          "logIndex": "0x15",
          "removed": false
        }
      ],
      "status": "0x1",
      "logsBloom": "0x00000000000000000000000000000000000000000000000000000000000000000000800000000000000000400000000000004000000000000000000000000000000000000000000000000008000000000000000000000000000000000000000000000000000000000000000000000000000000000000000000000010000000000000000000000001000000000000100000000000000000000000040000000000000000000000800000000000000000000000000000000000000000000000000000000002000000000000000000000000000000000000000000000000000000000000000000000000000000000000000000000000000040004000000000000000",
      "type": "0x2",
      "effectiveGasPrice": "0x323a46c0"
    },
    {
      "transactionHash": "0x743aa1551e3d8978cb80703b3ef46873b1a906d6a4b39622760709773cdda3d3",
      "transactionIndex": "0x1",
      "blockHash": "0x8e6b1f625d0c61e0f9cb35418e47e571baaa298dfcd25c17ee88aeafd0d204c8",
      "blockNumber": "0x2ca349a",
      "from": "0xacB3Afa9Ca0b4edeAc41a98E1F90ba6300b6D217",
      "to": "0xd00CEdA81e6Ce6B47BFC6B19e8981C24aEa58368",
      "cumulativeGasUsed": "0xdb6c",
      "gasUsed": "0xdb6c",
      "contractAddress": null,
      "logs": [
        {
          "address": "0xd00CEdA81e6Ce6B47BFC6B19e8981C24aEa58368",
          "topics": [
            "0xddf252ad1be2c89b69c2b068fc378daa952ba7f163c4a11628f55a4df523b3ef",
            "0x000000000000000000000000acb3afa9ca0b4edeac41a98e1f90ba6300b6d217",
            "0x000000000000000000000000de6bcde54cf040088607199fc541f013ba53c21e"
          ],
          "data": "0x000000000000000000000000000000000000000000003f870857a3e0e3800000",
          "blockHash": "0x8e6b1f625d0c61e0f9cb35418e47e571baaa298dfcd25c17ee88aeafd0d204c8",
          "blockNumber": "0x2ca349a",
          "transactionHash": "0x743aa1551e3d8978cb80703b3ef46873b1a906d6a4b39622760709773cdda3d3",
          "transactionIndex": "0x1",
          "logIndex": "0x0",
          "removed": false
        }
      ],
      "status": "0x1",
      "logsBloom": "0x00000000000000000000000200000000000000000000000000000000000000000000000000000000000000400000000000004000000000000000000000000000000000000000000000000008000000000000000000000000000000000000000000000000000000000000000000000000000000000000000000800010000000000000000000000001000000000000000000000000000000000000040000000000000000000000800000000000000000000000000000000000000000000000000000000002000000000000000000000000000000000004000000000000000000000000000000000000000000000000000000000000000000004000000000000000",
      "type": "0x2",
      "effectiveGasPrice": "0x32238a70"
    }
  ],
  "libraries": [],
  "pending": [],
  "returns": {},
  "timestamp": 1716403218,
  "chain": 421614,
  "commit": "99fb05d"
}