{
  "transactions": [
    {
      "hash": "0x86b8658c9519a86300183b895d8b9083ebce639e5151f8cd0d187fe090c1df36",
      "transactionType": "CREATE",
      "contractName": "TimedVotes",
      "contractAddress": "0x52f718fB325CAD186a4D69368765d5604d2483eC",
      "function": null,
      "arguments": null,
      "transaction": {
        "type": "0x02",
        "from": "0xacb3afa9ca0b4edeac41a98e1f90ba6300b6d217",
        "gas": "0x23dc56",
        "value": "0x0",
        "data": "0x608060405234801561001057600080fd5b50610d48806100206000396000f3fe608060405234801561001057600080fd5b50600436106100cf5760003560e01c8063715158221161008c5780639386775a116100665780639386775a14610185578063d1f57894146101b0578063d7c81976146101c3578063e3ac83da146101d657600080fd5b8063715158221461014957806378e97925146101695780637bc6acd81461017257600080fd5b80630f715e7e146100d45780630fb5a6b4146100e95780631594118f146101055780632260b98b146101255780633197cbb61461012d57806358503f8f14610136575b600080fd5b6100e76100e2366004610a4a565b610201565b005b6100f260035481565b6040519081526020015b60405180910390f35b6100f2610113366004610aab565b60056020526000908152604090205481565b6100e761036f565b6100f260025481565b6100e7610144366004610a4a565b6104e6565b6100f2610157366004610aab565b60009081526005602052604090205490565b6100f260015481565b6100f2610180366004610ac4565b6106cf565b6100f2610193366004610ac4565b600460209081526000928352604080842090915290825290205481565b6100e76101be366004610af0565b6106f9565b6100e76101d1366004610aab565b610773565b6000546101e9906001600160a01b031681565b6040516001600160a01b0390911681526020016100fc565b6000546001600160a01b0316331461024f5760405162461bcd60e51b815260206004820152600c60248201526b13db9b1e4818dbdb9d195cdd60a21b60448201526064015b60405180910390fd5b600154421015801561026357506002544211155b6102af5760405162461bcd60e51b815260206004820152601e60248201527f4d75737420766f74652077697468696e20766f74696e6720706572696f6400006044820152606401610246565b60008381526004602090815260408083206001600160a01b0388168452909152812080548492906102e1908490610b54565b909155505060008381526005602052604081208054849290610304908490610b54565b925050819055506000818060200190518101906103219190610b8b565b9050846001600160a01b03167f4914d3e30787beac92f1d71ee4cc827760f511689dcc813b7ea2fca64f35779285858460405161036093929190610c40565b60405180910390a25050505050565b60005460405163095f3a9560e41b81526001600160a01b03909116906395f3a950906103a090600290600401610c95565b602060405180830381865afa1580156103bd573d6000803e3d6000fd5b505050506040513d601f19601f820116820180604052508101906103e19190610cbd565b61042d5760405162461bcd60e51b815260206004820152601e60248201527f436f6e74657374206973206e6f7420696e20766f74696e6720737461746500006044820152606401610246565b6002541580159061043f575060025442115b61048b5760405162461bcd60e51b815260206004820152601b60248201527f566f74696e6720706572696f6420686173206e6f7420656e64656400000000006044820152606401610246565b6000805460408051632260b98b60e01b815290516001600160a01b0390921692632260b98b9260048084019382900301818387803b1580156104cc57600080fd5b505af11580156104e0573d6000803e3d6000fd5b50505050565b6000546001600160a01b0316331461052f5760405162461bcd60e51b815260206004820152600c60248201526b13db9b1e4818dbdb9d195cdd60a21b6044820152606401610246565b600154421015801561054357506002544211155b61058f5760405162461bcd60e51b815260206004820152601e60248201527f4d75737420766f74652077697468696e20766f74696e6720706572696f6400006044820152606401610246565b60008381526004602090815260408083206001600160a01b03881684529091529020548281101561060e5760405162461bcd60e51b8152602060048201526024808201527f52657472616374656420616d6f756e74206578636565647320766f746520616d6044820152631bdd5b9d60e21b6064820152608401610246565b60008481526004602090815260408083206001600160a01b038916845290915281208054859290610640908490610ce6565b909155505060008481526005602052604081208054859290610663908490610ce6565b925050819055506000828060200190518101906106809190610b8b565b9050856001600160a01b03167f65e81de2e8377c5c334ac6797791bbf29ca435a7912f23c6d80ecb69b630d4dd8686846040516106bf93929190610c40565b60405180910390a2505050505050565b60008281526004602090815260408083206001600160a01b03851684529091529020545b92915050565b60008180602001905181019061070f9190610cf9565b600080546001600160a01b0319166001600160a01b038616908117909155600382905560408051918252602082018390529192507f25ff68dd81b34665b5ba7e553ee5511bf6812e12adb4a7e2c0d9e26b3099ce79910160405180910390a1505050565b60005460405163095f3a9560e41b81526001600160a01b03909116906395f3a950906107a490600290600401610c95565b602060405180830381865afa1580156107c1573d6000803e3d6000fd5b505050506040513d601f19601f820116820180604052508101906107e59190610cbd565b6108315760405162461bcd60e51b815260206004820152601e60248201527f436f6e74657374206973206e6f7420696e20766f74696e6720737461746500006044820152606401610246565b600154156108815760405162461bcd60e51b815260206004820152601a60248201527f566f74696e672068617320616c726561647920737461727465640000000000006044820152606401610246565b8060000361089257426001556108e7565b4281116108e15760405162461bcd60e51b815260206004820181905260248201527f53746172742074696d65206d75737420626520696e20746865206675747572656044820152606401610246565b60018190555b6003546001546108f79190610b54565b60028190556001546040517ff8c022056754dbacca05aff710dc315a2fa7699ae9309fda403cd1e55c11d40f92610935928252602082015260400190565b60405180910390a150565b80356001600160a01b038116811461095757600080fd5b919050565b634e487b7160e01b600052604160045260246000fd5b6040805190810167ffffffffffffffff811182821017156109955761099561095c565b60405290565b604051601f8201601f1916810167ffffffffffffffff811182821017156109c4576109c461095c565b604052919050565b600067ffffffffffffffff8211156109e6576109e661095c565b50601f01601f191660200190565b600082601f830112610a0557600080fd5b8135610a18610a13826109cc565b61099b565b818152846020838601011115610a2d57600080fd5b816020850160208301376000918101602001919091529392505050565b60008060008060808587031215610a6057600080fd5b610a6985610940565b93506020850135925060408501359150606085013567ffffffffffffffff811115610a9357600080fd5b610a9f878288016109f4565b91505092959194509250565b600060208284031215610abd57600080fd5b5035919050565b60008060408385031215610ad757600080fd5b82359150610ae760208401610940565b90509250929050565b60008060408385031215610b0357600080fd5b610b0c83610940565b9150602083013567ffffffffffffffff811115610b2857600080fd5b610b34858286016109f4565b9150509250929050565b634e487b7160e01b600052601160045260246000fd5b808201808211156106f3576106f3610b3e565b60005b83811015610b82578181015183820152602001610b6a565b50506000910152565b60006020808385031215610b9e57600080fd5b825167ffffffffffffffff80821115610bb657600080fd5b9084019060408287031215610bca57600080fd5b610bd2610972565b825181528383015182811115610be757600080fd5b80840193505086601f840112610bfc57600080fd5b82519150610c0c610a13836109cc565b8281528785848601011115610c2057600080fd5b610c2f83868301878701610b67565b938101939093525090949350505050565b8381528260208201526060604082015281516060820152600060208301516040608084015280518060a0850152610c7e8160c0860160208501610b67565b601f01601f19169290920160c00195945050505050565b6020810160068310610cb757634e487b7160e01b600052602160045260246000fd5b91905290565b600060208284031215610ccf57600080fd5b81518015158114610cdf57600080fd5b9392505050565b818103818111156106f3576106f3610b3e565b600060208284031215610d0b57600080fd5b505191905056fea2646970667358221220e6e35254411afe764485189b976ef2e923204503303ddca59ead8f5d813b866b64736f6c63430008100033",
        "nonce": "0x1e",
        "accessList": []
      },
      "additionalContracts": [],
      "isFixedGasLimit": false
    },
    {
      "hash": "0xec8771a35c3ab97c5cd85ca3977678c25cb9e9f902a51cbe12a224d44ed3cc2f",
      "transactionType": "CALL",
      "contractName": null,
      "contractAddress": "0x1670EEfb9B638243559b6Fcc7D6d3e6f9d4Ca5Fc",
      "function": "setModuleTemplate(string,address,(uint256,string))",
      "arguments": [
        "\"TimedVotes_v0.1.0\"",
        "0x52f718fB325CAD186a4D69368765d5604d2483eC",
        "(0, \"TimedVotes: Votes module that uses a time limit for voting\")"
      ],
      "transaction": {
        "type": "0x02",
        "from": "0xacb3afa9ca0b4edeac41a98e1f90ba6300b6d217",
        "to": "0x1670eefb9b638243559b6fcc7d6d3e6f9d4ca5fc",
        "gas": "0x47987",
        "value": "0x0",
        "data": "0xe963d889000000000000000000000000000000000000000000000000000000000000006000000000000000000000000052f718fb325cad186a4d69368765d5604d2483ec00000000000000000000000000000000000000000000000000000000000000a0000000000000000000000000000000000000000000000000000000000000001154696d6564566f7465735f76302e312e3000000000000000000000000000000000000000000000000000000000000000000000000000000000000000000000000000000000000000000000000000000000000000000000000000000000000040000000000000000000000000000000000000000000000000000000000000003a54696d6564566f7465733a20566f746573206d6f64756c652074686174207573657320612074696d65206c696d697420666f7220766f74696e67000000000000",
        "nonce": "0x1f",
        "accessList": []
      },
      "additionalContracts": [],
      "isFixedGasLimit": false
    }
  ],
  "receipts": [
    {
      "transactionHash": "0x86b8658c9519a86300183b895d8b9083ebce639e5151f8cd0d187fe090c1df36",
      "transactionIndex": "0x2",
      "blockHash": "0x1f55db7d23ed189bbcdca4db124268674c363e2e0f4df8f56df4aa2223b4311c",
      "blockNumber": "0x2ca0985",
      "from": "0xacB3Afa9Ca0b4edeAc41a98E1F90ba6300b6D217",
      "to": null,
      "cumulativeGasUsed": "0x1fc5a6",
      "gasUsed": "0x182438",
      "contractAddress": "0x52f718fB325CAD186a4D69368765d5604d2483eC",
      "logs": [],
      "status": "0x1",
      "logsBloom": "0x00000000000000000000000000000000000000000000000000000000000000000000000000000000000000000000000000000000000000000000000000000000000000000000000000000000000000000000000000000000000000000000000000000000000000000000000000000000000000000000000000000000000000000000000000000000000000000000000000000000000000000000000000000000000000000000000000000000000000000000000000000000000000000000000000000000000000000000000000000000000000000000000000000000000000000000000000000000000000000000000000000000000000000000000000000000",
      "type": "0x2",
      "effectiveGasPrice": "0x2328b3b0"
    },
    {
      "transactionHash": "0xec8771a35c3ab97c5cd85ca3977678c25cb9e9f902a51cbe12a224d44ed3cc2f",
      "transactionIndex": "0x1",
      "blockHash": "0x49737d68ca0d953d470f5ad568bb6c71c42bd7da744156d21663bdaa253b74a4",
      "blockNumber": "0x2ca0988",
      "from": "0xacB3Afa9Ca0b4edeAc41a98E1F90ba6300b6D217",
      "to": "0x1670EEfb9B638243559b6Fcc7D6d3e6f9d4Ca5Fc",
      "cumulativeGasUsed": "0x2ba9f",
      "gasUsed": "0x2ba9f",
      "contractAddress": null,
      "logs": [
        {
          "address": "0x1670EEfb9B638243559b6Fcc7D6d3e6f9d4Ca5Fc",
          "topics": [
            "0xcacbb74ea6f89caeed934c4e0eaad9dbc65508d018b276b3aaeb3959d16e1634"
          ],
          "data": "0x000000000000000000000000000000000000000000000000000000000000006000000000000000000000000052f718fb325cad186a4d69368765d5604d2483ec00000000000000000000000000000000000000000000000000000000000000a0000000000000000000000000000000000000000000000000000000000000001154696d6564566f7465735f76302e312e3000000000000000000000000000000000000000000000000000000000000000000000000000000000000000000000000000000000000000000000000000000000000000000000000000000000000040000000000000000000000000000000000000000000000000000000000000003a54696d6564566f7465733a20566f746573206d6f64756c652074686174207573657320612074696d65206c696d697420666f7220766f74696e67000000000000",
          "blockHash": "0x49737d68ca0d953d470f5ad568bb6c71c42bd7da744156d21663bdaa253b74a4",
          "blockNumber": "0x2ca0988",
          "transactionHash": "0xec8771a35c3ab97c5cd85ca3977678c25cb9e9f902a51cbe12a224d44ed3cc2f",
          "transactionIndex": "0x1",
          "logIndex": "0x0",
          "removed": false
        }
      ],
      "status": "0x1",
      "logsBloom": "0x00000000000000000000000000000000000000000000000000000000000000000000000000000000000000000000000000000000000000000000002000000000000000000000000000000000000000000000000000000000000000000000000000000000000000000000000000000000004000000000000000000000000000000000000000000000000000400000000000000000000008000000000000000000000000000000000000000000000000000000000000000000000000000000000000000000000000000000000000000000000000000000000000000000800000000000000000000000000000000000000040000000000000000000000000000000",
      "type": "0x2",
      "effectiveGasPrice": "0x2305c260"
    }
  ],
  "libraries": [],
  "pending": [],
  "returns": {},
  "timestamp": 1716400474,
  "chain": 421614,
  "commit": "18aa5b5"
}