{
  "transactions": [
    {
      "hash": "0x9746e1f2e5bba360a91cc6b675d5973a389ebd196e5513b29aa2b93dd049e5ec",
      "transactionType": "CALL",
      "contractName": null,
      "contractAddress": "0x3a190e45f300cbb8AB1153a90b23EE3333b02D9d",
      "function": "buildContest(bytes,string,bool,bool,string)",
      "arguments": [
        "0x000000000000000000000000000000000000000000000000000000000000004000000000000000000000000000000000000000000000000000000000000001c0000000000000000000000000000000000000000000000000000000000000008000000000000000000000000000000000000000000000000000000000000000c000000000000000000000000000000000000000000000000000000000000001000000000000000000000000000000000000000000000000000000000000000140000000000000000000000000000000000000000000000000000000000000001154696d6564566f7465735f76302e312e3000000000000000000000000000000000000000000000000000000000000000000000000000000000000000000000174552433230566f746573506f696e74735f76302e312e30000000000000000000000000000000000000000000000000000000000000000000000000000000001448617473416c6c6f774c6973745f76302e312e30000000000000000000000000000000000000000000000000000000000000000000000000000000000000001b456d707479457865637574696f6e4d6f64756c655f76302e312e300000000000000000000000000000000000000000000000000000000000000000000000008000000000000000000000000000000000000000000000000000000000000000c0000000000000000000000000000000000000000000000000000000000000012000000000000000000000000000000000000000000000000000000000000001c000000000000000000000000000000000000000000000000000000000000000200000000000000000000000000000000000000000000000000000000000093a800000000000000000000000000000000000000000000000000000000000000040000000000000000000000000d00ceda81e6ce6b47bfc6b19e8981c24aea5836800000000000000000000000000000000000000000000000000000000005ae34100000000000000000000000000000000000000000000000000000000000000800000000000000000000000003bc1a0ad72417f2d411118085256fc53cbddd13700000052000100000000000000000000000000000000000000000000000000000000000000000000000000000000000000000000000000000000000000000060000000000000000000000000000000000000000000000000000000000000000000000000000000000000000000000000000000000000000000000000000000200000000000000000000000000000000000000000000000000000000000000000",
        "\"v0.1.0\"",
        "false",
        "false",
        "\"v0.0.2\""
      ],
      "transaction": {
        "type": "0x02",
        "from": "0xacb3afa9ca0b4edeac41a98e1f90ba6300b6d217",
        "to": "0x3a190e45f300cbb8ab1153a90b23ee3333b02d9d",
        "gas": "0xc53a4",
        "value": "0x0",
        "data": "0x12261d0b00000000000000000000000000000000000000000000000000000000000000a000000000000000000000000000000000000000000000000000000000000004800000000000000000000000000000000000000000000000000000000000000000000000000000000000000000000000000000000000000000000000000000000000000000000000000000000000000000000000000000000000000000000004c000000000000000000000000000000000000000000000000000000000000003c0000000000000000000000000000000000000000000000000000000000000004000000000000000000000000000000000000000000000000000000000000001c0000000000000000000000000000000000000000000000000000000000000008000000000000000000000000000000000000000000000000000000000000000c000000000000000000000000000000000000000000000000000000000000001000000000000000000000000000000000000000000000000000000000000000140000000000000000000000000000000000000000000000000000000000000001154696d6564566f7465735f76302e312e3000000000000000000000000000000000000000000000000000000000000000000000000000000000000000000000174552433230566f746573506f696e74735f76302e312e30000000000000000000000000000000000000000000000000000000000000000000000000000000001448617473416c6c6f774c6973745f76302e312e30000000000000000000000000000000000000000000000000000000000000000000000000000000000000001b456d707479457865637574696f6e4d6f64756c655f76302e312e300000000000000000000000000000000000000000000000000000000000000000000000008000000000000000000000000000000000000000000000000000000000000000c0000000000000000000000000000000000000000000000000000000000000012000000000000000000000000000000000000000000000000000000000000001c000000000000000000000000000000000000000000000000000000000000000200000000000000000000000000000000000000000000000000000000000093a800000000000000000000000000000000000000000000000000000000000000040000000000000000000000000d00ceda81e6ce6b47bfc6b19e8981c24aea5836800000000000000000000000000000000000000000000000000000000005ae34100000000000000000000000000000000000000000000000000000000000000800000000000000000000000003bc1a0ad72417f2d411118085256fc53cbddd13700000052000100000000000000000000000000000000000000000000000000000000000000000000000000000000000000000000000000000000000000000060000000000000000000000000000000000000000000000000000000000000000000000000000000000000000000000000000000000000000000000000000000200000000000000000000000000000000000000000000000000000000000000000000000000000000000000000000000000000000000000000000000000000000676302e312e300000000000000000000000000000000000000000000000000000000000000000000000000000000000000000000000000000000000000000000676302e302e320000000000000000000000000000000000000000000000000000",
        "nonce": "0x40",
        "accessList": []
      },
      "additionalContracts": [
        {
          "transactionType": "CREATE",
          "address": "0x5d2192814c8D8AC19ff41AEaC2222B7D8F322CeA",
          "initCode": "0x3d602d80600a3d3981f3363d3d373d3d3d363d733a594698b511d84c3756d99828af11b9049dff145af43d82803e903d91602b57fd5bf3"
        },
        {
          "transactionType": "CREATE",
          "address": "0x97431CC887E06be287cfF5DF351f67B619a940f2",
          "initCode": "0x3d602d80600a3d3981f3363d3d373d3d3d363d7352f718fb325cad186a4d69368765d5604d2483ec5af43d82803e903d91602b57fd5bf3"
        },
        {
          "transactionType": "CREATE",
          "address": "0xbbA16b1BCf1fe91209Ff27775d0BD06B39595420",
          "initCode": "0x3d602d80600a3d3981f3363d3d373d3d3d363d733198166f2daa2fe2da8efee1f7a3ca72da47fbf75af43d82803e903d91602b57fd5bf3"
        },
        {
          "transactionType": "CREATE",
          "address": "0xb3177343D025F0aD93C7c6FEC2ac01edD3775d80",
          "initCode": "0x3d602d80600a3d3981f3363d3d373d3d3d363d73f6fee573515e78f30b6dca745581ce575677c7615af43d82803e903d91602b57fd5bf3"
        },
        {
          "transactionType": "CREATE",
          "address": "0xfF358ddC9485ec336472EF394adDE76a8a95f5FA",
          "initCode": "0x3d602d80600a3d3981f3363d3d373d3d3d363d73b60274de6def245da0ff46bfc61dafbf312c2baf5af43d82803e903d91602b57fd5bf3"
        }
      ],
      "isFixedGasLimit": false
    }
  ],
  "receipts": [
    {
      "transactionHash": "0x9746e1f2e5bba360a91cc6b675d5973a389ebd196e5513b29aa2b93dd049e5ec",
      "transactionIndex": "0x4",
      "blockHash": "0x5ed58ecc9d1ccfb584deda843e921b73ec16489dc039cb073925456806cce3ef",
      "blockNumber": "0x2d77188",
      "from": "0xacB3Afa9Ca0b4edeAc41a98E1F90ba6300b6D217",
      "to": "0x3a190e45f300cbb8AB1153a90b23EE3333b02D9d",
      "cumulativeGasUsed": "0xe0d7d",
      "gasUsed": "0x97b6b",
      "contractAddress": null,
      "logs": [
        {
          "address": "0x3a190e45f300cbb8AB1153a90b23EE3333b02D9d",
          "topics": [
            "0x0eb5744a228a071ef8208fbe7a713b18318b6fee592926fe3f63cbd329110340"
          ],
          "data": "0x0000000000000000000000005d2192814c8d8ac19ff41aeac2222b7d8f322cea000000000000000000000000000000000000000000000000000000000000006000000000000000000000000000000000000000000000000000000000000000a0000000000000000000000000000000000000000000000000000000000000000676302e312e300000000000000000000000000000000000000000000000000000000000000000000000000000000000000000000000000000000000000000000676302e302e320000000000000000000000000000000000000000000000000000",
          "blockHash": "0x5ed58ecc9d1ccfb584deda843e921b73ec16489dc039cb073925456806cce3ef",
          "blockNumber": "0x2d77188",
          "transactionHash": "0x9746e1f2e5bba360a91cc6b675d5973a389ebd196e5513b29aa2b93dd049e5ec",
          "transactionIndex": "0x4",
          "logIndex": "0x6",
          "removed": false
        },
        {
          "address": "0x3a190e45f300cbb8AB1153a90b23EE3333b02D9d",
          "topics": [
            "0x40d23a2d4b0c05bb75f825dc0ee5b33beba7a81e966554f60af6b2b3f62b47c0"
          ],
          "data": "0x00000000000000000000000097431cc887e06be287cff5df351f67b619a940f2000000000000000000000000000000000000000000000000000000000000006000000000000000000000000000000000000000000000000000000000000000a0000000000000000000000000000000000000000000000000000000000000001154696d6564566f7465735f76302e312e30000000000000000000000000000000000000000000000000000000000000000000000000000000000000000000000676302e302e320000000000000000000000000000000000000000000000000000",
          "blockHash": "0x5ed58ecc9d1ccfb584deda843e921b73ec16489dc039cb073925456806cce3ef",
          "blockNumber": "0x2d77188",
          "transactionHash": "0x9746e1f2e5bba360a91cc6b675d5973a389ebd196e5513b29aa2b93dd049e5ec",
          "transactionIndex": "0x4",
          "logIndex": "0x7",
          "removed": false
        },
        {
          "address": "0x97431CC887E06be287cfF5DF351f67B619a940f2",
          "topics": [
            "0x25ff68dd81b34665b5ba7e553ee5511bf6812e12adb4a7e2c0d9e26b3099ce79"
          ],
          "data": "0x0000000000000000000000005d2192814c8d8ac19ff41aeac2222b7d8f322cea0000000000000000000000000000000000000000000000000000000000093a80",
          "blockHash": "0x5ed58ecc9d1ccfb584deda843e921b73ec16489dc039cb073925456806cce3ef",
          "blockNumber": "0x2d77188",
          "transactionHash": "0x9746e1f2e5bba360a91cc6b675d5973a389ebd196e5513b29aa2b93dd049e5ec",
          "transactionIndex": "0x4",
          "logIndex": "0x8",
          "removed": false
        },
        {
          "address": "0x3a190e45f300cbb8AB1153a90b23EE3333b02D9d",
          "topics": [
            "0x40d23a2d4b0c05bb75f825dc0ee5b33beba7a81e966554f60af6b2b3f62b47c0"
          ],
          "data": "0x000000000000000000000000bba16b1bcf1fe91209ff27775d0bd06b39595420000000000000000000000000000000000000000000000000000000000000006000000000000000000000000000000000000000000000000000000000000000a000000000000000000000000000000000000000000000000000000000000000174552433230566f746573506f696e74735f76302e312e30000000000000000000000000000000000000000000000000000000000000000000000000000000000676302e302e320000000000000000000000000000000000000000000000000000",
          "blockHash": "0x5ed58ecc9d1ccfb584deda843e921b73ec16489dc039cb073925456806cce3ef",
          "blockNumber": "0x2d77188",
          "transactionHash": "0x9746e1f2e5bba360a91cc6b675d5973a389ebd196e5513b29aa2b93dd049e5ec",
          "transactionIndex": "0x4",
          "logIndex": "0x9",
          "removed": false
        },
        {
          "address": "0xbbA16b1BCf1fe91209Ff27775d0BD06B39595420",
          "topics": [
            "0x10f27652c1015195ca7e6bc9b4c724cbf18e91c42117d92124703a3f49bb240f"
          ],
          "data": "0x0000000000000000000000005d2192814c8d8ac19ff41aeac2222b7d8f322cea000000000000000000000000d00ceda81e6ce6b47bfc6b19e8981c24aea5836800000000000000000000000000000000000000000000000000000000005ae341",
          "blockHash": "0x5ed58ecc9d1ccfb584deda843e921b73ec16489dc039cb073925456806cce3ef",
          "blockNumber": "0x2d77188",
          "transactionHash": "0x9746e1f2e5bba360a91cc6b675d5973a389ebd196e5513b29aa2b93dd049e5ec",
          "transactionIndex": "0x4",
          "logIndex": "0xa",
          "removed": false
        },
        {
          "address": "0x3a190e45f300cbb8AB1153a90b23EE3333b02D9d",
          "topics": [
            "0x40d23a2d4b0c05bb75f825dc0ee5b33beba7a81e966554f60af6b2b3f62b47c0"
          ],
          "data": "0x000000000000000000000000b3177343d025f0ad93c7c6fec2ac01edd3775d80000000000000000000000000000000000000000000000000000000000000006000000000000000000000000000000000000000000000000000000000000000a0000000000000000000000000000000000000000000000000000000000000001448617473416c6c6f774c6973745f76302e312e30000000000000000000000000000000000000000000000000000000000000000000000000000000000000000676302e302e320000000000000000000000000000000000000000000000000000",
          "blockHash": "0x5ed58ecc9d1ccfb584deda843e921b73ec16489dc039cb073925456806cce3ef",
          "blockNumber": "0x2d77188",
          "transactionHash": "0x9746e1f2e5bba360a91cc6b675d5973a389ebd196e5513b29aa2b93dd049e5ec",
          "transactionIndex": "0x4",
          "logIndex": "0xb",
          "removed": false
        },
        {
          "address": "0xb3177343D025F0aD93C7c6FEC2ac01edD3775d80",
          "topics": [
            "0x10f27652c1015195ca7e6bc9b4c724cbf18e91c42117d92124703a3f49bb240f"
          ],
          "data": "0x0000000000000000000000005d2192814c8d8ac19ff41aeac2222b7d8f322cea0000000000000000000000003bc1a0ad72417f2d411118085256fc53cbddd1370000005200010000000000000000000000000000000000000000000000000000",
          "blockHash": "0x5ed58ecc9d1ccfb584deda843e921b73ec16489dc039cb073925456806cce3ef",
          "blockNumber": "0x2d77188",
          "transactionHash": "0x9746e1f2e5bba360a91cc6b675d5973a389ebd196e5513b29aa2b93dd049e5ec",
          "transactionIndex": "0x4",
          "logIndex": "0xc",
          "removed": false
        },
        {
          "address": "0x3a190e45f300cbb8AB1153a90b23EE3333b02D9d",
          "topics": [
            "0x40d23a2d4b0c05bb75f825dc0ee5b33beba7a81e966554f60af6b2b3f62b47c0"
          ],
          "data": "0x000000000000000000000000ff358ddc9485ec336472ef394adde76a8a95f5fa000000000000000000000000000000000000000000000000000000000000006000000000000000000000000000000000000000000000000000000000000000a0000000000000000000000000000000000000000000000000000000000000001b456d707479457865637574696f6e4d6f64756c655f76302e312e300000000000000000000000000000000000000000000000000000000000000000000000000676302e302e320000000000000000000000000000000000000000000000000000",
          "blockHash": "0x5ed58ecc9d1ccfb584deda843e921b73ec16489dc039cb073925456806cce3ef",
          "blockNumber": "0x2d77188",
          "transactionHash": "0x9746e1f2e5bba360a91cc6b675d5973a389ebd196e5513b29aa2b93dd049e5ec",
          "transactionIndex": "0x4",
          "logIndex": "0xd",
          "removed": false
        },
        {
          "address": "0x5d2192814c8D8AC19ff41AEaC2222B7D8F322CeA",
          "topics": [
            "0x0cb363642da6a78f56db1e8dd82928f33019ea10e0bdcb1bc93365244058664e"
          ],
          "data": "0x00000000000000000000000097431cc887e06be287cff5df351f67b619a940f2000000000000000000000000bba16b1bcf1fe91209ff27775d0bd06b39595420000000000000000000000000b3177343d025f0ad93c7c6fec2ac01edd3775d80000000000000000000000000ff358ddc9485ec336472ef394adde76a8a95f5fa000000000000000000000000000000000000000000000000000000000000000000000000000000000000000000000000000000000000000000000000000000000000000000000000000000000000000000000000000000000000000000000001",
          "blockHash": "0x5ed58ecc9d1ccfb584deda843e921b73ec16489dc039cb073925456806cce3ef",
          "blockNumber": "0x2d77188",
          "transactionHash": "0x9746e1f2e5bba360a91cc6b675d5973a389ebd196e5513b29aa2b93dd049e5ec",
          "transactionIndex": "0x4",
          "logIndex": "0xe",
          "removed": false
        },
        {
          "address": "0x3a190e45f300cbb8AB1153a90b23EE3333b02D9d",
          "topics": [
            "0x98ad319caf8a5ec7b5854e9f5f8a3002e975e370953005344f2e127ff872c7c0"
          ],
          "data": "0x00000000000000000000000000000000000000000000000000000000000000e00000000000000000000000000000000000000000000000000000000000000120000000000000000000000000000000000000000000000000000000000000016000000000000000000000000000000000000000000000000000000000000001a00000000000000000000000005d2192814c8d8ac19ff41aeac2222b7d8f322cea00000000000000000000000000000000000000000000000000000000000001e00000000000000000000000000000000000000000000000000000000000000220000000000000000000000000000000000000000000000000000000000000001154696d6564566f7465735f76302e312e3000000000000000000000000000000000000000000000000000000000000000000000000000000000000000000000174552433230566f746573506f696e74735f76302e312e30000000000000000000000000000000000000000000000000000000000000000000000000000000001448617473416c6c6f774c6973745f76302e312e30000000000000000000000000000000000000000000000000000000000000000000000000000000000000001b456d707479457865637574696f6e4d6f64756c655f76302e312e300000000000000000000000000000000000000000000000000000000000000000000000000676302e312e300000000000000000000000000000000000000000000000000000000000000000000000000000000000000000000000000000000000000000000676302e302e320000000000000000000000000000000000000000000000000000",
          "blockHash": "0x5ed58ecc9d1ccfb584deda843e921b73ec16489dc039cb073925456806cce3ef",
          "blockNumber": "0x2d77188",
          "transactionHash": "0x9746e1f2e5bba360a91cc6b675d5973a389ebd196e5513b29aa2b93dd049e5ec",
          "transactionIndex": "0x4",
          "logIndex": "0xf",
          "removed": false
        }
      ],
      "status": "0x1",
      "logsBloom": "0x00000000000000000000000000000010000000004008000000000000402010000000000200000000000000008000001000000000000000000000000000000000000000000000000000000000100000200000000000000000000000000000000000000040004000000000000000000040000002000000000000080000000000000000000000000000000000002000000000020000000000000000000002024000000000000000000000000010000000000000000000000000000000000000000004000000000000040000000000000000000000004000000020000000400000010000000000000000000008040000000000800000000800800000000000000000",
      "type": "0x2",
      "effectiveGasPrice": "0x77fdc60"
    }
  ],
  "libraries": [],
  "pending": [],
  "returns": {},
  "timestamp": 1716619884,
  "chain": 421614,
  "commit": "d46b927"
}